:100000000C94D8060C941C070C941C070C941C0729
:100010000C941C070C941C070C941C070C941C07D4
:100020000C941C070C941C070C943B160C940D1795
:100030000C944D250C941C070C941C070C941C0765
:100040000C941C070C941C070C941C070C941C07A4
:100050000C941C070C94EC250C941C070C941C07A6
:100060000C941C070C9486090C941C070C941C0718
:100070000C941C070C941C070C941C070C941C0774
:100080000C941C070C941C070C941C070C941C0764
:100090000C941C070C941C070C941C070C941C0754
:1000A0000C941C070C941C070C941C07B90EBE0E74
:1000B000C30EC80ECD0ED20ED70EDC0EE10EE60E2C
:1000C000EB0EF00EF50EFA0EFF0E040F090F0E0FD9
:1000D000130F180F1D0F220F270F2C0F310F360F84
:1000E0003B0F400F450F4A0F4F0F540F590F5E0F34
:1000F000630F680FB70EB20F6D0F6F0F710F730F95
:10010000780F7D0F820F870F8C0F900F950F9A0F2E
:100110009F0FA40FA90FB00FB00FB00FB00FB00F0B
:10012000B00FB00FB00FB00FB00FB00FB00FB00FD7
:10013000B00FB00FB00FB00FB00FB00FAE0F7217FF
:1001400094177F1894177F18D617F9177F184E1831
:100150006118BA1BBA1BE81BE81B441C801C831ED9
:10016000831E981C831E8F1D8F1D5D1E831E831E84
:10017000711E000129022900013502350000C0F17D
:10018000A3048A028A218A1F141A16041D1B062042
:100190002115080709190522231C170A0B11001E37
:1001A000C02BE0E1E2E32C2425180C0E0D100031E9
:1001B000352A28C1E5E6E726271213330F36002D2E
:1001C0002E302F34383700010101010101010101F6
:1001D0000101010101010101010101010101000110
:1001E0000101010101010101010101010101002AD7
:1001F0002A31010101010101010101010101000197
:1002000001010101010100010101010101010101DF
:1002100001010101010101010101010101010001CF
:1002200001010101E3E20101010101010101002AD3
:100230002A31010101E3E201010101010101000193
:10024000010101010101003BACB0A9AA696AC43CEB
:100250003DAFABA801C3C23E3F0101015557003A73
:1002600035390101010101404101464A5456004916
:100270004C2A580101010142434748504B4D00446C
:100280004501524F514E00015F605D5C595A5B0160
:100290000101615E5557560101FD0154F2F4000160
:1002A000C45358676362010101FEFFF0F1F50001DC
:1002B000010101010101010101010101F3F6000148
:1002C0000101010101010025630025730D0A00529F
:1002D0002C310D0A0053592C464646340D0A005362
:1002E000482C303033430D0A00537E2C360D0A0063
:1002F00053572C383030300D0A00534D2C340D0A32
:100300000053532C4B6579626F6172642F4D6F758A
:1003100073650D0A00532D2C546D6B42540D0A0069
:1003200053462C310D0A002D2D2D0D0A00457869FC
:1003300074696E6720636F6E666967206D6F6465B0
:10034000202E2E2E0A002B0D0A00760D0A002424E2
:100350002400456E746572696E6720636F6E66690E
:1003600067206D6F6465202E2E2E0A00522C310DF1
:100370000A0053522C5A0D0A00555342206D6F64E7
:10038000650A004175746F206D6F64650A00253041
:1003900032750A00253032753A00253032753A0040
:1003A0004241543A2025756D560900757074696D87
:1003B000653A202530327520253032753A253032A5
:1003C000753A253032750A00564255533A20255861
:1003D0000A0052656D6F746557616B657570456E87
:1003E00061626C65643A2025580A000A003F004C9F
:1003F0004F57004449534348470043484152470040
:1004000046554C4C00626174746572793A2000550F
:1004100053422053746174653A2025730A00636F58
:100420006E6669675F6D6F64653A2025580A0072D1
:100430006E34325F6175746F636F6E6E656374697D
:100440006E6728293A2025580A00726E34323A2005
:1004500025730A00666F7263655F7573623A2025C3
:10046000580A0070726F746F636F6C3A2025730ABC
:10047000000A2D2D2D2D2D20524E2D343220696E47
:10048000666F202D2D2D2D2D0A00753A202020205D
:10049000202020746F67676C6520466F726365204B
:1004A000555342206D6F64650A00703A2020202069
:1004B00020202070616972696E670A00536C636B5B
:1004C0003A20202020524E2D343220696E69746902
:1004D000616C697A650A0044656C3A20202020200E
:1004E000656E7465722F6578697420524E2D3432B2
:1004F00020636F6E666967206D6F64650A00623AFB
:10050000202020202020206261747465727920767A
:100510006F6C746167650A00693A202020202020F2
:1005200020524E2D343220696E666F0A000A0A2D61
:100530002D2D2D2D20426C7565746F6F74682052BF
:100540004E2D34322048656C70202D2D2D2D2D0A16
:1005500000253032753A253032753A25303275092A
:1005600025756D560A004C4544207374617475738B
:100570003A20253032580A002025303258002563B1
:10058000005B735D004B6579626F61726420737408
:100590006172740A00524E2D343220696E69740AF9
:1005A000000A55534220696E69740A005B445D007D
:1005B0005B435D001203480048004B0042002000EE
:1005C0006D006F00640000000E0374002E006D00CB
:1005D0002E006B002E0000000403090409027400C1
:1005E000040100A0320904000001030101000921F7
:1005F000110100012240000705810308000A0904D7
:1006000001000103010200092111010001224D0036
:100610000705820308000A09040200010300000024
:100620000921110100012236000705830308000A91
:100630000904030002030000000921110100012246
:1006400022000705840320000107050403200001A0
:100650001201100100000008EDFE424204010102F7
:1006600000010631FF0974A1010975150026FF007C
:100670009520750881020976150026FF00952075E2
:10068000089102C005010980A1018502168100269A
:10069000B7001A81002AB700751095018100C005C6
:1006A0000C0901A1018503160100269C021A010014
:1006B0002A9C02751095018100C005010902A10163
:1006C0000901A10005091901290515002501950554
:1006D0007501810295017503810105010930093118
:1006E0001581257F95027508810609381581257FBA
:1006F000950175088106050C0A38021581257F953C
:100700000175088106C0C005010906A10105071988
:10071000E029E7150025019508750181029501750D
:1007200008810105081901290595057501910295B2
:1007300001750391010507190029FF150026FF0027
:10074000950675088100C0636F6E73756D65723AAA
:1007500020253034580A0073797374656D3A20256A
:100760003034580A000A002530325820006B657971
:10077000626F6172643A20004C45443A2025303261
:10078000580A00253032583A202530386225730A3D
:1007900000722F632030313233343536370A004F40
:1007A0006E6573686F743A2074696D656F75740A4D
:1007B00000290A002575002F002575005D280025F9
:1007C00064002000256400200025640020002564CA
:1007D000007C0025303258006D6F7573656B65794C
:1007E000205B62746E7C782079207620685D2872A8
:1007F00065702F61636C293A205B006D6B5F7768D1
:1008000065656C5F74696D655F746F5F6D6178209D
:100810003D2025640A006D6B5F776865656C5F6DD0
:1008200061785F7370656564203D2025640A006D02
:100830006B5F74696D655F746F5F6D6178203D20DB
:1008400025640A006D6B5F6D61785F737065656428
:10085000203D2025640A006D6B5F696E74657276B9
:10086000616C203D2025640A006D6B5F64656C61DE
:1008700079203D2025640A006D6B5F776865656CA3
:100880005F74696D655F746F5F6D6178203D2025D1
:10089000640A006D6B5F776865656C5F6D61785F9A
:1008A0007370656564203D2025640A006D6B5F747C
:1008B000696D655F746F5F6D6178203D2025640A06
:1008C000006D6B5F6D61785F7370656564203D20BE
:1008D00025640A006D6B5F696E74657276616C20C9
:1008E0003D2025640A006D6B5F64656C6179203D75
:1008F0002025640A000A00257500363A20776865CD
:10090000656C5F74696D655F746F5F6D61783A20C7
:10091000000A00257500353A20776865656C5F6DC3
:1009200061785F73706565643A20000A0025750080
:10093000343A2074696D655F746F5F6D61783A2039
:10094000000A00257500333A206D61785F73706589
:1009500065643A20000A00257500323A20696E74F9
:10096000657276616C286D73293A20000A0025753E
:1009700000313A2064656C6179282A31306D732921
:100980003A20000A092D2056616C756573202D0AE6
:10099000004D3E004D25643E20003F0073657420ED
:1009A00064656661756C740A00433E200077686573
:1009B00072652064656C74613A20637572736F723E
:1009C0003D25642C20776865656C3D25640A536578
:1009D0006520687474703A2F2F656E2E77696B6985
:1009E00070656469612E6F72672F77696B692F4D2F
:1009F0006F7573655F6B6579730A000A092D204D69
:100A00006F7573656B6579202D0A4553432F713AD5
:100A100009717569740A313A0964656C6179282A2B
:100A200031306D73290A323A09696E7465727661E4
:100A30006C286D73290A333A096D61785F737065AC
:100A400065640A343A0974696D655F746F5F6D613E
:100A5000780A353A09776865656C5F6D61785F7310
:100A6000706565640A363A09776865656C5F746914
:100A70006D655F746F5F6D61780A0A703A09707214
:100A8000696E742076616C7565730A643A097365E2
:100A9000742064656661756C74730A75703A092B0D
:100AA000310A646F776E3A092D310A706775703AB2
:100AB000092B31300A7067646F776E3A092D313037
:100AC0000A0A7370656564203D2064656C7461205A
:100AD0002A206D61785F7370656564202A20287212
:100AE0006570656174202F2074696D655F746F5F38
:100AF0006D6178290A003F004D3E2000433E2000F2
:100B00004C25640A000A092D20436F6E736F6C65D3
:100B1000202D0A4553432F713A09717569740A6D86
:100B20003A096D6F7573656B65790A000A092D20A6
:100B30004D61676963202D0A643A096465627567CF
:100B40000A783A096465627567206D617472697824
:100B50000A6B3A096465627567206B6579626F613B
:100B600072640A6D3A096465627567206D6F75730A
:100B7000650A763A0976657273696F6E0A733A0987
:100B80007374617475730A633A09636F6E736F6C83
:100B900065206D6F64650A302D343A096C617965A2
:100BA00072302D34284631302D4634290A50617573
:100BB000733A09626F6F746C6F616465720A003F0B
:100BC0000074696D65725F72656164333228293A19
:100BD000202530346C580A006B6579626F6172644D
:100BE0005F69646C653A2025580A006B6579626F0D
:100BF0006172645F70726F746F636F6C3A20255816
:100C00000A00686F73745F6B6579626F6172645F0D
:100C10006C65647328293A2025580A000A092D209A
:100C2000537461747573202D0A004743433A20348E
:100C30002E382E31204156522D4C4942433A203114
:100C40002E382E3073766E204156525F4152434803
:100C50003A20617672350A004F5054494F4E533A4C
:100C6000204C554641204D4F5553454B4559204545
:100C7000585452414B455920434F4E534F4C4520F9
:100C8000434F4D4D414E4420343039360A004255D1
:100C9000494C443A2066396263636139362D646990
:100CA000727479202831373A34303A353720417020
:100CB000722020312032303137290A005649443A17
:100CC0002030784645454428742E6D2E6B2E292001
:100CD0005049443A203078343234322848484B4224
:100CE000206D6F6429205645523A203078303130DB
:100CF000340A00444553433A20742E6D2E6B2E2047
:100D00006B6579626F617264206669726D7761727A
:100D10006520666F722048484B42206D6F640A0060
:100D20000A092D2056657273696F6E202D0A000A1C
:100D30006D6F7573653A206F66660A000A6D6F7590
:100D400073653A206F6E0A000A6B6579626F617293
:100D5000643A206F66660A000A6B6579626F617299
:100D6000643A206F6E0A000A6D61747269783A20E5
:100D70006F66660A000A6D61747269783A206F6E58
:100D80000A000A64656275673A206F6E0A000A6499
:100D9000656275673A206F66660A000A0A626F6FBD
:100DA000746C6F616465722E2E2E2000433E20000D
:100DB00011241FBECFEFDAE0DEBFCDBF04B603FEC5
:100DC00024C08091600390916103A0916203B0916F
:100DD00063038730904BA740B04BB9F41092600387
:100DE00010926103109262031092630314BE84B7E1
:100DF000877F84BF88E10FB6F894809360001092DB
:100E000060000FBEE0E0F8E3099511E0A0E0B1E07A
:100E1000E4EBFDE502C005900D92AA39B107D9F7C0
:100E200023E0AAE9B1E001C01D92A036B207E1F7C4
:100E30000E94EA100C94D82E0C9400000FB68095F6
:100E40009AE0F8947BE27A95F1F708F0589A08F462
:100E5000589886959A95B1F70FBE08950FB680E819
:100E6000F894499BFECF4999FECF96E19A95F1F708
:100E70009CE29A95F1F7869549998068C8F70FBE6C
:100E800008950FB680E8F89496E19A95F1F79CE200
:100E90009A95F1F7869549998068C8F796E19A95F1
:100EA000F1F7499BFECF0FBE0895FF93EF93E091BA
:100EB0009A01F0919B01309709F00995EF91FF910C
:100EC0000895FC018591803011F0EFDFFBCF08958C
:100ED000FF27E0E230E247FF0CC0419597FF09C0D1
:100EE000EDE26095709580959095611D711D811D55
:100EF000911D27FF02C0219530E350E2AA27660F1B
:100F0000771F881F991FAA1FA41710F0A41B6395B1
:100F10005A95A9F7AA3008F0A95FA05DAF93F395A1
:100F2000611571058105910541F7ED3211F4EF93DB
:100F3000F395F21718F43F93F395FBCF8F91B5DF3C
:100F4000FA95E1F70895E991F9918591803021F0C2
:100F5000853219F0AADFF9CF089520E0E894559181
:100F60005532C1F3503311F4689455915A3348F413
:100F7000505390F3220F022E220F220F200D250F27
:100F8000F4CF0EF4219589919991533619F3533783
:100F900029F1533559F1BC0188279927E8945C362B
:100FA00021F48991999168945591543639F446EF1A
:100FB0007EF077FF0DC08FEF9FEF0AC055374AE0F4
:100FC00039F0583540E121F0523642E009F00895F9
:100FD000FF93EF937DDFEF91FF91B7CFFF93EF93F7
:100FE000FC0181918030B9F360DFFBCFFF93EF9379
:100FF00068DFF1CFDF93CF93CDB7DEB72596A3DFC0
:10100000CF91DF910895CF93DF93EC0161110DC073
:101010000E944124827280939C019A81992329F035
:10102000882331F088E791E005C082E791E002C0B3
:1010300083E791E0DF91CF91089514B88FEF85B9E0
:10104000549A5C9808958FEF84B980E485B9549AD6
:101050005C9A8FE19EE40197F1F700C000000895CB
:101060008FEF84B980E485B957985F9A87B18F7301
:1010700087B988B1806C88B92E9A2F980E941D0874
:10108000E5EAF1E0119281E0ED3AF807D9F7EDE9F0
:10109000F1E0119281E0E53AF807D9F785EA91E0AD
:1010A0009093B0018093AF018DE991E09093AE01F0
:1010B0008093AD0108950F931F93CF93DF93809199
:1010C000AD019091AE012091AF013091B00130930C
:1010D000AE012093AD019093B0018093AF015C9B72
:1010E0000E942308C0E0D0E001E010E080E090E042
:1010F00045B1407C4C2B9C0153E0220F331F5A9585
:10110000E1F7422B45B9EAE1EA95F1F700C0E09139
:10111000AD01F091AE01EC0FFD1F208130E0082EF3
:1011200002C0359527950A94E2F720FD2F9AF5E342
:10113000FA95F1F70000A6B52E982AE12A95F1F765
:1011400000C02091AF013091B0014F9B0EC0A801AB
:10115000082E01C0440F0A94EAF74095F901EC0FFC
:10116000FD1F5081542350830CC0F901EC0FFD1F6B
:101170006081A801082E01C0440F0A94EAF7642B8D
:10118000608346B56A2F70E04A1718F046B550E004
:1011900004C046B550E041505F4F461B570B4630E8
:1011A000510558F0E091AD01F091AE01EC0FFD1F3B
:1011B0004081F901EC0FFD1F4083EAE1EA95F1F768
:1011C00000C02F982E9AEBE2F1E03197F1F700C0C2
:1011D000000001968830910509F08ACFA091AF01F7
:1011E000B091B001AC0FBD1FE091AD01F091AE0127
:1011F000EC0FFD1F9C918081981751F00E948B2568
:101200006093B1017093B2018093B3019093B401E4
:101210002196C830D10509F069CF5C9B1BC0809135
:101220005703853021F080915703811113C06091DD
:10123000B1017091B2018091B3019091B4010E940B
:10124000C025613177428105910520F00E941D087B
:101250000E940E2581E0DF91CF911F910F9108959B
:10126000E091AF01F091B001E80FF11D8081089588
:101270000C9423080C941D08569A81FF02C05E9AB4
:1012800008955E98089588E08093CC001092CD0078
:10129000E9ECF0E0808180698083808188608083D0
:1012A000EAECF0E080818083EBECF0E080818083E9
:1012B000559A5D98789408959091B6012091B50162
:1012C0009217D1F030E0F901E954FE4F80812F5F91
:1012D0003F4F33272093B501492F50E0921718F460
:1012E000241B350B03C0241B350B339523303105EC
:1012F0000CF05D9890E008958FEF9FEF0895909126
:10130000C80095FFFCCF8093CE0008951F920F92E6
:101310000FB60F9211242F933F934F935F938F93A8
:101320009F93EF93FF932091B60130E0C90101969E
:1013300099274091B501481741F09091CE00F901ED
:10134000E954FE4F90838093B6015091B601842FEB
:1013500090E0252F30E0821B930B541708F09395F3
:1013600003970CF45D9AFF91EF919F918F915F919C
:101370004F913F912F910F900FBE0F901F90189596
:101380008091D102089508958091D1020895089521
:10139000089508950895CF93DF938D3C9105C1F191
:1013A000B8F4853B9105B1F148F4833B9105D9F13F
:1013B000843B9105D9F5D0E0C0E23CC0873B910564
:1013C00079F158F18C3C910589F5D0E0C8E032C044
:1013D0008A3E9105C9F040F4823E9105B9F0893EFC
:1013E000910521F5D0E125C0813222E0920751F02C
:1013F000833222E0920721F08A389140B9F418C074
:10140000D1E017C0D4E015C0D0E213C0D0E411C0C1
:10141000D0E80FC0D0E0C1E00DC0D0E0C2E00AC00B
:10142000D0E0C4E007C0D0E0C0E104C0D0E001C01B
:10143000D2E0C0E08DEF0E947F0983E00E947F0927
:1014400083E00E947F098D2F0E947F098C2FDF91FE
:10145000CF910C947F09CF93DF93EC018DEF0E9425
:101460007F0985E00E947F0982E00E947F098881D0
:101470000E947F0989810E947F098A810E947F09D9
:101480008B81DF91CF910C947F09CF93DF93EC0197
:101490008DEF0E947F0989E00E947F0981E00E9410
:1014A0007F0988810E947F0980E00E947F098A81EC
:1014B0000E947F098B810E947F098C810E947F0995
:1014C0008D810E947F098E810E947F098F81DF912B
:1014D000CF910C947F090C945C09FF920F931F939A
:1014E000CF93DF93EC010E947F258C01F12CC80182
:1014F0000E9497258C179D07A0F40E945C099C010F
:101500002F3F8FEF380751F02D3041F02A3049F04E
:10151000AF2DB0E0A754BD4F2C93F39486E18F1507
:1015200030F7EF2DF0E0E754FD4F108289EB92E0A9
:10153000DF91CF911F910F91FF9008950C947F0937
:1015400081B3881F8827881F0895879A8F9A0895E6
:1015500085B7806885BF85B7806885BF0E94A50A6A
:1015600086988E9A81988998559A5D980C9443092B
:10157000879A8F9808958FB18695817008958FB15D
:1015800086FB882780F908958093D1020895CF9330
:10159000DF93FC018491EF012196882321F00E94C2
:1015A0007F09FE01F7CFDF91CF910895CF93DF93AD
:1015B000C7ECD2E00E945C098F3F2FEF920759F0F1
:1015C0009F938F93DF93CF930E94FA070F900F9012
:1015D0000F900F90EFCFDF91CF9108950E94C70A2F
:1015E0002FEF89E698E1215080409040E1F700C05C
:1015F000000084E690E00E946D0A8093B702909309
:10160000B8029F938F938AEC92E09F938F930E94EE
:10161000FA070E94D60A0F900F900F900F908091BA
:10162000B7029091B80208950E949C1890931501FA
:10163000809314010E94A41E80E091E00E949718FC
:101640000E94B80A0E94BF0A8111FCCF82E593E094
:101650000E9461072FEF85EB95E321508040904079
:10166000E1F700C000008EE493E00E94EE0AEFEF85
:10167000FBE42DE1E150F0402040E1F700C0000024
:101680000E94D60A8AE493E00E94EE0AFC0180815F
:10169000863721F086E493E00C94EE0A08958DE2FB
:1016A00093E00E94610787E293E00E94EE0A0E94A5
:1016B000A50A0E94A41E80911401909115010C941A
:1016C00097180C9427108F929F92AF92BF92CF924F
:1016D000DF92EF92FF920F931F93CF93DF9392E0ED
:1016E000B92EC8E7D5E00EE715E0AA24A39423E0BD
:1016F000922E36E6C32E35E0D32E0E946B0A7C0173
:101700008F3F2FEF920709F446C08091D4028130B9
:1017100009F128F0823029F1833049F139C08EEF88
:10172000E816F10419F4A092D402E7CF90E8E91684
:10173000F10428F4FF92EF921F930F9304C0FF92DD
:10174000EF92DF93CF930E94FA070F900F900F90C4
:101750000F90D3CF92E0E916F104D1F4B092D40205
:10176000CCCFEA94EF28A1F49092D402C6CF809116
:10177000420380FF0AC0FF92EF92DF92CF920E9455
:10178000FA070F900F900F900F908E2D0E94C40AB1
:101790001092D402B2CF8091D602811121C08091E3
:1017A000D50281111DC00E94BB0A81110AC00E948E
:1017B0009C188A50914029F00E94A41E8AE091E072
:1017C0000DC00E94BB0A882359F00E949C188651C4
:1017D000914031F00E94A41E86E191E00E9497188A
:1017E0008091D2029091D3020E949725893E23E0F6
:1017F000920708F461C028EE33E0B9010E94882EF8
:10180000629FA001639F500D729F500D1124809123
:10181000D2029091D302840F951F9093D3028093AC
:10182000D2020E94C410833011F481E001C080E034
:101830000E9416100E948B2528EE33E040E050E015
:101840000E94B02E49015A018CE3C82ED12CE12C04
:10185000F12CCA01B901A70196010E94B02E672B95
:10186000682B692B49F50E948D102091420320FFBF
:1018700023C09F938F931F921F92C501B40120E153
:101880003EE040E050E00E94B02EC22FA70196013A
:101890000E94B02E3F932F931F92CF9381E595E046
:1018A0009F938F930E94FA078DB79EB70A960FB643
:1018B000F8949EBF0FBE8DBF0E94BB0A811107C066
:1018C0000E94BF0A882319F06E9A769802C06E9A19
:1018D000769ADF91CF911F910F91FF90EF90DF905B
:1018E000CF90BF90AF909F908F9008958F929F92CE
:1018F000AF92BF92CF92DF92EF92FF921F93CF935E
:10190000DF9300D000D0CDB7DEB7833109F48CC0AF
:1019100008F05BC08B3009F466C08C3009F48FC0CE
:10192000853009F0FCC10E948B2528EE33E040E0B1
:1019300050E00E94B02E49015A010E948D109F93E1
:101940008F9380EA93E09F938F930E94FA07C501DB
:10195000B40120E13EE040E050E00E94B02E5F93F1
:101960004F933F932F932AE933E03F932F9369835B
:101970007A838C839B830E94FA074CE3C42ED12C7C
:10198000E12CF12C69817A818C819B81A7019601E0
:101990000E94B02E5F934F933F932F9384E993E07F
:1019A0009F938F930E94FA07C501B401A701960186
:1019B0000E94B02E9F938F937F936F938EE893E056
:1019C0009F938F930E94FA0740C1883361F020F4FF
:1019D000883109F440C1A3C1873409F46EC18C3445
:1019E00009F456C19CC18DE295E00E94610788E12F
:1019F00095E00E9461078EEF94E00E94610787EDF9
:101A000094E00E9461078CEB94E00E9461078AEAEF
:101A100094E00E9461078091D60281117EC18AE81C
:101A200094E00E9461077EC10E94140B82E793E05C
:101A30000E94EE0A8CE693E00E94EE0A6CC181E7F8
:101A400094E00E9461070E949C188A50914019F40A
:101A500089E291E002C08FE291E09F938F9383E649
:101A600094E09F938F930E94FA078091D5021F9272
:101A70008F9384E594E09F938F930E94FA070E94CE
:101A8000BB0A0FB6F894DEBF0FBECDBF811107C0F1
:101A90000E94BF0A882331F08BE391E005C084E304
:101AA00091E002C088E391E09F938F938AE494E0F1
:101AB0009F938F930E94FA070E94A00A1F928F9310
:101AC0008FE294E09F938F930E94FA078091D60251
:101AD0001F928F938EE194E09F938F930E94FA0759
:101AE000809157030FB6F894DEBF0FBECDBF882399
:101AF000B9F0809157038130B1F080915703823063
:101B0000A9F0809157038330A1F08091570384306E
:101B100099F080915703853091F482E791E011C0EC
:101B200088E491E00EC080E491E00BC083E591E091
:101B300008C08BE591E005C085E691E002C080E732
:101B400091E09F938F938FE094E09F938F930E94F7
:101B5000FA0785E094E09F938F930E94FA070E9412
:101B6000C4100F900F900F900F900F900F90813036
:101B700059F038F0823059F0833061F48FEE93E001
:101B80000BC080E094E008C08AEF93E005C083EFCB
:101B900093E002C08DEE93E09F938F930E94FA072B
:101BA0000F900F908BEE93E09F938F930E94FA0714
:101BB000809155031F928F9382ED93E09F938F93B3
:101BC0000E94FA078091D90081701F928F9388EC50
:101BD00093E09F938F930E94FA070E948B2528EE33
:101BE00033E040E050E00E94B02E69017A015CE3EE
:101BF000852E912CA12CB12CC701B601A501940111
:101C00000E94B02E7F936F93C701B60120E13EE0A2
:101C100040E050E00E94B02E122FA50194010E94D6
:101C2000B02E3F932F931F921F93C701B60120E858
:101C300031E541E050E00E94B02E3F932F938BEAB4
:101C400093E09F938F930E94FA070FB6F894DEBF3C
:101C50000FBECDBF62C08091D602811163C080915A
:101C6000D502882339F083E893E00E94610710923F
:101C7000D50253C089E793E00E94610781E0809319
:101C8000D5020E94A41E86E191E00E94971845C0EB
:101C90000E94A00A882351F08C830E94140B91E0CB
:101CA000909352039093D6028C813DC00E944F0BBB
:101CB000109252031092D60230C08091D602811148
:101CC00002C00E94140B80E293E00E94EE0A85E1BC
:101CD00093E00E94EE0A81E093E00E94EE0A8AEF10
:101CE00092E00E94EE0A80EF92E00E94EE0A89EEF6
:101CF00092E00E94EE0A8FED92E00E94EE0A85EDDE
:101D000092E00E94EE0A8FEC92E00E94EE0A80912F
:101D1000D602811102C00E944F0B81E004C0809165
:101D2000D60201C080E00F900F900F900F90DF91CE
:101D3000CF911F91FF90EF90DF90CF90BF90AF9029
:101D40009F908F900895CF93C82F0E944124827254
:101D500021E009F420E08C2F90E0FC013497E93475
:101D6000F10508F0FDC0EA5AFF4F0C94D22E8AE02C
:101D700058C1222309F4F8C081E453C1222309F495
:101D8000F5C082E44EC1222309F4F2C083E449C1C4
:101D9000222309F4EFC084E444C1222309F4ECC0F7
:101DA00085E43FC1222309F4E9C086E43AC1222335
:101DB00009F4E6C087E435C1222309F4E3C088E4CE
:101DC00030C1222309F4E0C089E42BC1222309F4A5
:101DD000DDC08AE426C1222309F4DAC08BE421C1E4
:101DE000222309F4D7C08CE41CC1222309F4D4C0F7
:101DF0008DE417C1222309F4D1C08EE412C122233D
:101E000009F4CEC08FE40DC1222309F4CBC080E5D4
:101E100008C1222309F4C8C081E503C1222309F4C3
:101E2000C5C082E5FEC0222309F4C2C083E5F9C023
:101E3000222309F4BFC084E5F4C0222309F4BCC006
:101E400085E5EFC0222309F4B9C086E5EAC0222364
:101E500009F4B6C087E5E5C0222309F4B3C088E5DC
:101E6000E0C0222309F4B0C089E5DBC0222309F4D5
:101E7000ADC08AE5D6C0222309F4AAC081E2D1C050
:101E8000222309F4A7C080E4CCC0222309F4A4C013
:101E900083E2C7C0222309F4A1C084E2C2C0222386
:101EA00009F49EC085E2BDC0222309F49BC08EE5E3
:101EB000B8C0222309F498C086E2B3C0222309F4F3
:101EC00095C08AE2AEC0222309F492C088E2A9C07C
:101ED000222309F48FC089E2A4C088E0A2C089E06F
:101EE000A0C080E29EC0222309F486C08FE599C07D
:101EF000222309F483C08BE294C0222309F480C01A
:101F00008BE78FC0222309F47DC08DE78AC022238E
:101F100009F47AC08CE785C02111FCCF8CE581C023
:101F2000222309F473C08AE37CC0222309F470C021
:101F300082E277C0222309F46DC08EE772C02223AB
:101F400009F46AC08CE36DC0222309F467C08EE3F4
:101F500068C0222309F464C08FE363C080E061C0DD
:101F600080E25FC08BE15DC081E65BC082E659C064
:101F700083E657C084E655C085E653C086E651C067
:101F800087E64FC088E64DC089E64BC08AE649C067
:101F90008BE647C08CE645C08DE643C08EE641C067
:101FA0008FE63FC080E73DC081E73BC082E739C094
:101FB00083E737C084E735C085E733C086E731C0A3
:101FC00087E72FC088E72DC089E72BC08AE729C0A3
:101FD00081E327C082E325C083E323C084E321C0DB
:101FE00085E31FC086E31DC087E31BC088E319C0DB
:101FF00089E317C080E315C08DE213C08DE311C0E3
:102000008BE50FC08DE50DC08CE50BC08BE309C0DF
:1020100087E207C080E605C08CE203C08EE201C003
:102020008FE20E949E0A81E0CF910895833019F4D7
:10203000859A7D9A0895813011F4859A06C0823080
:1020400019F4859A8D9A089585988D98089581E060
:102050000E9416102FEF81EE94E0215080409040B6
:10206000E1F700C0000082E00E9416102FEF81EE21
:1020700094E0215080409040E1F700C0000081E0F2
:102080000E9416102FEF81EE94E021508040904086
:10209000E1F700C0000082E00E9416102FEF81EEF1
:1020A00094E0215080409040E1F700C0000080E0C3
:1020B0000E94161080EC80937C0087E080937A0069
:1020C00081E980937E0081E080937F008BE38093A1
:1020D0007D00849A8C9808958091D90080FF1BC060
:1020E00020B391B385988D9AEFE9FFE03197F1F72E
:1020F00000C000008FB185FB882780F930B32072C3
:102100003F7D232B20BB21B390722F7D922B91BB5F
:1021100091E08927089580E00895CF93DF9300D060
:10212000CDB7DEB7849A8C9A80917A0080688093CC
:102130007A008FE99FE00197F1F700C000008091DD
:102140007A00806480937A0080917A0086FDFCCFCB
:1021500080917800909179009A83898380917A00A8
:102160008F7780937A00849A8C9829813A8145E010
:10217000429FC001439F900D1124805591090F90FB
:102180000F90DF91CF9108958091D90080FD0C943C
:102190006C100E948D108C3A2DE0920720F481E0A3
:1021A0008093D70205C085379E4010F01092D70269
:1021B0008091D702882311F083E0089582E008958A
:1021C000CF93C82F0E941E078C2F0E946A1180E0B7
:1021D000CF91089584B7877F84BF88E10FB6F894C4
:1021E00080936000109260000FBE90E080E80FB610
:1021F000F89480936100909361000FBE0E94C01517
:102200000E941D168091E20084608093E20080EEBF
:1022100090E10E94E324509A589A5198599A7894E0
:102220008FEF909157038150943041F0EFE7FEE338
:102230003197F1F700C000008111F3CF81EA95E0FA
:102240000E9461070E94A80A0E94610B85E995E03F
:102250000E9461070E9459190E94BB0A811103C0A4
:102260008AE091E002C086E191E00E94971885E83B
:1022700095E00E9461070E94BB0A882319F18091B2
:1022800057038530F9F481E895E00E9461070E94C8
:102290003A090E940E250E940E250E940E250E94DA
:1022A0000E250E940E250E940E250E940E2580916B
:1022B0005503882301F30E9434258823E1F20E940C
:1022C0001814D9CF0E945D190E94630BD4CF80915E
:1022D000E40208959FB7F8941092DB029FBF90919B
:1022E0005703943009F058C09091E9009F702091F5
:1022F000EC0020FF02C020E801C020E0292B94E080
:102300009093E9009091EB0090FF43C09091EE0014
:1023100097FF3FC09091D802992321F09091E80057
:1023200095FF37C01092D80296E03091E80035FD55
:1023300015C030915703343061F53091EB0035FD15
:1023400028C0915021F481E08093D80222C0EFE9A7
:10235000FFE03197F1F700C00000E7CF8093F10074
:102360008091E80085FD0AC08091E80080FFFCCFE5
:102370008091E8008E778093E80006C08FB7F894CC
:1023800091E09093DB028FBF2F702093E90080E0F3
:1023900008952F702093E9008FEF0895CF93DF9376
:1023A00000D01F92CDB7DEB720915703243019F526
:1023B00023E029839B838A832093E9008FEF909108
:1023C000E800815095FD06C095ED9A95F1F7000063
:1023D0008111F5CF8091E80085FF0DC040E050E00D
:1023E00063E070E0CE0101960E942E148091E80017
:1023F0008E778093E8000F900F900F90DF91CF9130
:102400000895CF93DF9300D01F92CDB7DEB7209110
:102410005703243021F522E029839B838A8383E0BC
:102420008093E9008FEF9091E800815095FD06C000
:1024300095ED9A95F1F700008111F5CF8091E800B4
:1024400085FF0DC040E050E063E070E0CE010196F2
:102450000E942E148091E8008E778093E8000F9000
:102460000F900F90DF91CF91089520915703243062
:10247000F1F422E02093E9002FEF3091E8002150A1
:1024800035FD06C035ED3A95F1F700002111F5CF85
:102490002091E80025FF0BC040E050E065E070E0CF
:1024A0000E942E148091E8008E778093E8000895B2
:1024B000CF93DF93EC0180915703843039F581E0AD
:1024C0008093E9008FEF9091E800815095FD06C060
:1024D00095ED9A95F1F700008111F5CF8091E80014
:1024E00085FF14C040E050E068E070E0CE010E943B
:1024F0002E148091E8008E778093E80088E0FE013A
:10250000ACEDB2E001900D928A95E1F7DF91CF91A9
:10251000089580EB95E00E94610780915603811138
:1025200009C00E94C0150E941D168091E2008460BF
:102530008093E20008958CEA95E00E946107109272
:102540005603089508958091D9028F5F8093D90230
:1025500062E30E947C2E911135C01092D9028091C5
:10256000DB02882379F180915703843049F580910B
:10257000E9008F709091EC0090FF02C090E801C0DC
:1025800090E0982B84E08093E9008091EB0080FF3D
:1025900014C08091EE0087FF10C08091E80085FF95
:1025A00003C01092F100F9CF8091E80080FF05C0D0
:1025B0008091E8008E778093E8009F709093E90007
:1025C0001092DB02089542E061EC81E00E943A152E
:1025D00042E061EC82E00E943A1542E061EC83E067
:1025E0000E943A1542E261EC84E00C943A15809125
:1025F0005903833009F453C030F4813071F08230D4
:1026000009F48CC008958A3009F478C08B3009F43D
:102610005EC0893009F09AC020C080915803813A89
:1026200009F094C08091E800877F8093E800809152
:102630005C0390915D03892B21F060E080E090E0E5
:1026400003C068E08CED92E070E00E947714809106
:10265000E8008B778093E8000895809158038132D9
:1026600009F074C080915C0390915D03892B09F09F
:102670006DC08091E800877F8093E8008091E8003A
:1026800082FD05C0809157038111F8CF5FC0809112
:10269000F1008093E4028091E8008B7753C0809131
:1026A0005803813A09F052C080915C0390915D0318
:1026B000892B09F04BC08091E800877F8093E80068
:1026C0008091E80080FFFCCF8091200136C080918E
:1026D00058038132D9F580915C0390915D03892B79
:1026E000A9F58091E800877F8093E8000E946F152C
:1026F00080915A03809320010C94A41E809158036A
:10270000813221F58091E800877F8093E8000E9464
:102710006F1580915B038093E502089580915803C3
:10272000813AA1F48091E800877F8093E80080914E
:10273000E80080FFFCCF8091E5028093F10080915A
:10274000E8008E778093E8000C946F1508958091CF
:10275000E4028093DA021092E40280E00E943C09D5
:102760000E941C1A0C94A41E0C94A7130E944925C5
:102770008091DA028093E40208950C94B613292F15
:10278000332723303105A9F06CF42130310509F4E9
:1027900042C02230310509F043C084E790E02CEDBF
:1027A00035E042C021323105C9F02232310519F13C
:1027B00037C099278130910541F08230910541F071
:1027C000892B71F5E8EDF5E005C0E8ECF5E002C015
:1027D000E4EBF5E0849190E09F0126C0643000F5C1
:1027E000E62FF0E0EE0FFF1FE857FE4F208131810A
:1027F00089E090E019C0643098F4E62FF0E0DF0142
:10280000AA0FBB1FA058BE4F2D913C91E458FE4F1C
:10281000808190E009C082E190E020E536E004C0CC
:1028200080E090E020E030E0FA01318320830895D9
:1028300080E189BD82E189BD09B400FEFDCF8091B0
:10284000D8008F7D8093D8008091E00082608093D3
:10285000E0008091E00081FDFCCF0895CF92DF92EF
:10286000EF92FF920F931F93CF93DF937C018B0125
:10287000EA010E949015811131C0209731F08881C2
:102880009981081B190BE80EF91EC12CD12C0115DA
:10289000110519F18091E80085FD14C08091E800D0
:1028A0008E778093E800209741F0888199818C0D84
:1028B0009D1D9983888385E011C00E94901588230F
:1028C00031F30CC0F70181917F018093F100015039
:1028D0001109FFEFCF1ADF0ADACF80E0DF91CF9145
:1028E0001F910F91FF90EF90DF90CF90089520916E
:1028F0005E0330915F032617370748F061157105B5
:1029000039F42091E8002E772093E80001C0B90146
:10291000FC0120E061157105B9F18091570388230E
:1029200009F440C0853009F43FC08091E80083FD80
:102930003DC08091E80082FF06C08091E80082FFE0
:1029400026C080E008958091E80080FFE3CF2091C9
:10295000F3008091F20090E0922B6115710551F027
:102960008830910538F421912093F100615071096C
:102970000196F3CF21E0089709F020E08091E8006C
:102980008E778093E800C6CF2111C7CFD6CF809134
:102990005703882339F0853039F08091E80083FFB0
:1029A000CCCF04C082E0089583E0089581E00895CB
:1029B00020915E0330915F032617370748F06115B9
:1029C000710539F42091E8002E772093E80001C0CA
:1029D000B901FC0120E061157105C1F18091570337
:1029E000882309F441C0853009F440C08091E80093
:1029F00083FD3EC08091E80082FF06C08091E80020
:102A000082FF27C080E008958091E80080FFE3CF37
:102A10002091F3008091F20090E0922B61157105F6
:102A200059F08830910540F424912093F1003196BB
:102A3000615071090196F2CF21E0089709F020E07A
:102A40008091E8008E778093E800C5CF2111C6CF32
:102A5000D5CF80915703882339F0853039F08091A4
:102A6000E80083FFCBCF04C082E0089583E008959F
:102A700081E00895982F973058F59093E9009817C2
:102A800039F07091EC002091ED005091F00003C0FE
:102A9000242F762F50E021FF19C03091EB003E7FAC
:102AA0003093EB003091ED003D7F3093ED0030919D
:102AB000EB0031603093EB007093EC002093ED005D
:102AC0005093F0002091EE0027FF07C09F5FD3CF07
:102AD0008F708093E90081E0089580E008958091EF
:102AE000580387FD05C08091E80080FF0EC012C02A
:102AF0008091E80082FD05C0809157038111F8CFD5
:102B000008958091E8008B7708C080915703811168
:102B1000EACF08958091E8008E778093E8000895C9
:102B20008091E4009091E50045E62091EC0020FFC3
:102B300021C02091E80020FD21C0209157032223CD
:102B400089F0253089F02091EB0025FD0FC0209100
:102B5000E4003091E5002817390739F3415041F07E
:102B6000C901E3CF82E0089583E0089581E00895EC
:102B700084E008952091E80022FFDFCF80E00895EF
:102B80000E942E160E943616E0EEF0E080818160F1
:102B90008083E8EDF0E080818F77808319BCA7ED1A
:102BA000B0E08C918E7F8C9380818F7E8083109299
:102BB000560308950F931F93CF93DF930E942E1611
:102BC0000E943616C8EDD0E088818F77888388818F
:102BD0008068888388818F7D888319BC1092570311
:102BE00010925303109255031092540300EE10E01C
:102BF000F80180818B7F808388818160888342E0B7
:102C000060E080E00E943A15E1EEF0E080818E7F86
:102C10008083E2EEF0E08081816080838081886043
:102C20008083F80180818E7F8083888180618883A2
:102C3000DF91CF911F910F910895E8EDF0E0808131
:102C40008F7E8083E7EDF0E080818160808384E087
:102C500082BF81E0809356030C94DA15E8EDF0E032
:102C600080818E7F80831092E20008951092DA00B6
:102C70001092E10008951F920F920FB60F92112447
:102C80002F933F934F935F936F937F938F939F9374
:102C9000AF93BF93EF93FF938091E10082FF0BC04E
:102CA0008091E20082FF07C08091E1008B7F8093DA
:102CB000E1000E94A3128091DA0080FF1FC0809182
:102CC000D80080FF1BC08091DA008E7F8093DA00ED
:102CD0008091D90080FF0DC080E189BD82E189BD6E
:102CE00009B400FEFDCF81E0809357030E94891252
:102CF00005C019BC109257030E949B128091E100FD
:102D000080FF19C08091E20080FF15C08091E20031
:102D10008E7F8093E2008091E20080618093E200E8
:102D20008091D80080628093D80019BC85E08093A0
:102D300057030E94B4138091E10084FF30C080915A
:102D4000E20084FF2CC080E189BD82E189BD09B425
:102D500000FEFDCF8091D8008F7D8093D8008091B8
:102D6000E1008F7E8093E1008091E2008F7E80936E
:102D7000E2008091E20081608093E2008091530341
:102D8000882311F084E007C08091E30087FF02C030
:102D900083E001C081E0809357030E94BD138091BE
:102DA000E10083FF29C08091E20083FF25C080916C
:102DB000E100877F8093E10082E0809357031092C7
:102DC00053038091E1008E7F8093E1008091E200C7
:102DD0008E7F8093E2008091E20080618093E20028
:102DE00042E060E080E00E943A158091F000886047
:102DF0008093F0000E94A212FF91EF91BF91AF91DA
:102E00009F918F917F916F915F914F913F912F9102
:102E10000F900FBE0F901F9018951F920F920FB634
:102E20000F9211242F933F934F935F936F937F9350
:102E30008F939F93AF93BF93CF93EF93FF93C091E3
:102E4000E900CF708091EC001092E9008091F000D1
:102E5000877F8093F00078940E9449171092E900D0
:102E60008091F00088608093F000C093E900FF91AA
:102E7000EF91CF91BF91AF919F918F917F916F9182
:102E80005F914F913F912F910F900FBE0F901F9028
:102E900018951F93CF93DF93CDB7DEB7AA970FB6E0
:102EA000F894DEBF0FBECDBFE8E5F3E08091F100FE
:102EB000819323E0E036F207C9F70E94F712809170
:102EC000E80083FF1CC12091580330915903832FE0
:102ED00090E08A30910508F012C1FC01E156FF4FE5
:102EE0000C94D22E203881F0223809F008C180914C
:102EF0005C038F708093E9008091EB0085FB88274D
:102F000080F91092E90006C0809154039091550316
:102F1000911182609091E800977F9093E8008093F0
:102F2000F1001092F100C5C0822F8D7F09F0E7C03B
:102F3000222319F0223061F0E2C080915A038130DF
:102F400009F0DDC0333009F080E08093550328C0DC
:102F500080915A03811124C020915C032F7009F4E1
:102F6000CEC02093E9008091EB0080FF19C08091D2
:102F7000EB00333011F4806211C080618093EB006C
:102F800081E090E0022E01C0880F0A94EAF7809356
:102F9000EA001092EA008091EB0088608093EB00D9
:102FA0001092E9008091E800877F86C02111A7C0B8
:102FB00010915A031F778091E3008078812B8093D2
:102FC000E3008091E800877F8093E8000E946F15FE
:102FD0008091E80080FFFCCF8091E30080688093BF
:102FE000E300112311F083E001C082E080935703D6
:102FF00086C02058223008F082C080915A039091F8
:103000005B038C3D23E0920779F583E08A838AE2B3
:1030100089834FB7F894DE01139620E03EE051E239
:10302000E32FF0E050935700E49120FF03C0E295B6
:10303000EF703F5FEF708E2F90E0EA3010F0C79690
:1030400001C0C0968D939D932F5F243149F74FBFE8
:103050008091E800877F8093E8006AE270E0CE010B
:1030600001960E94771414C0AE014F5F5F4F6091CC
:103070005C030E94BF13009709F441C02091E8004F
:10308000277F2093E800BC0189819A810E94D8148F
:103090008091E8008B778093E80031C0203879F583
:1030A0008091E800877F8093E800809153038093AC
:1030B000F1008091E8008E778093E8000E946F1500
:1030C0001EC021111CC090915A039230C0F480910F
:1030D000E800877F8093E800909353030E946F1568
:1030E00080915303811104C08091E30087FF02C0E7
:1030F00084E001C081E0809357030E94E312809135
:10310000E80083FF0AC08091E800877F8093E80091
:103110008091EB0080628093EB00AA960FB6F89442
:10312000DEBF0FBECDBFDF91CF911F910895909369
:10313000EB028093EA0208958091EA029091EB02FB
:103140000895E091EA02F091EB02309721F00190AE
:10315000F081E02D099480E00895FF920F931F9372
:10316000CF93DF938C01E091EA02F091EB0230976C
:1031700099F10280F381E02D09958091420382FF4D
:103180002BC080FF04C08DE697E00E946107E80134
:1031900088E0F82E07E617E08091420380FF0BC01D
:1031A00088811F928F931F930F930E94FA070F90AD
:1031B0000F900F900F90FA942196F110EDCF80911F
:1031C000420380FF09C085E697E0DF91CF911F9110
:1031D0000F91FF900C946107DF91CF911F910F9198
:1031E000FF900895E091EA02F091EB02309721F010
:1031F0000480F581E02D09940895CF93DF93EC01CD
:103200008091E8029091E902C817D90709F1D0939B
:10321000E902C093E802E091EA02F091EB023097F4
:10322000B9F00680F781E02DCE0109958091420327
:1032300082FF0EC080FF0CC0DF93CF9387E597E03D
:103240009F938F930E94FA070F900F900F900F900B
:10325000DF91CF910895CF93DF93EC018091E60247
:103260009091E702C817D90709F1D093E702C093FC
:10327000E602E091EA02F091EB023097B9F00084A7
:10328000F185E02DCE0109958091420382FF0EC0A9
:1032900080FF0CC0DF93CF9387E497E09F938F93D9
:1032A0000E94FA070F900F900F900F90DF91CF912F
:1032B00008950E9476250C943008CF92DF92EF9209
:1032C000FF920F931F93CF93DF9300D000D000D0D5
:1032D000CDB7DEB70E945B083DEEE32E32E0F32E61
:1032E00000E010E0C02E802F0E943009F701D1903D
:1032F0007F01D826B1F40F5F1F4F0830110591F7F9
:103300008FEF89838A831B820E947F258160782FBB
:103310009D838C8349815A816B818D810E94511AD2
:1033200048C09091420391FF04C08E830E941D1AF1
:103330008E8120E030E04D2D50E0922FBA01022E18
:1033400002C0759567950A94E2F760FF2CC0298347
:10335000CA82EE24E394F12C02C0EE0CFF1C9A9575
:10336000E2F790E08E219F2121E0892B09F420E0F3
:103370002B830E947F258160782F9D838C834981D8
:103380005A816B818D810E94511A49815A816B81CA
:103390007C818D810E94FB24F801E351FD4F8081E7
:1033A0008E25808306C02F5F3F4F2830310529F6D8
:1033B000A2CF0E94FA240E94EB281091EC020E94F6
:1033C000A118181741F10E94A1188093EC02909166
:1033D000420392FF0EC090FF0CC01F928F9388E7AC
:1033E00097E09F938F930E94FA070F900F900F9092
:1033F0000F908091EC0226960FB6F894DEBF0FBEB8
:10340000CDBFDF91CF911F910F91FF90EF90DF9093
:10341000CF900C940C2526960FB6F894DEBF0FBE05
:10342000CDBFDF91CF911F910F91FF90EF90DF9073
:10343000CF9008950C943C090895EF92FF920F935A
:103440001F93CF93DF9381E997E00E946107C0E06B
:10345000D0E08EE2E82E81E0F82E03E817E08C2F12
:103460000E9430090E94E824FF92EF921F928F93EE
:10347000DF93CF931F930F930E94FA0721968DB786
:103480009EB708960FB6F8949EBF0FBE8DBFC8308A
:10349000D10529F7DF91CF911F910F91FF90EF9008
:1034A0000895CF93DF93CDB7DEB72B970FB6F8947F
:1034B000DEBF0FBECDBF4F83588769877A878B8762
:1034C0008A859B85892B31F05F3F11F080E003C036
:1034D0004F3FE1F781E0811107C04F815885698531
:1034E0007A858B850E94FB24DE01119686E0FD0122
:1034F00011928A95E9F785E0FE01379601900D92C9
:103500008A95E1F749815A816B817C818D819E8109
:103510000E9482212B960FB6F894DEBF0FBECDBF5E
:10352000DF91CF910895CF93C82F882309F4A3C0CA
:103530008CEF8C0F813A48F48C2F0E94082C81115B
:103540009AC08C2F0E94FF230CC080E28C0F883021
:1035500058F4C77081E001C0880FCA95EAF70E944D
:103560004424CF910C948A248BE58C0F833078F41B
:10357000C53A29F0C63A31F482E890E005C081E806
:1035800090E002C083E890E0CF910C94FD1888E5AC
:103590008C0F853108F06FC0C83A61F1C93A69F102
:1035A000CA3A71F1CB3A79F1CC3A81F1CD3A89F14D
:1035B000CE3A91F1CF3A99F1C13BA1F1C03BA9F1CB
:1035C000C23BB1F1C33BB9F1C43BC1F1C53BC9F149
:1035D000C63BD1F1C73BD9F1C83BE1F1C93BE9F1A9
:1035E000CA3BF1F1CB3BF9F1CC3B09F03FC08AE299
:1035F00092E03EC082EE90E03BC089EE90E038C0A1
:103600008AEE90E035C085EB90E032C086EB90E02A
:103610002FC083EB90E02CC084EB90E029C087EBB7
:1036200090E026C08CEC90E023C08DEC90E020C0B0
:1036300083E891E01DC08AE891E01AC082E991E038
:1036400017C084E991E014C081E292E011C083E2E6
:1036500092E00EC084E292E00BC085E292E008C0E6
:1036600086E292E005C087E292E002C080E090E04E
:10367000CF910C942B19CF910895882329F19CEFB9
:10368000980F913A18F40E9420240DC090E2980FF0
:10369000983058F4877091E001C0990F8A95EAF745
:1036A000892F0E944A240C948A249BE5980F93301A
:1036B00020F480E090E00C94FD18885A853120F4C5
:1036C00080E090E00C942B190895882321F00E944B
:1036D00044240C948A240895882321F00E944A24CB
:1036E0000C948A240895CF92DF92EF92FF920F9369
:1036F0001F93CF93DF93CDB7DEB728970FB6F8941B
:10370000DEBF0FBECDBF8C0185E0F801DE01119652
:1037100001900D928A95E1F7F80140813181F280A4
:10372000258122952F7083819481892B31F03F3F31
:1037300031F481E04F3F19F403C081E001C080E023
:1037400080FDE1C249833A8389819A812F830E9457
:10375000BD239E8388870E94BC230E94E4224E8161
:10376000E42FE295EF70F0E0E755FF4F2F81688579
:103770000C94D22E842F807F142F1F70882311F079
:103780001295107FFF2059F0112309F471C2812F87
:1037900068870E9457240E948A24688569C2862F00
:1037A0000E943D1B112309F4AEC2812F0E945D24AB
:1037B00028960FB6F894DEBF0FBECDBFDF91CF9134
:1037C0001F910F91FF90EF90DF90CF900C948A247F
:1037D000842F807F942F9F70E92E803219F0E2941D
:1037E00080EFE822662319F0613001F129C0FF2043
:1037F000A9F08E2D222349F1213039F528960FB6F4
:10380000F894DEBF0FBECDBFDF91CF911F910F9116
:10381000FF90EF90DF90CF900C946724222319F053
:10382000213009F470C20E9470242CC0FF20E9F0FE
:10383000233008F068C20E9441248E2129F022C062
:10384000FF20F1F0211115C08E2D28960FB6F894A7
:10385000DEBF0FBECDBFDF91CF911F910F91FF90C3
:10386000EF90DF90CF900C94651B223008F04BC294
:1038700009C0F801858180FFFBC18F708583E4CF8B
:1038800021110AC28E2D78C1242F269526952370EA
:1038900030E02115310521F021303105C9F033C266
:1038A000FF2021F0862F942F937002C080E090E0DB
:1038B00028960FB6F894DEBF0FBECDBFDF91CF9133
:1038C0001F910F91FF90EF90DF90CF900C94FD1817
:1038D000FF2021F0862F942F937002C080E090E0AB
:1038E00028960FB6F894DEBF0FBECDBFDF91CF9103
:1038F0001F910F91FF90EF90DF90CF900C942B19B8
:10390000862FFF2019F00E94712702C00E94D9273C
:1039100028960FB6F894DEBF0FBECDBFDF91CF91D2
:103920001F910F91FF90EF90DF90CF900C945E2845
:10393000842F837009F076C0F110E5C1262F2295FF
:1039400026952770220F220F862F8F70C82ED12C1C
:10395000E12CF12C022E04C0CC0CDD1CEE1CFF1C53
:103960000A94D2F764FF10C06FE070E080E090E04E
:1039700004C0660F771F881F991F2A95D2F760959C
:1039800070958095909503C060E070E0CB01242F86
:10399000269526952370422F50E042305105D1F0F4
:1039A0004330510559F16C297D298E299F294130D9
:1039B000510541F128960FB6F894DEBF0FBECDBF7A
:1039C000DF91CF911F910F91FF90EF90DF90CF90FB
:1039D0000C94F9226C297D298E299F2928960FB6EF
:1039E000F894DEBF0FBECDBFDF91CF911F910F9135
:1039F000FF90EF90DF90CF900C940B230E94F92260
:103A0000C701B60128960FB6F894DEBF0FBECDBF32
:103A1000DF91CF911F910F91FF90EF90DF90CF90AA
:103A20000C94E722FF2019F0842F817001C0869545
:103A3000882309F468C1262F229526952770220F26
:103A4000220F862F8F70C82ED12CE12CF12C022E44
:103A500004C0CC0CDD1CEE1CFF1C0A94D2F764FFE2
:103A600010C06FE070E080E090E004C0660F771F48
:103A7000881F991F2A95D2F760957095809590952B
:103A800003C060E070E0CB01242F269526952370BB
:103A9000422F50E042305105D1F04330510559F1E9
:103AA0006C297D298E299F294130510541F12896A5
:103AB0000FB6F894DEBF0FBECDBFDF91CF911F913F
:103AC0000F91FF90EF90DF90CF900C9498236C298A
:103AD0007D298E299F2928960FB6F894DEBF0FBE48
:103AE000CDBFDF91CF911F910F91FF90EF90DF90AD
:103AF000CF900C94AA230E949823C701B601289660
:103B00000FB6F894DEBF0FBECDBFDF91CF911F91EE
:103B10000F91FF90EF90DF90CF900C948623603F41
:103B2000D9F128F480E4860F803250F09CC0623FC7
:103B300009F461C008F44BC0633F09F470C093C03E
:103B4000162F1071842F8F716887FF2059F00E9403
:103B500031236885862F112319F08295807F75CED9
:103B60008F7073CE0E944C236885862F112319F025
:103B70008295807F01C08F7028960FB6F894DEBFC3
:103B80000FBECDBFDF91CF911F910F91FF90EF90AE
:103B9000DF90CF900C946C1BFF20A9F0223008F02E
:103BA000B2C0842F8F7128960FB6F894DEBF0FBE77
:103BB000CDBFDF91CF911F910F91FF90EF90DF90DC
:103BC000CF900C946B23233008F09DC0EACFFF20E8
:103BD000A1F0842F8F7128960FB6F894DEBF0FBE28
:103BE000CDBFDF91CF911F910F91FF90EF90DF90AC
:103BF000CF900C943123FF2061F3842F8F7128968E
:103C00000FB6F894DEBF0FBECDBFDF91CF911F91ED
:103C10000F91FF90EF90DF90CF900C944C23FF20FA
:103C200091F0842F8F7128960FB6F894DEBF0FBEE7
:103C3000CDBFDF91CF911F910F91FF90EF90DF905B
:103C4000CF900C94222328960FB6F894DEBF0FBEB7
:103C5000CDBFDF91CF911F910F91FF90EF90DF903B
:103C6000CF900C941D23FF20A1F0222309F4B1CFA3
:103C7000862F28960FB6F894DEBF0FBECDBFDF911A
:103C8000CF911F910F91FF90EF90DF90CF900C9408
:103C9000931A222309F4B1CF862F28960FB6F894F1
:103CA000DEBF0FBECDBFDF91CF911F910F91FF906F
:103CB000EF90DF90CF900C943D1B4F70C8010E9495
:103CC000030828960FB6F894DEBF0FBECDBFDF9174
:103CD000CF911F910F91FF90EF90DF90CF900C94B8
:103CE0002F224F70C80128960FB6F894DEBF0FBE82
:103CF000CDBFDF91CF911F910F91FF90EF90DF909B
:103D0000CF900C94342628960FB6F894DEBF0FBEE1
:103D1000CDBFDF91CF911F910F91FF90EF90DF907A
:103D2000CF9008950E9464240E9433240E948A2424
:103D30000E948C290E945E2880E090E00E94FD187D
:103D400080E090E00C942B190E9454240C94921E55
:103D50000E94BD23292F22952F7030E02C30310591
:103D60004CF42A303105C4F4225031092230310597
:103D700040F021C02C303105D1F02F303105B9F0A1
:103D80001AC0853A28F48430C0F4823028F415C073
:103D900090E2980F983088F0883E30F4803E68F4C6
:103DA0008450813A40F409C0803F29F406C093FB57
:103DB000882780F9089580E0089581E00895CF93E1
:103DC000DF9300D000D01F92CDB7DEB70F900F90D9
:103DD0000F900F900F90DF91CF910895CF93DF93C5
:103DE00000D000D000D0CDB7DEB726960FB6F8943D
:103DF000DEBF0FBECDBFDF91CF9108951F93CF934C
:103E0000DF93C091F50216E08091F602C81799F091
:103E1000D0E01C9FF0011D9FF00D1124E950FD4FD3
:103E20004081518162817381848195810E94EE1E5F
:103E30002196C770E9CFDF91CF911F9108954091EE
:103E40002703509128036091290370912A038091E0
:103E50002B0390912C030C94EE1ECF9380912C0396
:103E600082958F7009F05FC080912903882309F43F
:103E70005AC02091F502A091F6026091270370913B
:103E8000280380912A0390912B0331E06F3F09F0C2
:103E900030E0B32FC6E02A1709F445C0009721F09F
:103EA0007F3F21F44B2F03C041E001C040E030E0F0
:103EB00040FD35C0C29FF001C39FF00D1124E950B1
:103EC000FD4F418174132BC04081641328C042818F
:103ED000411125C0438154814817590710F44150BE
:103EE0005109481B590B4C325140C8F480912C03A6
:103EF0008F70806180932C0386E0829FF001839F06
:103F0000F00D1124E450FD4F80818F70806180831B
:103F100087E293E00E94731BCF910C94FE1E2F5FEB
:103F20003F4F2770B8CFCF910895CF92DF92EF9295
:103F3000FF920F931F93CF93DF93CDB7DEB76297B6
:103F40000FB6F894DEBF0FBECDBF8C0185E0F8013F
:103F5000DE011D9601900D928A95E1F7D8014C91F2
:103F600011965C91119712966C9112971396ED90A1
:103F7000FC90149770912703E091280320912A0365
:103F800030912B032115310531F0EF3F31F481E001
:103F90007F3F19F403C081E001C080E0B82FB17009
:103FA000CB2E80FD6DC1D0902903DD2009F4F6C031
:103FB000F0912C03E216F30638F0C701821B930B35
:103FC0008C32914048F09CC0209530952E0D3F1DBD
:103FD0002C32314008F094C08F2F807F09F053C0FD
:103FE000E51315C0741313C0D62E611110C0FF70F5
:103FF000F061F0932C030E941F1F87E293E00E9460
:10400000731B80912C03D80115968C936BC1EF28FC
:1040100031F05F3F31F481E04F3F19F403C081E09C
:1040200001C080E080FD03C081E0862701C080E000
:10403000B82FB170FB2E80FF1CC08091F50220913B
:10404000F60236E0821709F428C190E0389FF001AB
:10405000399FF00D1124E950FD4F7181571306C0AF
:104060007081471303C07281671303C00196877084
:10407000E9CFD62E662309F435C180912C038160E7
:1040800080932C0353C0E51308C0741306C061115C
:1040900004C0D8011596FC93AEC04D875E878D8510
:1040A0009E856A8B0E94A81E6A89882329F1D62ED4
:1040B000662311F120912C03822F82958F7090E05E
:1040C00002970CF460C08091270390912803988791
:1040D0008F831986FB86EA862C87CE01079651C00E
:1040E000E51731F14D875E878D859E856A8B0E942D
:1040F000A81E6A8981112EC0C8010E94731BA4C02A
:104100008F2F807F69F77E2DF98AE88A89890E943E
:10411000DF1E87E293E00E94731BE7E2F3E086E094
:10412000DF011D928A95E9F70E941F1FD12CDAC08A
:104130007413D8CF6111D6CFD8011596FC93C8015E
:104140000E94731BE7E2F3E086E0DF011D928A958F
:10415000E9F7C8C0D62E662379F220912C03822F6E
:1041600082958F7090E0029774F080912703909170
:1041700028039A8389831B82FD82EC822E83CE01E1
:1041800001960E94731B86E0F801A7E2B3E001905C
:104190000D928A95E1F70E942D1F6FC0E216F3067B
:1041A00040F0C701821B930B9C012C32314048F038
:1041B00057C0209530952E0D3F1D2C32314008F010
:1041C0004FC0D62E662309F497CFE51329C0741388
:1041D00027C080912C0380FD1AC0982F92959F7064
:1041E000B1F0F80185839F3031F09F5F9295907F09
:1041F0008F70892B8583C8010E94731B86E0F801AC
:10420000A7E2B3E001900D928A95E1F736C086E00F
:10421000F801A7E2B3E001900D928A95E1F762C040
:104220004D875E878D859E850E94A81E882379F024
:1042300086E0F801A7E2B3E001900D928A95E1F7DC
:104240000E942D1F0E941F1FDD24D3944BC080911C
:104250002C03816080932C03C8010E94731B42C011
:104260007E2DF98AE88A89890E94DF1EE7E2F3E061
:1042700086E0DF011D928A95E9F70E941F1F32C078
:10428000662309F439CF4D875E878D859E850E9410
:10429000A81E882309F430CFCBCF4D875E878D854C
:1042A0009E850E94BD23292F22952F7030E0223059
:1042B00031052CF49F7041F0811106C00CC02430F0
:1042C00031052CF49F7049F4805E883020F0C801DD
:1042D0000E94731BCF2CDC2C05C0F8019581907FC8
:1042E00099F7F9CF8D2D62960FB6F894DEBF0FBE09
:1042F000CDBFDF91CF911F910F91FF90EF90DF9095
:10430000CF9008951F93CF93DF93CDB7DEB72C974F
:104310000FB6F894DEBF0FBECDBF4F8358876987B5
:104320007A878B879C87CE0107960E94951F8823EA
:10433000C1F02F8138858A859B85892B31F03F3FDD
:1043400011F080E003C02F3FE1F781E0811147C009
:104350004F81588569857A858B859C850E94EE1EE4
:104360003EC086E0FE013796DE01119601900D9267
:104370008A95E1F7FF81E8854A855B8541155105FE
:1043800031F0EF3F31F481E0FF3F19F403C081E0E9
:1043900001C080E080FD23C02091F60230E0C90119
:1043A0000196877099276091F50270E0861797074C
:1043B000F1F1F983EA835D834C8396E0929FD0010B
:1043C000939FB00D1124A950BD4FFE01319601906D
:1043D0000D929A95E1F78093F6020E94FE1E16E078
:1043E0008091F5029091F602891779F1189FC0012A
:1043F000112489509D4F0E94951F882331F1E0912F
:10440000F5021E9FF0011124E950FD4F40815181BA
:1044100062817381848195810E94EE1E8091F502F4
:1044200090E00196877099278093F502D9CF0E947A
:10443000A41E1092F6021092F502E7E2F3E086E085
:10444000DF011D928A95E9F7CACF2C960FB6F89432
:10445000DEBF0FBECDBFDF91CF911F910895DF92D8
:10446000EF92FF920F931F93CF93DF93FC0100977E
:1044700009F48AC0E12CF12CDD24D394EF012196BC
:104480008491853709F461C058F4843708F04EC030
:10449000843008F06AC08130D1F0823071F174C08C
:1044A000883709F45DC050F4863709F455C0873762
:1044B00009F06AC08E2D0E94512454C09CE7980FC9
:1044C000903708F061C08F770E943D1B50C08F016C
:1044D0000E5F1F4FFE01849190E2980F983050F4C8
:1044E0008770FD2D01C0FF0F8A95EAF78F2F0E947C
:1044F000572415C00E94931A14C08F010E5F1F4FDE
:10450000FE01849190E2980F983068F48770FD2D39
:1045100001C0FF0F8A95EAF78F2F0E945D240E9449
:104520008A24E80124C00E943D1BFBCF9F012E5F1F
:104530003F4FFE01C491CC2369F08FE99FE00197C2
:10454000F1F700C00000C150F6CF9F012E5F3F4F32
:10455000FE01F490E9010BC00E944124E82E07C03F
:104560000E9454240E948A2402C00E94931A9F2D04
:10457000992341F0EFE9FFE03197F1F700C0000027
:104580009150F6CFFE017ACFDF91CF911F910F911D
:10459000FF90EF90DF9008956093310370933203A2
:1045A00080933303909334030E940A250C94921E47
:1045B00060932D0370932E0380932F039093300309
:1045C0000E940B250C94921E08950C94CC220F93FC
:1045D0001F930091310310913203209133033091E6
:1045E0003403602B712B822B932B1F910F910C9412
:1045F000CC220F931F93009131031091320320912D
:1046000033033091340360237123822393231F915A
:104610000F910C94CC220F931F93009131031091B2
:1046200032032091330330913403602771278227AE
:1046300093271F910F910C94CC2260E070E0CB0186
:104640000C94D82241E050E060E070E004C0440FD8
:10465000551F661F771F8A95D2F7CB01BA010C94BC
:10466000D82241E050E060E070E004C0440F551FE4
:10467000661F771F8A95D2F780912D0390912E03A4
:10468000A0912F03B0913003482B592B6A2B7B2B21
:10469000CB01BA010C94D82241E050E060E070E018
:1046A00004C0440F551F661F771F8A95D2F74095A7
:1046B00050956095709580912D0390912E03A09157
:1046C0002F03B0913003482359236A237B23CB0166
:1046D000BA010C94D82241E050E060E070E004C0E0
:1046E000440F551F661F771F8A95D2F780912D03BF
:1046F00090912E03A0912F03B091300348275927A2
:104700006A277B27CB01BA010C94D8220F931F9301
:1047100000912D0310912E0320912F03309130032F
:10472000602B712B822B932B1F910F910C94D8220D
:104730000F931F9300912D0310912E0320912F03AF
:104740003091300360237123822393231F910F91B3
:104750000C94D8220F931F9300912D0310912E03D8
:1047600020912F03309130036027712782279327F0
:104770001F910F910C94D8220895CF92DF92EF925F
:10478000FF920F931F93CF93DF93EC01C0903103FF
:10479000D0903203E0903303F090340380912D03E6
:1047A00090912E03A0912F03B0913003C82AD92AEB
:1047B000EA2AFB2A0FE110E0B701A601002E04C08F
:1047C00076956795579547950A94D2F740FF07C0AD
:1047D000BE01802F0E9450268130910539F401508E
:1047E000110950F7BE0180E00E945026DF91CF9161
:1047F0001F910F91FF90EF90DF90CF90089540911F
:1048000021015091220120E030E09FEFFA01E20FF8
:10481000F31F6281681799F09F3F19F4611101C07D
:10482000922F2F5F3F4F2630310581F79F3F39F0A0
:10483000FA01E90FF11D97FDFA9582830895089515
:10484000409121015091220120E030E0FA01E20F75
:10485000F31F9281981301C012822F5F3F4F2630C1
:104860003105A1F7089581E090E0E0912101F091F8
:104870002201E80FF91F1082019688309105A9F7EF
:10488000089580914103089590914103982B90934E
:10489000410308958095909141039823909341039B
:1048A00008958093410308951092410308959091D3
:1048B0004003982B90934003089580959091400376
:1048C0009823909340030895109240030895809395
:1048D00037030E947F259093360380933503089514
:1048E00010923703109236031092350308954091C9
:1048F00021015091220120E030E080E0FA01E20F36
:10490000F31F918191118F5F2F5F3F4F273031054A
:10491000A9F70895E0912101F091220180914103CE
:104920008083E0912101F0912201808190914003E8
:10493000892B808380913703882309F43EC00E942D
:104940007F2520913503309136038217930760F05D
:104950000E947F252091350330913603821B930BF3
:104960008C32914070F41BC00E947F25209135034A
:104970003091360320953095280F391F2C32314065
:1049800070F08091420380FF08C08FE997E09F9309
:104990008F930E94FA070F900F900E947024E0916D
:1049A0002101F0912201808190913703892B80832E
:1049B0000E94772481110E9470248091210190919E
:1049C00022010C94AD1890939B0180939A01089555
:1049D0008295982F9C7C96959695837344E0849F4E
:1049E00090011124922B892F8A7A86959575990FBB
:1049F000892B08950895CF93DF9300D000D01F92A4
:104A0000CDB7DEB70F900F900F900F900F90DF9102
:104A1000CF910895089508950C941A1A8091570320
:104A2000843009F11092430320E488E190E00FB64E
:104A3000F894A895809360000FBE2093600083B720
:104A4000817F846083BF83B7816083BF78948895BA
:104A500083B78E7F83BF88E10FB6F89480936000A0
:104A6000109260000FBE0895CF930E9438090E94F3
:104A70005B080E943A09C0E08C2F0E943009811126
:104A800005C0CF5FC830C1F780E001C081E0CF91A1
:104A900008950E941C1A0C94A41E1F920F920FB628
:104AA0000F9211248F939F93AF93BF9380914303F1
:104AB000811113C08091440390914503A091460356
:104AC000B09147034196A11DB11D8093440390937B
:104AD0004503A0934603B0934703BF91AF919F91C5
:104AE0008F910F900FBE0F901F90189582E084BD9C
:104AF00093E095BD9AEF97BD80936E0008952FB710
:104B0000F8948091440390914503A0914603B0919D
:104B100047032FBF08952FB7F89460914403709115
:104B2000450380914603909147032FBF0895CF928C
:104B3000DF92EF92FF920F931F932FB7F89440915B
:104B400044035091450360914603709147032FBF82
:104B50006A017B01EE24FF248C0120E030E0C016C6
:104B6000D106E206F30610F441505109481B590BD7
:104B7000CA011F910F91FF90EF90DF90CF900895A1
:104B8000CF92DF92EF92FF920F931F934FB7F8945B
:104B9000009144031091450320914603309147034F
:104BA0004FBF68017901C61AD70AE80AF90A061741
:104BB00017072807390718F0C701B60106C0C70153
:104BC000B60161507109810991091F910F91FF9000
:104BD000EF90DF90CF9008951F920F920FB60F9233
:104BE00011248F939F93AF93BF938091440390912F
:104BF0004503A0914603B09147030196A11DB11D45
:104C00008093440390934503A0934603B0934703D6
:104C1000BF91AF919F918F910F900FBE0F901F90FA
:104C200018950E94C015F8942FEF87EA91E621505D
:104C300080409040E1F700C0000087E090EBDC018D
:104C40008093600390936103A0936203B093630326
:104C50002CE088E190E00FB6F894A895809360006E
:104C60000FBE20936000FFCF0895E72FF0E098E09B
:104C7000899FE00DF11D112483E0EE0FFF1F8A953F
:104C8000E1F7E60FF11DE957FE4F84910895E82FF3
:104C9000F0E0EE0FFF1FE350F040859194910895EE
:104CA0000E94352690E4980F903218F40E9447260F
:104CB00008958D3B60F4883AA0F5853A38F5843044
:104CC00010F5813009F088C021E030E087C0883ECF
:104CD00098F4803EC0F48F3B09F07EC00E94A41E71
:104CE0002FEF80E792E0215080409040E1F700C034
:104CF00000000E94112670C0803F08F46DC0282F6C
:104D000030E030656BC0282F30E068C0853A21F074
:104D1000863A21F492E803C091E801C093E880E468
:104D200058C0883A51F1893A51F18A3A51F18B3A97
:104D300051F18C3A51F18D3A51F18E3A51F18F3A4D
:104D400051F1813B51F1803B51F1823B51F1833B69
:104D500051F1843B51F1853B51F1863B59F1873B41
:104D600059F1883B59F1893B59F18A3B59F18B3B09
:104D700059F18C3B61F59AE228C092EE29C099EE78
:104D800027C09AEE25C095EB23C096EB21C093EB8C
:104D90001FC094EB1DC097EB1BC09CEC19C09DEC91
:104DA00017C093E805C09AE803C092E901C094E9EE
:104DB00085E40FC091E209C093E207C094E205C008
:104DC00095E203C096E201C097E286E402C090E05B
:104DD00084E4292F382F02C020E030E0C901089573
:104DE00080914A0380FF0BC06091260185E0689F97
:104DF000B001112475956795759567952AC081FF57
:104E000009C06091260185E0689FB0011124759565
:104E100067951FC082FF07C06091260185E0689FEB
:104E2000B001112416C040914B034423C9F0609196
:104E30002501461788F72091260185E0289F9001DB
:104E40001124429FC001439F900D112470E00E94E5
:104E50009C2E6038710540F46115710539F002C06F
:104E600065E070E0862F08958FE7089581E008954A
:104E700080914A0380FF08C06091240170E075951D
:104E800067957595679521C081FF06C060912401E3
:104E900070E07595679519C082FF04C06091240188
:104EA00070E010C080914B038823C1F06091230112
:104EB0008617A0F790912401989FC001112470E0FB
:104EC0000E949C2E6038710528F46115710521F04F
:104ED000862F08958FE7089581E0089561E070E0DE
:104EE000F4CF803F21F40E94F026819504C0813FD9
:104EF00029F40E94F02680934E030895823F21F406
:104F00000E94F026819504C0833F29F40E94F02678
:104F100080934D030895893F19F40E94382705C0F6
:104F20008A3F31F40E943827819580934F0308957A
:104F30008B3F21F40E943827819504C08C3F29F4CF
:104F40000E943827809350030895843F21F4809174
:104F50004C03816017C0853F21F480914C0382602F
:104F600011C0863F21F480914C0384600BC0873FC1
:104F700021F480914C03886005C0883F31F4809112
:104F80004C03806180934C0308958D3F21F4809100
:104F90004A0381600BC08E3F21F480914A038260F6
:104FA00005C08F3F29F480914A03846080934A03AF
:104FB0000895803F39F480914E0387FF6CC01092B2
:104FC0004E0369C0813F29F480914E031816BCF34B
:104FD00062C090914D03823F29F497FF5CC010920C
:104FE0004D0359C0833F19F41916CCF354C0893FBF
:104FF00041F480914F0318160CF04DC010924F03EE
:105000004AC08A3F29F480914F0387FF44C0F6CFFE
:105010008B3F39F48091500387FF3DC010925003BD
:105020003AC08C3F29F4809150031816BCF333C06A
:10503000843F21F480914C038E7F17C0853F21F47B
:1050400080914C038D7F11C0863F21F480914C03E9
:105050008B7F0BC0873F21F480914C03877F05C075
:10506000883F31F480914C038F7E80934C0313C0B2
:105070008D3F21F480914A038E7F0BC08E3F21F437
:1050800080914A038D7F05C08F3F29F480914A03A8
:105090008B7F80934A0380914D0381110EC08091D4
:1050A0004E0381110AC080914F03811106C0809187
:1050B0005003811102C010924B0308958091420366
:1050C00083FF7EC088ED97E00E94610780914C03CA
:1050D0001F928F9383ED97E09F938F930E94FA071F
:1050E00081ED97E00E94610720914D03822F99275F
:1050F00087FD90959F932F938EEC97E09F938F93CE
:105100000E94FA078CEC97E00E94610720914E0301
:10511000822F992787FD90959F932F9389EC97E095
:105120009F938F930E94FA0787EC97E00E94610794
:1051300020914F03822F992787FD90959F932F935E
:1051400084EC97E09F938F930E94FA0782EC97E09C
:105150000E94610720915003822F992787FD909527
:105160009F932F938FEB97E09F938F930E94FA0763
:105170008CEB97E00E94610780914B031F928F9305
:1051800089EB97E09F938F930E94FA0787EB97E054
:105190000E94610780914A031F928F9384EB97E0EE
:1051A0009F938F930E94FA0781EB97E00E9461071B
:1051B0008DB79EB74C960FB6F8949EBF0FBE8DBFAD
:1051C0008CE493E00E94F2180E947F25909349039B
:1051D0008093480308951F93CF93DF9380914803F2
:1051E000909149030E94972540914B03442321F05D
:1051F0002091270130E006C0209128015AE0259F28
:10520000900111248217930708F482C080914D0306
:1052100010914E03D0914F03C0915003811107C0EC
:10522000111105C0D11103C0CC2309F471C04F3F47
:1052300019F04F5F40934B03181624F40E94F02698
:1052400080934D0380914D0387FF05C00E94F02697
:10525000819580934D03111624F40E94F0268093CB
:105260004E0380914E0387FF05C00E94F026819572
:1052700080934E0360914D03662339F110914E03E4
:10528000112319F1772767FD7095872F972F0E94BB
:105290008D2D23E333E343E35FE30E94F12D0E946E
:1052A0005A2D60934D03612F772767FD7095872FE7
:1052B000972F0E948D2D23E333E343E35FE30E94A6
:1052C000F12D0E945A2D60934E031D1624F40E9466
:1052D000382780934F0380914F0387FF05C00E94BA
:1052E0003827819580934F031C1624F40E94382799
:1052F000809350038091500387FF05C00E94382798
:10530000819580935003DF91CF911F910C945E287B
:10531000DF91CF911F910895ECE4F3E085E0DF0188
:105320001D928A95E9F710924B0310924A03089553
:105330008BEF99E00E9461071F9281E08F931F928B
:1053400085E08F938DEA99E09F938F930E94FA07EF
:105350000F900F900F900F900F900F900895833043
:10536000E9F128F4813061F0823009F10895853047
:1053700009F462C008F449C0863009F474C0089585
:1053800020912801862F90E0820F911D8F3F91057B
:1053900020F4620F6093280103C08FEF80932801EF
:1053A000809128011F928F9386EE98E072C0209121
:1053B0002701862F90E0820F911D8F3F910520F4E9
:1053C000620F6093270103C08FEF809327018091C4
:1053D00027011F928F9384ED98E05BC020912601F6
:1053E000862F90E0820F911D8F3F910520F4620F70
:1053F0006093260103C08FEF8093260180912601E0
:105400001F928F9381EC98E044C020912501862F54
:1054100090E0820F911D8F3F910520F4620F609301
:10542000250103C08FEF80932501809125011F92F4
:105430008F938CEA98E02DC020912401862F90E074
:10544000820F911D8F3F910520F4620F609324011C
:1054500003C08FEF80932401809124011F928F93CA
:1054600083E998E016C020912301862F90E0820FF7
:10547000911D8F3F910520F4620F6093230103C0BB
:105480008FEF80932301809123011F928F9388E7F0
:1054900098E09F938F930E94FA070F900F900F90C0
:1054A0000F900895833081F128F4813059F08230D3
:1054B000D1F00895853009F449C0B8F1863009F477
:1054C00056C0089580912801681720F4861B8093A8
:1054D000280102C010922801809128011F928F9309
:1054E00089E698E054C080912701681720F4861B54
:1054F0008093270102C010922701809127011F92FB
:105500008F9387E598E043C080912601681720F4C7
:10551000861B8093260102C01092260180912601ED
:105520001F928F9384E498E032C080912501681720
:1055300020F4861B8093250102C0109225018091E2
:1055400025011F928F938FE298E021C08091240162
:10555000681720F4861B8093240102C01092240156
:10556000809124011F928F9386E198E010C0809172
:105570002301681720F4861B8093230102C0109238
:105580002301809123011F928F938BEF97E09F93CC
:105590008F930E94FA070F900F900F900F9008952D
:1055A000CF93C82F1F928F9320E03BE03F932F9320
:1055B0000E94FA0761E070E080E090E004C0660FAE
:1055C000771F881F991FCA95D2F70E94E5220F9076
:1055D0000F900F900F90CF910C94A41ECF93873211
:1055E00088F58E3108F008C18E3009F486C0D8F4F1
:1055F000873009F460C08B3009F44FC0863009F061
:10560000FFC080914203817F8E7F8093420385E0BB
:105610009BE00E9461078CEA9DE00E94610781E0A7
:105620008093520346C0863109F4ADC020F4803126
:1056300009F478C0E5C0893109F48EC08B3109F4D2
:1056400049C0DEC0883349F150F4893209F4D2C030
:10565000853309F4CFC0873209F0D2C0CBC0833480
:1056600009F4C8C028F48A3308F4CAC08953C5C0F5
:10567000883409F0C5C00E94A41E8BE99DE00E94F9
:1056800061072FEF83ED90E3215080409040E1F7D8
:1056900000C000000E9411260CC08CE29BE03FC0BD
:1056A00082E89DE00E9461078091420381608093BF
:1056B0004203C1E0AAC080914203C82FC17080FF9D
:1056C000EFCF8EE89DE00E94610780914203817FC9
:1056D0008E7F3CC08091420381FBCC27C0F991E0D2
:1056E000C927C0FB81F980934203CC2319F085E7D9
:1056F0009DE027C087E69DE012C08091420382FBB7
:10570000CC27C0F991E0C927C0FB82F980934203FE
:10571000CC2319F088E59DE014C088E49DE00E9448
:105720006107C7CF8091420383FBCC27C0F991E08A
:10573000C927C0FB83F980934203CC2351F08CE34B
:105740009DE00E9461078091420381608093420343
:105750005CC08FE29DE0E3CF80E29DE00E946107A4
:1057600083EF9CE00E9461078CEB9CE00E94610744
:105770008EE89CE00E94610788E59CE00E9461073A
:105780008AE29CE0CCCF8CE19CE00E9461070E9401
:10579000A1181F928F9382E09CE09F938F930E94A9
:1057A000FA07809120011F928F938BEE9BE09F93CD
:1057B0008F930E94FA078091E5021F928F9388EDE4
:1057C0009BE09F938F930E94FA070E948B259F93E3
:1057D0008F937F936F9381EC9BE09F938F930E94B5
:1057E000FA078DB79EB742960FB6F8949EBF0FBECC
:1057F0008DBF5FCF80E001C08D510E94D02A59CF6C
:105800008FEB9BE00E946107C0E08C2FCF91089541
:10581000CF93C82F80915203813071F020F08230F5
:1058200009F448C03FC1A0912101B09122018C919F
:10583000823209F039C107C0A0912101B091220143
:105840008C91823249F48C2F0E94760C81112FC0EA
:105850008C2F0E94EE2A2CC08C2F0E94A30E811147
:1058600026C0C431E1F070F4CB3081F0C031D1F406
:105870000E94982988EF9AE00E94610782E0809355
:10588000520315C0C93259F0C83361F485E09BE07A
:105890000E9461078CEF9AE00E94610708C0109295
:1058A000520304C186EF9AE00E946107FFC081E0C5
:1058B0008170FEC0C43228F5CE3108F0C1C0CB30B3
:1058C000A1F1D0F4C73009F0D3C08EE18093280154
:1058D00082E3809327018AE08093260184E180930C
:1058E000250188E08093240188E2809323018CE9DC
:1058F00099E00E946107BFC0C33149F1C431C1F0D2
:10590000B7C0CB3409F4A9C028F4C93289F0C83330
:1059100061F0AEC0C13509F49EC0C23509F499C02A
:10592000CE3409F0A5C06AE09EC00E949829A3C0A9
:1059300080915103882319F0109251039CC089EA89
:1059400099E00E94610781E080935203B1C083E82F
:1059500099E00E94610781E799E00E9461078091C8
:1059600028011F928F938EE699E09F938F930E9458
:10597000FA078CE699E00E9461078AE599E00E94A7
:105980006107809127011F928F9387E599E09F938C
:105990008F930E94FA0785E599E00E94610786E4EB
:1059A00099E00E946107809126011F928F9383E402
:1059B00099E09F938F930E94FA0781E499E00E94F7
:1059C000610780E399E00E946107809125011F92A1
:1059D0008F938DE299E09F938F930E94FA078BE259
:1059E00099E00E94610786E199E00E946107809139
:1059F00024011F928F9383E199E09F938F930E94DC
:105A0000FA0781E199E00E9461078AEF98E00E941D
:105A10006107809123011F928F9387EF98E09F93F6
:105A20008F930E94FA0785EF98E00E9461078DB777
:105A30009EB748960FB6F8949EBF0FBE8DBF1BC091
:105A4000CE51EC2FF0E0E057FE4F80818093510360
:105A500012C061E003C061E006C06AE080915103BA
:105A60000E94AF2908C0809151030E94522A03C0AE
:105A70008AE999E013C080915103882369F01F924D
:105A80008F9384E999E09F938F930E94FA070F9078
:105A90000F900F900F9004C081E999E00E94610778
:105AA00081E006C01092520380E002C080E000CF87
:105AB000CF91089504D06894B1118DC0089570D02D
:105AC00088F09F5790F0B92F9927B751A0F0D1F0E7
:105AD000660F771F881F991F1AF0BA95C9F712C071
