:100000000C94BC060C9403070C9403070C94030790
:100010000C9403070C9403070C9403070C94030738
:100020000C9403070C9403070C940A160C94DD1629
:100030000C946E250C9403070C9403070C9403078F
:100040000C9403070C9403070C9403070C94030708
:100050000C9403070C94FD250C9403070C940307E0
:100060000C9403070C9481090C9403070C94030768
:100070000C9403070C9403070C9403070C940307D8
:100080000C9403070C9403070C9403070C940307C8
:100090000C9403070C9403070C9403070C940307B8
:1000A0000C9403070C9403070C9403070001E1016F
:1000B00013021302E10115021501120212011302CB
:1000C00013010802080115021501170217011C028D
:1000D0001C012C022C0112021201090209012C023E
:1000E0002C01E1010D020D02E101040204010602EE
:1000F00006010E020E012C022C01E1011D021D025F
:10010000E1010B020B0112021201180218012C026C
:100110002C01E101260226011F021F02E1010B0250
:100120000B010E020E01100210010C020C011B0249
:100130001B01E10127022702E10129022900013503
:1001400002350000C0F1A3048A028A218AF1A401C9
:10015000C01F141A16041D1B0620211508070919B3
:100160000522231C170A0B11001EC02BE0E1E2E35D
:100170002C2425180C0E0D100031352A28C1E5C598
:10018000E726271213330F36002D2E302F34383741
:100190000001010101010101010101010101010150
:1001A0000101010101010101000101010101010140
:1001B0000101010101010101002A2A3101010101AE
:1001C0000101010101010101000101010101010120
:1001D0000001010101010101010101010101010110
:1001E0000101010101010101000101010101E3E23D
:1001F0000101010101010101002A2A31010101E38C
:10020000E2010101010101010001010101010101FE
:10021000003BACB0A9AA696AC43C3DAFABA801C31E
:10022000C23E3F0101015557003A35390101010134
:1002300001404101464A545600494C2A58010101E7
:100240000142434748504B4D00444501524F514EE7
:1002500000545F605D5C595A5B555657615E575854
:1002600056010101010101F60053C453586763624E
:10027000010101FBFCF0F4F20001C60101010101E2
:100280000101010101F9F5F1000101010101FAF398
:100290000025630025730D0A00522C310D0A00530E
:1002A000592C464646340D0A0053482C303033430F
:1002B0000D0A00537E2C360D0A0053572C3830306F
:1002C000300D0A00534D2C340D0A0053532C4B654E
:1002D00079626F6172642F4D6F7573650D0A0053FB
:1002E0002D2C546D6B42540D0A0053462C310D0ACF
:1002F000002D2D2D0D0A0045786974696E67206305
:100300006F6E666967206D6F6465202E2E2E0A0061
:100310002B0D0A00760D0A0024242400456E746516
:1003200072696E6720636F6E666967206D6F6465C2
:10033000202E2E2E0A00522C310D0A0053522C5A18
:100340000D0A00555342206D6F64650A00417574B3
:100350006F206D6F64650A00253032750A00253004
:1003600032753A00253032753A004241543A202520
:10037000756D560900757074696D653A20253032C7
:100380007520253032753A253032753A2530327570
:100390000A00564255533A2025580A0052656D6F9F
:1003A000746557616B657570456E61626C65643A22
:1003B0002025580A000A003F004C4F57004449537B
:1003C0004348470043484152470046554C4C006261
:1003D0006174746572793A200055534220537461F8
:1003E00074653A2025730A00636F6E6669675F6DF6
:1003F0006F64653A2025580A00726E34325F617569
:10040000746F636F6E6E656374696E6728293A2036
:1004100025580A00726E34323A2025730A00666F3E
:100420007263655F7573623A2025580A0070726FB7
:10043000746F636F6C3A2025730A000A2D2D2D2DE1
:100440002D20524E2D343220696E666F202D2D2DB9
:100450002D2D0A00753A20202020202020746F675F
:10046000676C6520466F72636520555342206D6F3F
:1004700064650A00703A20202020202020706169E5
:1004800072696E670A00536C636B3A202020205219
:100490004E2D343220696E697469616C697A650A1F
:1004A0000044656C3A2020202020656E7465722F10
:1004B0006578697420524E2D343220636F6E666900
:1004C00067206D6F64650A00623A2020202020209A
:1004D000206261747465727920766F6C74616765EF
:1004E0000A00693A20202020202020524E2D34324C
:1004F00020696E666F0A000A0A2D2D2D2D2D2042CF
:100500006C7565746F6F746820524E2D34322048BC
:10051000656C70202D2D2D2D2D0A00253032753A59
:10052000253032753A253032750925756D560A0029
:100530004C4544207374617475733A2025303258E9
:100540000A002025303258002563005B735D004BA4
:100550006579626F6172642073746172740A00520B
:100560004E2D343220696E69740A000A55534220B8
:10057000696E69740A005B445D005B435D001203B1
:10058000480048004B00420020006D006F006400EE
:1005900000000E0374002E006D002E006B002E0074
:1005A00000000403090409027400040100A03209D8
:1005B0000400000103010100092111010001224092
:1005C000000705810308000A090401000103010274
:1005D00000092111010001224D00070582030800D6
:1005E0000A090402000103000000092111010001B1
:1005F0002236000705830308000A090403000203EA
:1006000000000009211101000122220007058403D6
:100610002000010705040320000112011001000061
:100620000008EDFE42420401010200010631FF090B
:1006300074A1010975150026FF0095207508810237
:100640000976150026FF00952075089102C0050166
:100650000980A101850216810026B7001A81002AAF
:10066000B700751095018100C0050C0901A1018535
:1006700003160100269C021A01002A9C027510959F
:10068000018100C005010902A1010901A1000509BC
:1006900019012905150025019505750181029501AE
:1006A000750381010501093009311581257F950206
:1006B0007508810609381581257F95017508810621
:1006C000050C0A38021581257F950175088106C041
:1006D000C005010906A101050719E029E715002554
:1006E00001950875018102950175088101050819B8
:1006F0000129059505750191029501750391010583
:1007000007190029FF150026FF00950675088100CE
:10071000C0636F6E73756D65723A20253034580A68
:100720000073797374656D3A20253034580A000AD5
:10073000002530325820006B6579626F6172643A2F
:1007400020004C45443A20253032580A00253032EA
:10075000583A202530386225730A00722F63203002
:10076000313233343536370A004F6E6573686F7433
:100770003A2074696D656F75740A00290A00257541
:10078000002F002575005D280025640020002564E9
:1007900000200025640020002564007C0025303204
:1007A00058006D6F7573656B6579205B62746E7C44
:1007B000782079207620685D287265702F61636CDF
:1007C000293A205B006D6B5F776865656C5F7469C3
:1007D0006D655F746F5F6D6178203D2025640A0050
:1007E0006D6B5F776865656C5F6D61785F73706571
:1007F0006564203D2025640A006D6B5F74696D653A
:100800005F746F5F6D6178203D2025640A006D6B19
:100810005F6D61785F7370656564203D2025640AB3
:10082000006D6B5F696E74657276616C203D20258A
:10083000640A006D6B5F64656C6179203D202564FE
:100840000A006D6B5F776865656C5F74696D655FE5
:10085000746F5F6D6178203D2025640A006D6B5FC9
:10086000776865656C5F6D61785F7370656564203E
:100870003D2025640A006D6B5F74696D655F746F60
:100880005F6D6178203D2025640A006D6B5F6D61AE
:10089000785F7370656564203D2025640A006D6B88
:1008A0005F696E74657276616C203D2025640A0074
:1008B0006D6B5F64656C6179203D2025640A000AD8
:1008C00000257500363A20776865656C5F74696D40
:1008D000655F746F5F6D61783A20000A00257500CE
:1008E000353A20776865656C5F6D61785F73706518
:1008F00065643A20000A00257500343A2074696D59
:10090000655F746F5F6D61783A20000A002575009D
:10091000333A206D61785F73706565643A20000A30
:1009200000257500323A20696E74657276616C2814
:100930006D73293A20000A00257500313A2064655C
:100940006C6179282A31306D73293A20000A092D0B
:100950002056616C756573202D0A004D3E004D25B3
:10096000643E20003F007365742064656661756CA9
:10097000740A00433E200077686572652064656CE8
:1009800074613A20637572736F723D25642C207711
:100990006865656C3D25640A5365652068747470EC
:1009A0003A2F2F656E2E77696B6970656469612EC9
:1009B0006F72672F77696B692F4D6F7573655F6B0A
:1009C0006579730A000A092D204D6F7573656B6593
:1009D00079202D0A4553432F713A09717569740ABC
:1009E000313A0964656C6179282A31306D73290ABE
:1009F000323A09696E74657276616C286D73290AE2
:100A0000333A096D61785F73706565640A343A0939
:100A100074696D655F746F5F6D61780A353A097747
:100A20006865656C5F6D61785F73706565640A36D3
:100A30003A09776865656C5F74696D655F746F5FAF
:100A40006D61780A0A703A097072696E7420766175
:100A50006C7565730A643A09736574206465666130
:100A6000756C74730A75703A092B310A646F776E6E
:100A70003A092D310A706775703A092B31300A70C6
:100A800067646F776E3A092D31300A0A73706565B5
:100A900064203D2064656C7461202A206D61785F5C
:100AA0007370656564202A20287265706561742002
:100AB0002F2074696D655F746F5F6D6178290A001E
:100AC0003F004D3E2000433E20004C25640A000AB2
:100AD000092D20436F6E736F6C65202D0A455343BB
:100AE0002F713A09717569740A6D3A096D6F7573E2
:100AF000656B65790A000A092D204D6167696320DD
:100B00002D0A643A0964656275670A783A09646572
:100B1000627567206D61747269780A6B3A09646561
:100B2000627567206B6579626F6172640A6D3A095C
:100B30006465627567206D6F7573650A763A09762C
:100B4000657273696F6E0A733A09737461747573B1
:100B50000A633A09636F6E736F6C65206D6F64652D
:100B60000A302D343A096C61796572302D3428468B
:100B700031302D4634290A506175733A09626F6F1E
:100B8000746C6F616465720A003F0074696D657210
:100B90005F72656164333228293A202530346C58FD
:100BA0000A006B6579626F6172645F69646C653AB3
:100BB0002025580A006B6579626F6172645F7072FC
:100BC0006F746F636F6C3A2025580A00686F7374F6
:100BD0005F6B6579626F6172645F6C65647328290D
:100BE0003A2025580A000A092D2053746174757340
:100BF000202D0A004743433A20382E322E30204120
:100C000056522D4C4942433A20322E302E3020414C
:100C100056525F415243483A20617672350A004F7E
:100C20005054494F4E533A204C554641204D4F5554
:100C300053454B45592045585452414B4559204343
:100C40004F4E534F4C4520434F4D4D414E44203461
:100C50003039360A004255494C443A203633323056
:100C6000396263302D6469727479202830393A34DE
:100C7000393A3236204665622032352032303139F9
:100C8000290A005649443A2030784645454428749C
:100C90002E6D2E6B2E29205049443A203078343264
:100CA00034322848484B42206D6F64292056455203
:100CB0003A203078303130340A00444553433A20EA
:100CC000742E6D2E6B2E206B6579626F61726420BD
:100CD0006669726D7761726520666F722048484B55
:100CE00042206D6F640A000A092D205665727369EF
:100CF0006F6E202D0A000A6D6F7573653A206F665E
:100D0000660A000A6D6F7573653A206F6E0A000AF5
:100D10006B6579626F6172643A206F66660A000AD9
:100D20006B6579626F6172643A206F6E0A000A6DBA
:100D300061747269783A206F66660A000A6D6174A0
:100D40007269783A206F6E0A000A64656275673AC4
:100D5000206F6E0A000A64656275673A206F6666E6
:100D60000A000A0A626F6F746C6F616465722E2EDE
:100D70002E2000433E20000011241FBECFEFDAE0FA
:100D8000DEBFCDBF04B603FE27C08091A0039091C3
:100D9000A103A091A203B091A3038730904BA74079
:100DA000B04BD1F41092A0031092A1031092A203B1
:100DB0001092A30314BE84B7877F84BF0FB6F89444
:100DC000A895809160008861809360001092600017
:100DD0000FBEE0E0F8E3099511E0A0E0B1E0E0EB40
:100DE000FEE502C005900D92AA39B107D9F723E0BC
:100DF000AAE9B1E001C01D92A03AB207E1F70E9452
:100E0000BE100C94F32E0C9400000FB680959AE05F
:100E1000F8947BE27A95F1F708F0589A08F458981C
:100E200086959A95B1F70FBE08950FB680E8F894AD
:100E3000499BFECF4999FECF96E19A95F1F79CE246
:100E40009A95F1F7869549998068C8F70FBE08957D
:100E50000FB680E8F89496E19A95F1F79CE29A959E
:100E6000F1F7869549998068C8F796E19A95F1F768
:100E7000499BFECF0FBE0895FF93EF93E0919A0137
:100E8000F0919B01309709F00995EF91FF9108953A
:100E9000FC018591803011F0EFDFFBCF0895FF2733
:100EA000E0E230E247FF0CC0419597FF09C0EDE258
:100EB0006095709580959095611D711D811D911DA6
:100EC00027FF02C0219530E350E2AA27660F771F63
:100ED000881F991FAA1FA41710F0A41B63955A9589
:100EE000A9F7AA3008F0A95FA05DAF93F39561154B
:100EF00071058105910541F7ED3211F4EF93F395FA
:100F0000F21718F43F93F395FBCF8F91B5DFFA9565
:100F1000E1F70895E991F9918591803021F08532CA
:100F200019F0AADFF9CF089520E0E89455915532E1
:100F3000C1F3503311F4689455915A3348F4505327
:100F400090F3220F022E220F220F200D250FF4CF37
:100F50000EF4219589919991533619F3533729F15C
:100F6000533559F1BC0188279927E8945C3621F460
:100F70008991999168945591543639F446EF7EF0F1
:100F800077FF0DC08FEF9FEF0AC055374AE039F069
:100F9000583540E121F0523642E009F00895FF93C0
:100FA000EF937DDFEF91FF91B7CFFF93EF93FC01BC
:100FB00081918030B9F360DFFBCFFF93EF9368DF5F
:100FC000F1CFDF93CF93CDB7DEB72596A3DFCF91D7
:100FD000DF910895CF93DF93EC01662339F0613000
:100FE00079F08CEA90E0DF91CF9108950E9461241E
:100FF0009A819923B1F3827249F489E391E0F3CFA6
:101000008A81882371F38DEA90E0EDCF8EE391E041
:10101000EACF14B88FEF85B9549A5C9808958FEF92
:1010200084B980E485B9549A5C9A8FE19EE4019773
:10103000F1F700C0000008958FEF84B980E485B90E
:1010400057985F9A87B18F7387B988B1806C88B9D8
:101050002E9A2F980E940908A4EAB1E01C921196DA
:101060001C92119712961C92129713961C9213972A
:1010700014961C92149715961C92159716961C920E
:10108000169717961C921797ECE9F1E010821182DF
:10109000128213821482158216821782B093AF01D6
:1010A000A093AE01F093AD01E093AC010895EF92EF
:1010B000FF920F931F93CF93DF938091AC01909198
:1010C000AD012091AE013091AF013093AD0120937D
:1010D000AC019093AF018093AE015C9B0E940F081E
:1010E000D0E0C0E001E010E0EE24EA94F12C60E0F2
:1010F00030E020E085B1422F807C8C2B862B85B997
:10110000AAE1AA95F1F700C0E091AC01F091AD0120
:10111000EC0FFD1F808190E0022E02C0959587950F
:101120000A94E2F780FD2F9AB5E3BA95F1F7000033
:1011300076B52E98EAE1EA95F1F700C0C80101C042
:10114000880F4A95EAF74091AE015091AF01FA013C
:10115000EC0FFD1F4F9B72C0809590818923808387
:1011600086B5E72FF0E0871708F46BC086B590E0EE
:101170008E1B9F0B069758F0E091AC01F091AD01EA
:10118000EC0FFD1F80814C0F5D1FFA018083FAE197
:10119000FA95F1F700C02F982E9A8BE291E0019713
:1011A000F1F700C000002F5F3F4F685F2830310526
:1011B00009F0A0CFA091AE01B091AF01AC0FBD1F5F
:1011C000E091AC01F091AD01EC0FFD1F9C9180818D
:1011D000981751F00E94AA256093B0017093B10155
:1011E0008093B2019093B3012196C830D10509F0E4
:1011F0007ECF5C9B1BC080919703853021F080914E
:101200009703811113C06091B0017091B101809179
:10121000B2019091B3010E94E025613177428105CE
:10122000910520F00E9409080E942D2581E0DF91A0
:10123000CF911F910F91FF90EF9008959081892B8E
:101240008ECF86B5D701AE1BBF0B8A0F9B2F911D8A
:1012500091CF2091AE013091AF01820F932F911D5C
:10126000FC01808108950C940F080C940908569A8B
:1012700081FF02C05E9A08955E98089588E0809389
:10128000CC001092CD00E9ECF0E080818069808391
:10129000808188608083EAECF0E080818083EBECE1
:1012A000F0E080818083559A5D987894089540910C
:1012B000B5019091B4014917D1F0292F30E0F9011F
:1012C000EA54FE4F80812F5F3F4F33279F5F9093FB
:1012D000B401642F70E0261B370B491730F423301C
:1012E00031050CF05D9890E008953395F8CF8FEFBD
:1012F0009FEF08959091C80095FFFCCF8093CE009A
:1013000008952F932FB72F933F934F935F938F930E
:101310009F93EF93FF93E091B50181E08E0F2091B1
:10132000B401281741F09091CE00F0E0EA54FE4F4E
:1013300090838093B5013091B501432F50E0822F07
:1013400090E0841B950B321770F403970CF45D9AB0
:10135000FF91EF919F918F915F914F913F912F91CD
:101360002FBF2F9118959395F0CF8091D0020895BB
:1013700008950895CF93DF938D3C910509F44CC0F7
:1013800068F5D0E0C1E0853B9105B9F050F4C0E1CB
:10139000833B910591F0C0E2843B910571F0C0E080
:1013A0000CC0C4E0873B910541F0C2E0873B91054A
:1013B00020F0C8E08C3C910591F78DEF0E947A09EE
:1013C00083E00E947A0983E00E947A098D2F0E94AF
:1013D0007A098C2FDF91CF910C947A09D0E28A3E62
:1013E0009105E9F250F4D0E4823E9105C1F2D0E1DA
:1013F000893E9105A1F2D0E0D2CFD4E0813222E043
:10140000920769F2D1E0833222E0920741F2D2E002
:101410008A38914081F7C3CFD0E8C1CFCF93DF9313
:10142000EC018DEF0E947A0985E00E947A0982E042
:101430000E947A0988810E947A0989810E947A092A
:101440008A810E947A098B81DF91CF910C947A096D
:10145000CF93DF93EC018DEF0E947A0989E00E941F
:101460007A0981E00E947A0988810E947A0980E0E5
:101470000E947A098A810E947A098B810E947A09E6
:101480008C810E947A098D810E947A098E810E9446
:101490007A098F81DF91CF910C947A09089508958C
:1014A00008958091D00208950C945709EF92FF920D
:1014B0000F931F93CF938C010E949E257C01C0E067
:1014C000C7010E94B6258017910788F40E9457092A
:1014D0008F3F980751F08D3041F08A3041F0EC2F6A
:1014E000F0E0E854FD4F8083CF5FC73149F7EC2F20
:1014F000F0E0E854FD4F108288EB92E0CF911F910D
:101500000F91FF90EF9008950C947A0981B3881F92
:101510008827881F0895879A8F9A089585B78068CD
:1015200085BF85B7806885BF0E948B0A86988E9A92
:1015300081988998559A5D980C943E09879A8F985E
:1015400008958FB18695817008958FB186FB8827A5
:1015500080F908958093D0020895CF93DF93EC0132
:10156000FE0184912196811103C0DF91CF910895EE
:101570000E947A09F5CFCF93DF93C1E9D2E00E94B0
:1015800057098F3F980719F4DF91CF9108959F93E2
:101590008F93DF93CF930E94E1070F900F900F90EE
:1015A0000F90EDCF0E94AD0A2FEF89E698E1215010
:1015B00080409040E1F700C0000084E690E00E9487
:1015C000560A8093B6029093B7029F938F9384E953
:1015D00092E09F938F930E94E1070E94BB0A0F90B5
:1015E0000F900F900F908091B6029091B7020895DE
:1015F0000E946A1890931501809314010E946A1E3C
:1016000080E091E00E9465180E949E0A0E94A50A4F
:101610008111FCCF8CE193E00E9448072FEF85EB0E
:1016200095E3215080409040E1F700C0000088E140
:1016300093E00E94D20AEFEFFBE42DE1E150F0408D
:101640002040E1F700C000000E94BB0A84E193E063
:101650000E94D20AFC018081863721F080E193E06C
:101660000C94D20A089587EF92E00E94480781EF18
:1016700092E00E94D20A0E948B0A0E946A1E809108
:101680001401909115010C9465180C94FB0F4F9266
:101690005F926F927F928F929F92AF92BF92CF9202
:1016A000DF92EF92FF920F931F93CF93DF9392E01D
:1016B000B92E02E415E028E4E22E25E0F22EAA2459
:1016C000A39433E0932E40E3C42E45E0D42E0E9431
:1016D000540AEC01019609F0A8C08091D50281114D
:1016E00014C08091D402811110C00E94A10A8111FE
:1016F000DEC00E946A188A50914009F4D8C00E9446
:101700006A1E8AE091E00E9465188091D102909152
:10171000D2020E94B625893E23E0920708F469C0F0
:1017200028EE33E0B9010E94A32E629FA001639FBF
:10173000500D729F500D11248091D1029091D202D0
:10174000840F951F9093D2028093D1020E9498102B
:10175000833009F0BCC081E00E94EA0F0E94AA25F4
:101760006B017C0128EE33E040E050E00E94CB2E7C
:1017700029013A018CE3882E912CA12CB12CCA01AD
:10178000B901A50194010E94CB2E672B682B692B10
:1017900081F50E9461102091810320FF2AC09F9350
:1017A0008F931F921F92C301B20120E13EE040E0FF
:1017B00050E00E94CB2EA50194010E94CB2E3F93B6
:1017C0002F93C701B60120E83EEE46E350E00E94A9
:1017D000CB2E1F922F938BE195E09F938F930E94C6
:1017E000E1078DB79EB70A960FB6F8949EBF0FBE5D
:1017F0008DBF0E94A10A81116CC00E94A50A882396
:1018000009F467C06E9A7698DF91CF911F910F917E
:10181000FF90EF90DF90CF90BF90AF909F908F9010
:101820007F906F905F904F9008958091D3028130A8
:1018300011F1882339F0823019F1833031F110929F
:10184000D30245CFCE3FD10519F4A092D3023FCFAA
:10185000C038D10558F4DF93CF93FF92EF920E94E6
:10186000E1070F900F900F900F9031CFDF93CF9340
:101870001F930F93F4CF229711F7B092D30227CF83
:101880002197E9F69092D30222CF8091810380FFC5
:101890000AC0DF93CF93DF92CF920E94E1070F90AF
:1018A0000F900F900F908C2F0E94AA0AC8CF0E9411
:1018B000A10A882309F429CF0E946A188651914011
:1018C00009F423CF0E946A1E86E191E01CCF80E0DC
:1018D00043CF6E9A769A98CF4F925F926F927F9293
:1018E0008F929F92AF92BF92CF92DF92EF92FF9230
:1018F000CF93833109F4B5C008F066C08B3009F48A
:101900007FC08C3009F4BAC0853009F063C00E94F2
:10191000AA256B017C0128EE33E040E050E00E94F4
:10192000CB2E49015A010E9461109F938F938AE642
:1019300093E09F938F930E94E107C701B60120E8CF
:101940003EEE46E350E00E94CB2E5F934F933F93D1
:101950002F9384E693E09F938F930E94E107C50144
:10196000B40120E13EE040E050E00E94CB2E2CE3A9
:10197000C22ED12CE12CF12CA70196010E94CB2E76
:101980005F934F933F932F938EE593E09F938F93B5
:101990000E94E107C501B401A70196010E94CB2E68
:1019A0009F938F937F936F9388E593E09F938F939B
:1019B0000E94E1072DB73EB72A5E3F4F0FB6F8945D
:1019C0003EBF0FBE2DBF38C08833D1F030F4883110
:1019D00009F47EC1C091D50235C0873409F49DC198
:1019E0008C34C1F70E94860AC82F882309F48EC15F
:1019F0000E94F80A81E0809392038093D50222C06E
:101A000087EF94E00E94480782EE94E00E94480726
:101A100088EC94E00E94480781EA94E00E9448071D
:101A200086E894E00E94480784E794E00E94480713
:101A3000C091D502CC2311F0C1E004C084E594E04C
:101A40000E9448078C2FCF91FF90EF90DF90CF90AE
:101A5000BF90AF909F908F907F906F905F904F90CE
:101A600008950E94F80A8CE393E00E94D20A86E36C
:101A700093E00E94D20A0E94330BDECF8BE394E006
:101A80000E9448070E946A188A50914009F48FC04A
:101A90008EE291E09F938F938DE294E09F938F93DA
:101AA0000E94E1078091D4021F928F938EE194E00F
:101AB0009F938F930E94E1070E94A10A2DB73EB722
:101AC000285F3F4F0FB6F8943EBF0FBE2DBF811168
:101AD00071C00E94A50A811170C08CE391E09F93B0
:101AE0008F9384E194E09F938F930E94E1070E947B
:101AF000860A1F928F9389EF93E09F938F930E94A2
:101B0000E1078091D5021F928F9388EE93E09F9317
:101B10008F930E94E107809197032DB73EB7245F12
:101B20003F4F0FB6F8943EBF0FBE2DBF882309F478
:101B300047C080919703813009F445C08091970395
:101B4000823009F443C080919703833009F441C087
:101B500080919703843009F43FC0809197038530CA
:101B6000F1F189E791E09F938F9389ED93E09F9343
:101B70008F930E94E1078FEC93E09F938F930E94D5
:101B8000E1070E9498100F900F900F900F900F9008
:101B90000F90813009F493C0882321F1823009F439
:101BA00091C0833009F491C087EB93E01DC088E2B7
:101BB00091E070CF83E391E092CF87E391E08FCF04
:101BC00083E591E0D0CF8EE591E0CDCF86E691E040
:101BD000CACF89E491E0C7CF8EE691E0C4CF8FE30E
:101BE00091E0C1CF8AEC93E09F938F930E94E1072D
:101BF0000F900F9085EB93E09F938F930E94E107E6
:101C0000809195031F928F938CE993E09F938F931C
:101C10000E94E1078091D90081701F928F9382E921
:101C200093E09F938F930E94E1070E94AA256B0186
:101C30007C0128EE33E040E050E00E94CB2E2901E9
:101C40003A013CE3832E912CA12CB12CC301B201AB
:101C5000A50194010E94CB2E7F936F93C301B20123
:101C600020E13EE040E050E00E94CB2EA50194012F
:101C70000E94CB2E3F932F93C701B60120E83EEE82
:101C800046E350E00E94CB2E1F922F93C701B6016E
:101C900020E03CE546E255E00E94CB2E3F932F9397
:101CA00085E793E09F938F930E94E1078DB79EB7DE
:101CB00044960FB6F8949EBF0FBE8DBFBDCE84EC88
:101CC00093E092CF8DEB93E08FCF89EB93E08CCFB5
:101CD0008091D502C0E08111B5CEC091D402CC2351
:101CE00039F08DE493E00E9448071092D402AACE06
:101CF00083E493E00E94480781E08093D4020E942D
:101D00006A1E86E191E00E94651896CE0E94330B10
:101D1000109292031092D5028FCE8091D50281113C
:101D200002C00E94F80A8AEE92E00E94D20A8FED69
:101D300092E00E94D20A8BEC92E00E94D20A84ECDC
:101D400092E00E94D20A8AEB92E00E94D20A83EBD0
:101D500092E00E94D20A89EA92E00E94D20A8FE9B8
:101D600092E00E94D20A89E992E00E94D20A809110
:101D7000D502811161CE7FCECF93C82F0E946124FE
:101D80008272ECEFEC0FE93408F0DDC0F0E0EB50CC
:101D9000F14D0C94ED2ECBE18C2F0E94840A81E052
:101DA000CF910895C1E68823B9F3C1E4F5CFC2E627
:101DB000882391F3C2E4F0CFC3E6882369F3C3E438
:101DC000EBCFC4E6882341F3C4E4E6CFC5E688231D
:101DD00019F3C5E4E1CFC6E68823F1F2C6E4DCCF0F
:101DE000C7E68823C9F2C7E4D7CFC8E68823A1F2A3
:101DF000C8E4D2CFC9E6882379F2C9E4CDCFCAE6D8
:101E0000882351F2CAE4C8CFCBE6882329F2CBE479
:101E1000C3CFCCE6882309F4BFCFCCE4BDCFCDE659
:101E2000882309F4B9CFCDE4B7CFCEE6882309F4EF
:101E3000B3CFCEE4B1CFCFE6882309F4ADCFCFE462
:101E4000ABCFC0E7882309F4A7CFC0E5A5CFC1E792
:101E5000882309F4A1CFC1E59FCFC2E7882309F405
:101E60009BCFC2E599CFC3E7882309F495CFC3E59B
:101E700093CFC4E7882309F48FCFC4E58DCFC5E79E
:101E8000882309F489CFC5E587CFC6E7882309F4FD
:101E900083CFC6E581CFC7E7882309F47DCFC7E5A7
:101EA0007BCFC8E7882309F477CFC8E575CFC9E7AA
:101EB000882309F471CFC9E56FCFCAE7882309F4F5
:101EC0006BCFCAE569CFC1E3882309F465CFC1E2CE
:101ED00063CFC2E3882309F45FCFC0E45DCFC3E3DF
:101EE000882309F459CFC3E257CFC4E3882309F408
:101EF00053CFC4E251CFC5E3882309F44DCFC5E2E7
:101F00004BCFC6E3882309F447CFCEE545CFC7E3DF
:101F1000882309F441CFC6E23FCFC8E3882309F400
:101F20003BCFCAE239CFC9E3882309F435CFC8E2F1
:101F300033CFC0E3882309F42FCFC9E22DCFC8E007
:101F40002BCFC9E029CFC0E227CF882309F424CFC3
:101F5000CFE522CFCDE3882309F41ECFCBE21CCFFF
:101F6000CBE5882309F418CFCBE716CFCDE588233E
:101F700009F412CFCDE710CFCCE5882309F40CCFBC
:101F8000CCE70ACFCBE3882309F406CFCAE304CF1A
:101F9000C7E2882309F400CFC2E2FECEC0E6882360
:101FA00009F4FACECEE7F8CECCE2882309F4F4CED9
:101FB000CCE3F2CECEE2882309F4EECECEE3ECCE33
:101FC000CFE2882309F4E8CECFE3E6CEC0E0E4CE4A
:101FD000CAE0E2CE833019F4859A7D9A0895813063
:101FE00019F4859A8D980895823019F4859A8D9AFE
:101FF00008958598F7CF81E00E94EA0F2FEF81EED8
:1020000094E0215080409040E1F700C0000082E061
:102010000E94EA0F2FEF81EE94E021508040904023
:10202000E1F700C0000081E00E94EA0F2FEF81EE8F
:1020300094E0215080409040E1F700C0000082E031
:102040000E94EA0F2FEF81EE94E0215080409040F3
:10205000E1F700C0000080E00E94EA0F80EC80936E
:102060007C0087E080937A0081E980937E0081E0A4
:1020700080937F008BE380937D00849A8C980895F1
:102080008091D90080FF1BC090B331B385988D9AA1
:10209000EFE9FFE03197F1F700C000008FB185FB59
:1020A000882780F921E0822720B32F7D9072292B89
:1020B00020BB91B39F7D3072932B91BB089580E03C
:1020C0000895CF93DF9300D0CDB7DEB7849A8C9A72
:1020D00080917A00806880937A008FE99FE0019771
:1020E000F1F700C0000080917A00806480937A004C
:1020F00080917A0086FDFCCF8091780090917900E4
:102100009A83898380917A008F7780937A00849A6A
:102110008C9829813A8145E0429FC001439F900DF0
:102120001124805591090F900F90DF91CF91089560
:102130008091D90080FD0C9440100E9461108C3A6F
:102140002DE0920728F481E08093D60283E0089581
:1021500085379E4020F01092D60282E0089580914B
:10216000D6028823D1F3F2CFCF93C82F0E94050760
:102170008C2F0E94411180E0CF91089584B7877F12
:1021800084BF0FB6F894A895809160008861809311
:102190006000109260000FBE80E890E00FB6F894E7
:1021A00080936100909361000FBE0E948F150E9482
:1021B000EC158091E20084608093E20084EB90E172
:1021C0000E94FC24509A589A5198599A78948FEF0B
:1021D000909197038150943041F0EFE7FEE33197FF
:1021E000F1F700C000008111F3CF8BE695E00E946B
:1021F00048070E948E0A0E94450B8FE595E00E94D9
:1022000048070E942C190E94A10A811115C08AE07A
:1022100091E00E9465188FE495E00E9448070E94B3
:10222000A10A882321F080919703853041F00E9414
:1022300030190E94470BF3CF86E191E0EACF8BE49F
:1022400095E00E9448070E9435090E942D250E94B2
:102250002D250E942D250E942D250E942D250E94AE
:102260002D250E942D25809195038823C1F20E947F
:1022700056258823A1F20E94EB13D1CF8091E3026F
:1022800008959FB7F8941092DA029FBF9091970338
:10229000943009F049C02091E9002F709091EC0032
:1022A00090FD30C090E0922B24E02093E900209133
:1022B000EB0020FF36C02091EE0027FF32C02091B6
:1022C000D702222321F02091E80025FF2AC0109296
:1022D000D70226E03091E80035FF16C08093F10068
:1022E0008091E80085FD29C08091E80080FFFCCF47
:1022F0008091E8008E778093E8009F709093E900CA
:1023000080E0089590E8CFCF30919703343049F4BE
:102310003091EB0035FD05C0215041F481E0809300
:10232000D7029F709093E9008FEF0895EFE9FFE0E7
:102330003197F1F700C00000CDCF8FB7F89421E0BE
:102340002093DA028FBFD9CFCF93DF9300D00F92C3
:10235000CDB7DEB79C0180919703843019F593E0E7
:1023600099833B832A839093E9008FEF9091E80053
:10237000815095FD06C095ED9A95F1F70000811109
:10238000F5CF8091E80085FF0DC050E040E063E0AC
:1023900070E0CE0101960E9401148091E8008E77D2
:1023A0008093E8000F900F900F90DF91CF910895E8
:1023B000CF93DF9300D00F92CDB7DEB72091970374
:1023C000243021F522E029839B838A8383E0809354
:1023D000E9008FEF9091E800815095FD06C095EDE2
:1023E0009A95F1F700008111F5CF8091E80085FF03
:1023F0000DC050E040E063E070E0CE0101960E9425
:1024000001148091E8008E778093E8000F900F9080
:102410000F90DF91CF9108959C01809197038430B4
:10242000F9F482E08093E9009FEF8091E8009150F9
:1024300085FD06C085ED8A95F1F700009111F5CF75
:102440008091E80085FF0CC050E040E065E070E05E
:10245000C9010E9401148091E8008E778093E80002
:102460000895CF93DF93EC0180919703843039F581
:1024700081E08093E9008FEF9091E800815095FD15
:1024800006C095ED9A95F1F700008111F5CF809186
:10249000E80085FF14C050E040E068E070E0CE0145
:1024A0000E9401148091E8008E778093E80088E014
:1024B000FE01ABEDB2E001900D928A95E1F7DF915C
:1024C000CF9108958AE795E00E944807809196038E
:1024D000811109C00E948F150E94EC158091E200C5
:1024E00084608093E200089586E795E00E944807A3
:1024F00010929603089508952091D8022F5F822F9D
:1025000062E30E94972E992319F02093D802089530
:102510001092D8028091DA028823E9F08091970323
:102520008430B9F49091E9009F708091EC0080FDB7
:1025300013C080E0892B94E09093E9009091EB0028
:1025400090FF04C09091EE0097FD0AC08F708093B9
:10255000E9001092DA02089580E8ECCF1092F100C1
:102560009091E80095FDFACF9091E80090FFEECFB2
:102570009091E8009E779093E800E8CF42E061EC0C
:1025800081E00E940D1542E061EC82E00E940D1591
:1025900042E061EC83E00E940D1542E261EC84E0D0
:1025A0000C940D1580919903833009F452C030F4D6
:1025B000813059F1823009F48EC008958A3009F4CF
:1025C0007AC08B3009F460C0893009F041C0809135
:1025D00098038132E9F580919C0390919D03892BAA
:1025E000B9F58091E800877F8093E8008091E8004A
:1025F00082FF2AC08091F1008093E3028091E8007D
:102600008B778093E8000C94411580919803813A70
:10261000F9F48091E800877F8093E80080919C0323
:1026200090919D03892B61F468E08BED92E070E05E
:102630000E9450148091E8008B778093E800089501
:1026400060E090E080E0F3CF809197038111CECFDE
:10265000089580919803813AD9F780919C039091D5
:102660009D03892BA9F78091E800877F8093E8007C
:102670008091E80080FFFCCF809120018093F100E1
:102680008091E8008E77BDCF80919803813201F769
:1026900080919C0390919D03892BD1F68091E80055
:1026A000877F8093E8000E94411580919A03809370
:1026B00020010C946A1E80919803813249F6809122
:1026C000E800877F8093E8000E94411580919B037A
:1026D0008093E402089580919803813A09F0B8CF7D
:1026E0008091E800877F8093E8008091E80080FF78
:1026F000FCCF8091E402C2CF8091E3028093D902A3
:102700001092E30280E00E9437090E94041A0C94A0
:102710006A1E0C947C130E946A258091D9028093D2
:10272000E30208950C948B13292F332723303105AE
:1027300021F168F42130310509F443C0223031051C
:1027400009F444C090E080E030E020E026C021326F
:10275000310551F122323105A9F7643098F770E064
:10276000FB01EE0FFF1FE158FE4F208131816558BC
:102770007E4FFB01808190E010C099278130910548
:1027800081F0009729F00297E9F6EEE7F5E002C044
:10279000E2EAF5E0849190E09F01FA013183208321
:1027A0000895E2E9F5E0F6CF643060F6E62FF0E058
:1027B000EE0FFF1FE957FE4F2081318189E090E045
:1027C000ECCF82E190E02AE136E0E7CF84E790E0C9
:1027D00026EA35E0E2CF80E189BD82E189BD09B416
:1027E00000FEFDCF8091D8008F7D8093D80080912E
:1027F000E00082608093E0008091E00081FDFCCFEA
:102800000895AF92BF92CF92DF92FF920F931F93E2
:10281000CF93DF936C01EB018A010E946015F82EC3
:10282000811123C00115110539F0F80180819181D2
:10283000C81BD90BC80ED91EB12CA12C2097A9F00A
:102840008091E80085FD22C08091E8008E7780931A
:10285000E80001151105A1F0F80180819181A80E11
:10286000B91EB182A08285E0F82E8F2DDF91CF9125
:102870001F910F91FF90DF90CF90BF90AF90089580
:102880000E9460158823D1F2F82EEFCFF6018191D6
:102890006F018093F1002197FFEFAF1ABF0ACECFEF
:1028A000FC0180919E0390919F0386179707A0F0EB
:1028B0006115710529F49091E8009E779093E800E6
:1028C00090E06115710551F4911108C08091E80004
:1028D00082FF34C080E00895BC01F2CF809197035D
:1028E0008823C1F18530C1F18091E80083FD30C0BB
:1028F0008091E80082FDEACF8091E80080FFE1CF7F
:102900008091F3002091F200382F6115710519F0C4
:102910002830310558F091E02830310509F090E079
:102920002091E8002E772093E800CBCF819180930F
:10293000F100615071092F5F3F4FE7CF80919703FE
:10294000882341F0853041F08091E80083FFBECFBD
:1029500081E0089582E0089583E00895FC0180916C
:102960009E0390919F0386179707A0F0611571054C
:1029700029F48091E8008E778093E80090E061155B
:10298000710551F4911108C08091E80082FF35C0B3
:1029900080E00895BC01F2CF809197038823C9F1AC
:1029A0008530C9F18091E80083FD31C08091E80055
:1029B00082FDEACF8091E80080FFE1CF8091F300B3
:1029C0002091F200382F6115710519F0283031057A
:1029D00058F091E02830310509F090E08091E8004E
:1029E0008E778093E800CBCF84918093F10031966D
:1029F000615071092F5F3F4FE6CF80919703882385
:102A000041F0853041F08091E80083FFBDCF81E047
:102A1000089582E0089583E00895982F973028F074
:102A20008F708093E90081E008959093E900242F4E
:102A3000762F50E0981731F07091EC002091ED0066
:102A40005091F00021FD02C09F5FE8CF3091EB0074
:102A50003E7F3093EB003091ED003D7F3093ED00F1
:102A60003091EB0031603093EB007093EC002093D9
:102A7000ED005093F0002091EE0027FDE5CF80E0BF
:102A800008958091980387FF13C08091E80082FF2A
:102A900006C08091E8008B778093E80004C08091A5
:102AA00097038111F2CF0895809197038823D9F37A
:102AB0008091E80080FFF8CF8091E8008E77ECCF1E
:102AC0002091E4003091E50085E6A9019091EC00A9
:102AD00090FF06C09091E80090FF06C080E0089546
:102AE0009091E80092FDFACF90919703992389F095
:102AF000953089F09091EB0095FD0FC02091E40096
:102B00003091E5004217530709F38150F1F684E054
:102B1000089582E0089583E0089581E008950E9479
:102B2000FD150E940516E0EEF0E080818160808353
:102B3000E8EDF0E080818F77808319BCA7EDB0E0ED
:102B40008C918E7F8C9380818F7E808310929603F0
:102B500008950F931F93CF93DF930E94FD150E945A
:102B60000516C8EDD0E088818F77888388818068DA
:102B7000888388818F7D888319BC10929703109277
:102B80009303109295031092940300EE10E0F80165
:102B900080818B7F808388818160888342E060E0D0
:102BA00080E00E940D15E1EEF0E080818E7F808351
:102BB000E2EEF0E0808181608083808188608083A4
:102BC000F80180818E7F8083888180618883DF9196
:102BD000CF911F910F910895E8EDF0E080818F7EF5
:102BE0008083E7EDF0E080818160808384E082BFB4
:102BF00081E0809396030C94A915E8EDF0E08081C4
:102C00008E7F80831092E20008951092DA00109275
:102C1000E10008951F920F920FB60F9211242F9387
:102C20003F934F935F936F937F938F939F93AF9354
:102C3000BF93EF93FF938091E10082FF0BC08091DF
:102C4000E20082FF07C08091E1008B7F8093E1006A
:102C50000E947C128091DA0080FF19C08091D80018
:102C600080FF15C08091DA008E7F8093DA0080911A
:102C7000D90080FF94C080E189BD82E189BD09B49B
:102C800000FEFDCF81E0809397030E946212809145
:102C9000E10080FF19C08091E20080FF15C08091A3
:102CA000E2008E7F8093E2008091E2008061809359
:102CB000E2008091D80080628093D80019BC85E042
:102CC000809397030E9489138091E10084FF29C0BB
:102CD0008091E20084FF25C080E189BD82E189BD49
:102CE00009B400FEFDCF8091D8008F7D8093D8007D
:102CF0008091E1008F7E8093E1008091E2008F7EE1
:102D00008093E2008091E20081608093E2008091F4
:102D10009303882309F449C084E0809397030E94B9
:102D200092138091E10083FF29C08091E20083FF2C
:102D300025C08091E100877F8093E10082E080934D
:102D40009703109293038091E1008E7F8093E100BE
:102D50008091E2008E7F8093E2008091E2008061AA
:102D60008093E20042E060E080E00E940D158091D7
:102D7000F00088608093F0000E947B12FF91EF9139
:102D8000BF91AF919F918F917F916F915F914F9183
:102D90003F912F910F900FBE0F901F90189519BC67
:102DA000109297030E94741272CF8091E30087FD06
:102DB00002C081E0B2CF83E0B0CF1F920F920FB676
:102DC0000F9211242F933F934F935F936F937F93B1
:102DD0008F939F93AF93BF93CF93EF93FF93C09144
:102DE000E900CF708091EC001092E9008091F00032
:102DF000877F8093F00078940E9419171092E90061
:102E00008091F00088608093F000C093E900FF910A
:102E1000EF91CF91BF91AF919F918F917F916F91E2
:102E20005F914F913F912F910F900FBE0F901F9088
:102E300018951F93CF93DF93CDB7DEB7AA970FB640
:102E4000F894DEBF0FBECDBF88E993E02091F1007A
:102E5000FC012193CF01F3E0803A9F07B9F70E946C
:102E6000D2128091E80083FF82C0809198039091F4
:102E700099039A3008F07BC0E92FF0E0E25CF04D56
:102E80000C94ED2E803881F0823809F070C080916A
:102E90009C038F708093E9008091EB0085FB88276D
:102EA00080F91092E90006C08091940390919503F7
:102EB000911182609091E800977F9093E800809351
:102EC000F1001092F1008091E8008E77F9C088231C
:102ED00009F4E6C0823009F04AC080919A0381115A
:102EE000EAC080919C038F7009F441C08093E9008F
:102EF0002091EB0020FFDFC0933031F48091EB0094
:102F000080628093EB00D7C09091EB00906190932A
:102F1000EB0021E030E001C0220F8A95EAF7209310
:102F2000EA001092EA008091EB008860EACF8111FC
:102F30001EC010919A031F778091E3008078812B47
:102F40008093E3008091E800877F8093E8000E94EF
:102F500041158091E80080FFFCCF8091E3008068FC
:102F60008093E30082E0111183E0809397038091C6
:102F7000E80083FF0AC08091E800877F8093E80023
:102F80008091EB0080628093EB00AA960FB6F894D4
:102F9000DEBF0FBECDBFDF91CF911F910895805846
:102FA000823028F780919A0390919B038C3D23E017
:102FB0009207A1F583E08A838AE289834FB7F89468
:102FC000DE01139620E03EE051E2E32FF0E0509363
:102FD0005700E49120FF03C0E295EF703F5FEF7070
:102FE0008E2F90E0EA30C0F0C7968D939D932F5FAF
:102FF000243159F74FBF8091E800877F8093E80024
:103000006AE270E0CE0101960E9450148091E800BF
:103010008B778093E800ABCFC096E7CFAE014F5FD0
:103020005F4F60919C030E949413BC01892B09F4AB
:103030009ECF9091E800977F9093E80089819A81D4
:103040000E94AE14E3CF803809F091CF8091E80060
:10305000877F8093E800809193038093F10033CFC2
:10306000811185CF90919A03923008F080CF8091A2
:10307000E800877F8093E800909393030E944115B6
:1030800080919303882311F084E005C08091E300D0
:1030900087FDFACF81E0809397030E94BE1267CF2D
:1030A00080919A03813009F062CF81E0933009F07A
:1030B00080E0809395031092E9008091E800877F7B
:1030C0008093E8000E94411552CF9093EA028093CA
:1030D000E90208958091E9029091EA020895E09151
:1030E000E902F091EA02309721F00190F081E02DA1
:1030F000099480E00895EF92FF920F931F93CF936E
:10310000DF938C01E091E902F091EA023097C1F17E
:103110000280F381E02D09958091810382FF30C008
:1031200080FF04C087E397E00E944807D0E0C0E03A
:1031300081E3E82E87E0F82E8091810380FF0EC0A6
:10314000F801EC0FFD1F80811F928F93FF92EF9289
:103150000E94E1070F900F900F900F902196C830BA
:10316000D10551F78091810380FF0AC08FE297E07B
:10317000DF91CF911F910F91FF90EF900C94480732
:10318000DF91CF911F910F91FF90EF900895E09103
:10319000E902F091EA02309721F00480F581E02DF8
:1031A00009940895CF93DF93EC018091E702909109
:1031B000E8028C179D0701F1D093E802C093E70263
:1031C000E091E902F091EA023097B1F00680F781D0
:1031D000E02DCE010995809181038570853061F4E1
:1031E000DF93CF9381E297E09F938F930E94E10753
:1031F0000F900F900F900F90DF91CF910895CF9384
:10320000DF93EC018091E5029091E6028C179D0717
:1032100001F1D093E602C093E502E091E902F0915A
:10322000EA023097B1F00084F185E02DCE010995D6
:10323000809181038570853061F4DF93CF9381E1C4
:1032400097E09F938F930E94E1070F900F900F904C
:103250000F90DF91CF9108950E9495250C941C0842
:103260003F924F925F926F927F928F929F92AF9216
:10327000BF92CF92DF92EF92FF920F931F93CF9363
:10328000DF9300D000D00F92CDB7DEB70E94570871
:103290008CEEC82E82E0D82E312C44244394512C3D
:1032A000832D0E942909E82EF60161906F016816AE
:1032B00009F444C08091810381FD0E94051A10E049
:1032C00000E06E24712CF12C5601F1E0AF1AB10828
:1032D000C301002E02C0959587950A94E2F780FFFE
:1032E00028C009833A824201002E02C0880C991C32
:1032F0000A94E2F797012821392181E0232B09F470
:1033000080E08B830E949E258160782F9D838C8333
:1033100049815A816B818D810E94391A49815A8174
:103320006B817C818D810E941A25F5018081882620
:1033300080820F5F1F4F0830110551F63394F8E07B
:103340003F12AECF8FEF89838A831B820E949E2516
:103350008160782F9D838C8349815A816B818D8117
:103360000E94391A0E9419250E941D290E946F1877
:103370009091EB02891779F10E946F188093EB020C
:10338000909181039570953061F41F928F9382E440
:1033900097E09F938F930E94E1070F900F900F90FB
:1033A0000F908091EB020F900F900F900F900F9065
:1033B000DF91CF911F910F91FF90EF90DF90CF9011
:1033C000BF90AF909F908F907F906F905F904F9045
:1033D0003F900C942B250F900F900F900F900F9013
:1033E000DF91CF911F910F91FF90EF90DF90CF90E1
:1033F000BF90AF909F908F907F906F905F904F9015
:103400003F9008950C9437090895EF92FF920F931F
:103410001F93CF93DF938BE597E00E944807D0E09E
:10342000C0E08DE2E82E81E0F82E0DE417E08C2F4D
:103430000E9429090E940125FF92EF921F928F930B
:10344000DF93CF931F930F930E94E10721968DB7CF
:103450009EB708960FB6F8949EBF0FBE8DBFC830BA
:10346000D10529F7DF91CF911F910F91FF90EF9038
:103470000895CF93DF93CDB7DEB72B970FB6F894AF
:10348000DEBF0FBECDBF4F83588769877A878B8792
:103490008A859B85892B21F0852F84238F3FD9F442
:1034A0001E821D8285E0FE013796DE011196019095
:1034B0000D928A95E1F749815A816B817C818D81DA
:1034C0009E812B960FB6F894DEBF0FBECDBFDF9165
:1034D000CF910C943A2169857A858B850E941A25B3
:1034E000DFCFCF93C82F882309F490C08CEF8C0FC7
:1034F000813A58F48C2F0E941B2C811187C08C2F8D
:103500000E942424CF910C94A72480E28C0F883051
:1035100048F4C77081E001C0880FCA95EAF70E949D
:103520006424F0CF8BE58C0F833068F481E890E061
:10353000C53A31F083E890E0C63A11F482E890E0B1
:10354000CF910C94D21888E58C0F853108F05EC0BD
:1035500082EE90E0C83A09F456C089EE90E0C93A8C
:1035600009F451C08AEE90E0CA3A09F44CC085EBE8
:1035700090E0CB3A09F447C086EB90E0CC3A09F4EE
:1035800042C083EB90E0CD3AF1F184EB90E0CE3A8B
:10359000D1F187EB90E0CF3AB1F18CEC90E0C13BF8
:1035A00091F18DEC90E0C03B71F183E891E0C23B7A
:1035B00051F18AE891E0C33B31F182E991E0C43BEB
:1035C00011F184E991E0C53BF1F081E292E0C63B64
:1035D000D1F083E292E0C73BB1F084E292E0C83BD5
:1035E00091F085E292E0C93B71F086E292E0CA3B3D
:1035F00051F087E292E0CB3B31F090E080E0CC3BB1
:1036000011F48AE292E0CF910C94FF18CF910895C3
:10361000882329F19CEF980F913A20F40E944124CD
:103620000C94A72490E2980F983050F4877091E0A2
:1036300001C0990F8A95EAF7892F0E946A24F0CF7A
:103640009BE5980F933020F490E080E00C94D21822
:10365000885A853120F490E080E00C94FF1808959A
:10366000882321F00E9464240C94A72408958823C1
:1036700021F00E946A240C94A7240895AF92BF926F
:10368000CF92DF92EF92FF920F931F93CF93DF932E
:1036900000D000D00F92CDB7DEB75C0185E0F50118
:1036A000DE01119601900D928A95E1F7F501838173
:1036B0009481009739F040815181252F24232F3F99
:1036C00009F0DDC20F900F900F900F900F90DF91D7
:1036D000CF911F910F91FF90EF90DF90CF90BF900F
:1036E000AF900895F12FFF70EF2E107F19F0E29444
:1036F00040EFE422FF20C9F0EE2029F08E2D0E9439
:1037000077240E94A724802F0F900F900F900F9086
:103710000F90DF91CF911F910F91FF90EF90DF906D
:10372000CF90BF90AF900C94711A802F0E94081B0D
:10373000EE2041F28E2D0E947D240F900F900F906D
:103740000F900F90DF91CF911F910F91FF90EF900D
:10375000DF90CF90BF90AF900C94A724812F8F70F3
:10376000D82E107F103219F0D29430EFD3220023DC
:1037700079F0013009F452C0FF2009F460C0EE2056
:1037800059F0F501858180FFBECF8F70858304C01D
:10379000FF2049F1E11012C08D2D0F900F900F9076
:1037A0000F900F90DF91CF911F910F91FF90EF90AD
:1037B000DF90CF90BF90AF900C94301BE1E08D2D47
:1037C000EE12EBCF0F900F900F900F900F90DF91B4
:1037D000CF911F910F91FF90EF90DF90CF90BF900E
:1037E000AF900C948724E11014C00E9490248D2D7A
:1037F0000F900F900F900F900F90DF91CF911F912E
:103800000F91FF90EF90DF90CF90BF90AF900C940E
:10381000371BF1E0EF1609F455CFE7CFFF2051F049
:1038200082E08E1508F44ECF0E9461248D2109F4A8
:10383000B3CFDDCFE1E0EE1508F444CFD8CFEE20D2
:10384000B1F2802F0F900F900F900F900F90DF919B
:10385000CF911F910F91FF90EF90DF90CF90BF908D
:10386000AF900C94081B812F869586958370D1F0BC
:10387000813009F027CFC8019370F11002C090E0A9
:1038800080E00F900F900F900F900F90DF91CF91ED
:103890001F910F91FF90EF90DF90CF90BF90AF906E
:1038A0000C94FF18C8019370F11002C090E080E002
:1038B0000F900F900F900F900F90DF91CF911F916D
:1038C0000F91FF90EF90DF90CF90BF90AF900C944E
:1038D000D218802FFF2099F00E94A9270F900F90F7
:1038E0000F900F900F90DF91CF911F910F91FF904C
:1038F000EF90DF90CF90BF90AF900C9490280E94F3
:103900001128ECCF812F837009F071C0F110DACE4D
:10391000202F229526952770220F220F602F6F707F
:10392000C62ED12CF12CE12C022E04C0CC0CDD1CB7
:10393000EE1CFF1C0A94D2F760E070E0CB0104FF9C
:103940000FC06FE070E080E090E004C0660F771F6A
:10395000881F991F2A95D2F760957095809590954C
:103960001695169513701230C1F060F56C297D29FB
:103970008E299F29113051F10F900F900F900F90C9
:103980000F90DF91CF911F910F91FF90EF90DF90FB
:10399000CF90BF90AF900C9498226C297D298E29EE
:1039A0009F290F900F900F900F900F90DF91CF9164
:1039B0001F910F91FF90EF90DF90CF90BF90AF904D
:1039C0000C94B2220E949822C701B6010F900F906A
:1039D0000F900F900F90DF91CF911F910F91FF905B
:1039E000EF90DF90CF90BF90AF900C947E228695A1
:1039F000FF2011F0812F8170882309F463CE202FDE
:103A0000229526952770220F220F602F6F70C62EE9
:103A1000D12CF12CE12C022E04C0CC0CDD1CEE1CB0
:103A2000FF1C0A94D2F760E070E0CB0104FF0FC0E6
:103A30006FE070E080E090E004C0660F771F881FA1
:103A4000991F2A95D2F76095709580959095169557
:103A5000169513701230C1F060F56C297D298E29FE
:103A60009F29113051F10F900F900F900F900F90F0
:103A7000DF91CF911F910F91FF90EF90DF90CF904A
:103A8000BF90AF900C945D236C297D298E299F29CE
:103A90000F900F900F900F900F90DF91CF911F918B
:103AA0000F91FF90EF90DF90CF90BF90AF900C946C
:103AB0006F230E945D23C701B6010F900F900F90F6
:103AC0000F900F90DF91CF911F910F91FF90EF908A
:103AD000DF90CF90BF90AF900C944B23003F09F440
:103AE00044C060F480E4800F803228F1FF2009F4A4
:103AF00095C0E11008CE812F8F7159C0023F09F4A3
:103B000067C008F450C0033F89F7FF2009F475C06F
:103B1000812F8F710F900F900F900F900F90DF916A
:103B2000CF911F910F91FF90EF90DF90CF90BF90BA
:103B3000AF900C94D122812F8F71102F1071FF2024
:103B400051F00E94E622802F8295807F111125CEB0
:103B5000802F8F7022CE0E940723802F8295807F36
:103B6000111146CE802F8F7043CEFF20B9F0F1E0C7
:103B7000FE1508F4A7CD812F8F710F900F900F9035
:103B80000F900F90DF91CF911F910F91FF90EF90C9
:103B9000DF90CF90BF90AF900C942A2382E08E15D7
:103BA00008F490CDE8CF812F8F71FF20A9F00F90FE
:103BB0000F900F900F900F90DF91CF911F910F9169
:103BC000FF90EF90DF90CF90BF90AF900C94E622E3
:103BD000812F8F71FF2059F30F900F900F900F904E
:103BE0000F90DF91CF911F910F91FF90EF90DF9099
:103BF000CF90BF90AF900C9407230F900F900F9031
:103C00000F900F90DF91CF911F910F91FF90EF9048
:103C1000DF90CF90BF90AF900C94CC22E11011CEEA
:103C2000812F8F71D9CF412F4F70602FC5010E9416
:103C3000EA070F900F900F900F900F90DF91CF91A8
:103C40001F910F91FF90EF90DF90CF90BF90AF90BA
:103C50000C94D421412F4F70602FC5010F900F900D
:103C60000F900F900F90DF91CF911F910F91FF90C8
:103C7000EF90DF90CF90BF90AF900C944226F280EF
:103C8000E580E2942FE0E222782F9D838C836F2DD4
:103C90008D810E9482238C010E9481230E947322C5
:103CA000E12FE295EF70F0E0E85BF04D0C94ED2E23
:103CB0000E9484240E9453240E94A7240E94BE29AB
:103CC0000E94902890E080E00E94D21890E080E06E
:103CD0000C94FF180E9474240C94581ECF93DF9309
:103CE00000D000D00F92CDB7DEB76B837C838D837D
:103CF0008C819D81892B21F0842F85238F3F89F42E
:103D000080E02EC090E2980F983008F1883E30F4A1
:103D1000803EE8F48450813A98F719C0803F81F7DB
:103D200016C06B817C818D810E948223292F229570
:103D30002F702C3070F42A3048F722502F70223028
:103D4000F8F6853AF8F6843010F48230F8F681E01F
:103D500007C02C3011F02F3099F693FB882780F99B
:103D60000F900F900F900F900F90DF91CF910895CB
:103D7000CF93DF9300D000D00F92CDB7DEB70F9076
:103D80000F900F900F900F90DF91CF910895CF93E8
:103D9000DF9300D000D000D0CDB7DEB726960FB6A7
:103DA000F894DEBF0FBECDBFDF91CF9108951F9372
:103DB000CF93DF93C091F40216E08091F5028C134B
:103DC00004C0DF91CF911F910895D0E01C9FF001B6
:103DD0001D9FF00D1124EA50FD4F408151816281F9
:103DE0007381848195810E94C71E2196C770E5CF9B
:103DF0004091260350912703609128037091290375
:103E000080912A0390912B030C94C71E1F93CF938C
:103E1000DF9380912B03807FC1F480912803882356
:103E2000A1F08091F402C091F50260912603709197
:103E300027034091290350912A03D62FD723DA0173
:103E4000A095B09516E0C81304C0DF91CF911F91E3
:103E5000089590E04115510511F0DF3F31F40196CE
:103E60008770F1CF2A0F3B1F17C0189FF001199FD1
:103E7000F00D1124EA50FD4F21812713F0CF20814E
:103E80002613EDCF22812111EACF2381348124171B
:103E9000350740F3241B350B2C32314000F72091BD
:103EA0002B032F70206120932B0326E0289FF00125
:103EB000299FF00D1124E550FD4F80818F708061A6
:103EC000808386E293E00E943E1BDF91CF911F9199
:103ED0000C94D71EBF92CF92DF92EF92FF920F9376
:103EE0001F93CF93DF93CDB7DEB761970FB6F894EA
:103EF000DEBF0FBECDBF6C0185E0F601DE011D9671
:103F000001900D928A95E1F7D6014C9111965C9142
:103F100011971296FC90129713960D911C91809117
:103F2000290390912A03009709F48FC12091260359
:103F300030912703622F63236F3F09F486C1B0904D
:103F40002803BB2009F41FC10817190758F0F8010E
:103F5000E81BF90BCF01EE24E3948C32914058F02A
:103F6000E12C09C080959095800F911FEE24E39479
:103F70008C329140A8F780912B03982F907FEE20F0
:103F800009F4B7C091117CC0EF2C351324C0241361
:103F900022C0F11020C08F70806180932B030E949B
:103FA000F81E86E293E00E943E1B80912B03D6010F
:103FB00015968C938E2D61960FB6F894DEBF0FBECA
:103FC000CDBFDF91CF911F910F91FF90EF90DF90C8
:103FD000CF90BF9008950115110529F0852F8423F6
:103FE0008F3F09F044C180E0B82FB170BB2E80FF35
:103FF0003DC08091F4022091F50236E0821316C094
:10400000702F198B088B6F2D89890E948223292F8D
:1040100022952F702230F0F0243018F59F70F1F0C7
:10402000F6019581907FD1F4B12C1EC090E0389FAD
:10403000F001399FF00D1124EA50FD4F61816513A5
:1040400006C06081641303C06281F6120FC001963E
:104050008770D4CF9F7011F0882331F3805E883051
:1040600018F3C6010E943E1BEB2CA4CFFF2009F4DD
:10407000A1CF80912B03816080932B03E12C9ACFF9
:10408000351306C0241304C0D601FF2009F4AFC0C5
:104090004D875E87FF86702F198B088B6F2D89895E
:1040A0000E946E1E882309F4DEC0FF2009F4DBC0E5
:1040B00080912B03803270F02091260330912703EA
:1040C00038872F8319861B870A878C87CE0107962E
:1040D0000E943E1B86E0F601A6E2B3E001900D923D
:1040E0008A95E1F70E94061F0E94F81EEE24E394D1
:1040F00061CF911113C0702F198B088B6F2D898997
:104100000E94B81E86E293E00E943E1B86E0E6E233
:10411000F3E0DF011D928A95E9F776C0351311C0EF
:1041200024130FC0F1100DC0F6018583C6010E9453
:104130003E1BE6E2F3E086E0DF011D928A95E9F797
:1041400093CF4D875E87FF86702F198B088B6F2D5D
:1041500089890E946E1E882309F485C0FF2009F416
:1041600082C080912B03803208F4B4CF20912603C3
:10417000309127033A8329831B821D830C838E830E
:10418000CE010196A5CF0817190780F0F801E81BAA
:10419000F90BCF018C32914080F0E12C702F198BFC
:1041A000088B6F2D89890E94B81EB0CF809590959D
:1041B000800F911F8C32914080F7EF2CFF2009F483
:1041C00052C035132DC024132BC080912B0380FDCA
:1041D0001EC0982F907FD9F0D60115968C93159715
:1041E000903F39F0982F907F905F8F70892B1596B4
:1041F0008C93C6010E943E1B86E0F601A6E2B3E066
:1042000001900D928A95E1F70E94F81ED3CE86E0C8
:10421000F601A6E2B3E001900D928A95E1F7CACECD
:104220004D875E87FF86702F198B088B6F2D8989CC
:104230000E946E1E81114ECF80912B03816080936E
:104240002B03C6010E943E1BB5CEFF2061F04D87B7
:104250005E87FF86702F198B088B6F2D89890E94CE
:104260006E1E811137CFC6010E943E1B3FCF81E0F9
:104270008F25BACE1F93CF93DF93CDB7DEB72C97A0
:104280000FB6F894DEBF0FBECDBF4F835887698746
:104290007A878B879C87CE0107960E946A1F8823A6
:1042A00069F08A859B85892B39F04F815885842F49
:1042B00085238F3F09F071C016E05FC086E0FE01E4
:1042C0003796DE01119601900D928A95E1F78A8565
:1042D0009B85892B89F388859F8189238F3F61F393
:1042E0002091F50230E0C90101968770992740912D
:1042F000F4024817190671F40E946A1E1092F50222
:104300001092F40286E0E6E2F3E0DF011D928A9566
:10431000E9F7D2CF96E0929FD001939FB00D112480
:10432000AA50BD4FFE01319601900D929A95E1F78A
:104330008093F5020E94D71EBFCF819FC001112438
:104340008A509D4F0E946A1F8823E9F0E091F40291
:104350001E9FF0011124EA50FD4F4081518162817E
:104360007381848195810E94C71E8091F40290E040
:104370000196877099278093F4028091F4029091BE
:10438000F5028913DACF2C960FB6F894DEBF0FBE74
:10439000CDBFDF91CF911F91089569857A858B8577
:1043A0009C850E94C71E88CFDF92EF92FF920F93E9
:1043B0001F93CF93DF938C01892BB9F0E12CF12C63
:1043C000DD24D394E8012196F8018491853709F41E
:1043D0006AC098F4843708F059C0843008F06FC080
:1043E000813011F1823009F43CC0DF91CF911F91EF
:1043F0000F91FF90EF90DF900895883709F45CC02B
:1044000058F4863709F454C0873779F78E2D0E9407
:1044100071240E94A7241FC09CE7980F903728F7AB
:104420008F770E94081B17C00E5F1F4FFE018491FB
:1044300090E2980F983060F48770FD2D01C0FF0F57
:104440008A95EAF78F2F0E9477240E94A72402C042
:104450000E94711AE8018F2D815008F033C08E013F
:10446000B1CF0E5F1F4FFE01849190E2980F9830FC
:1044700050F48770FD2D01C0FF0F8A95EAF78F2F4A
:104480000E947D24E2CF0E94081BE4CF0E5F1F4FE5
:10449000FE01C491C150F0F28FE99FE00197F1F75E
:1044A00000C00000F7CF0E5F1F4FFE01F490D2CF87
:1044B0000E946124E82ECFCF0E947424AACF0E94CC
:1044C000711AC9CFEFE9FFE03197F1F700C00000A2
:1044D000C3CF60936C0370936D0380936E039093CE
:1044E0006F030C942A2508956093700370937103F1
:1044F00080937203909373030C9429250F931F9359
:104500000091700310917103209172033091730335
:10451000602B712B822B932B60937003709371032C
:1045200080937203909373031F910F910C9429252C
:104530000F931F93009170031091710320917203E8
:10454000309173036023712382239323609370035C
:104550007093710380937203909373031F910F9173
:104560000C9429250F931F930091700310917103F0
:10457000209172033091730360277127822793275C
:10458000609370037093710380937203909373032D
:104590001F910F910C94292560E070E0CB010C94E1
:1045A00069220F931F9341E050E060E070E08A01C0
:1045B0009B0104C0000F111F221F331F8A95D2F7E1
:1045C000C901B8011F910F910C9469220F931F9399
:1045D00041E050E060E070E004C0440F551F661FEA
:1045E000771F8A95D2F780916C0390916D03A0910B
:1045F0006E03B0916F038A019B01082B192B2A2BA4
:104600003B2BC901B8011F910F910C9469220F93A4
:104610001F9341E050E060E070E004C0440F551F7C
:10462000661F771F8A95D2F7CB01BA016095709506
:104630008095909500916C0310916D0320916E030D
:1046400030916F0360237123822393231F910F9175
:104650000C9469220F931F9341E050E060E070E0FA
:1046600004C0440F551F661F771F8A95D2F78091AB
:104670006C0390916D03A0916E03B0916F038A015A
:104680009B01082719272A273B27C901B8011F9139
:104690000F910C9469220F931F9300916C0310915A
:1046A0006D0320916E0330916F03602B712B822B71
:1046B000932B1F910F910C9469220F931F930091DC
:1046C0006C0310916D0320916E0330916F03602392
:1046D0007123822393231F910F910C9469220F93CE
:1046E0001F9300916C0310916D0320916E03309124
:1046F0006F0360277127822793271F910F910C94D6
:10470000692208954F925F926F927F929F92AF922B
:10471000BF92CF92DF92EF92FF920F931F93CF93AE
:10472000DF9300D000D00F92CDB7DEB749835A8314
:104730006B837C838D838C819D81892B29F07A0109
:104740008F2D84238F3F51F590E080E00F900F90E4
:104750000F900F900F90DF91CF911F910F91FF90CD
:10476000EF90DF90CF90BF90AF909F907F906F9031
:104770005F904F900895B7018A2D0E94602601979F
:10478000C1F13CC0F80183E0EE0FFF1F8A95E1F70D
:10479000E45DFC4FEC0DFD1D90803BC00F2D10E043
:1047A000C42ED12C8B81882369F340906C035090E8
:1047B0006D0360906E0370906F0380917003909111
:1047C0007103A0917203B0917303482A592A6A2A8F
:1047D0007B2A2FE1A22EB12C9A2CD301C2010A2CE4
:1047E00004C0B695A795979587950A94D2F780FD52
:1047F000C2CF81E0A81AB10878F7912CF80193E0B4
:10480000EE0FFF1F9A95E1F7E45DFC4FEC0DFD1DE7
:104810009082E982FA8269817A81892D0F900F90C6
:104820000F900F900F90DF91CF911F910F91FF90FC
:10483000EF90DF90CF90BF90AF909F907F906F9060
:104840005F904F900C9460262091210130912201BD
:10485000F90132969FEF40E05191851751F09F3F4B
:1048600019F4511101C0942F4F5F4630A9F79F3FB3
:1048700009F40895290F311D97FD3A95F9018283B6
:1048800008952091210130912201F9013296285F8B
:104890003F4F9191891303C0DF0111971C92E217DA
:1048A000F307B9F7089581E090E0E0912101F091DC
:1048B0002201E80FF91F1082019688309105A9F7AF
:1048C000089580918003089590918003892B8093AF
:1048D000800308958095909180039823909380039E
:1048E0000895809380030895109280030895909115
:1048F0007F03892B80937F030895809590917F0398
:10490000982390937F03089510927F0308958093D6
:1049100076030E949E2590937503809374030895F7
:1049200010927603109275031092740308952091EB
:10493000210130912201F9013196285F3F4F80E03B
:10494000919191118F5FE217F307D1F70895E091EC
:104950002101F0912201809180038083E091210167
:10496000F0912201808190917F03892B8083809137
:104970007603882381F10E949E2520917403309153
:1049800075038217930768F10E949E252091740396
:1049900030917503821B930B8C32914070F08091A3
:1049A000810380FF08C089E697E09F938F930E9460
:1049B000E1070F900F900E949024E0912101F09167
:1049C0002201808190917603892B80830E94972415
:1049D00081110E94902480912101909122010C94D8
:1049E0007B180E949E2520917403309175032095B9
:1049F0003095820F931FD0CF90939B0180939A01A3
:104A00000895829590E09C01220F331F220F331FDF
:104A10002C7C95958795959587958373282B30E009
:104A2000C901880F991F8A7A359527952575822B9C
:104A300008950895CF93DF9300D000D00F92CDB7A3
:104A4000DEB70F900F900F900F900F90DF91CF91E6
:104A50000895089508950C94021A80919703843064
:104A600021F11092820388E190E020E40FB6F894DF
:104A7000A895809360000FBE2093600083B7817F6C
:104A8000846083BF83B7816083BF7894889583B740
:104A90008E7F83BF0FB6F894A895809160008861DF
:104AA00080936000109260000FBE0895CF930E9423
:104AB00033090E9457080E943509C0E08C2F0E94DC
:104AC0002909811105C0CF5FC830C1F7CF91089582
:104AD00081E0FCCF0E94041A0C946A1E1F921FB63C
:104AE0001F9211248F939F93AF93BF938091820362
:104AF000811113C08091830390918403A091850359
:104B0000B09186034196A11DB11D809383039093BC
:104B10008403A0938503B0938603BF91AF919F91C7
:104B20008F911F901FBE1F90189582E084BD93E067
:104B300095BD9AEF97BD80936E0008952FB7F894B6
:104B40008091830390918403A0918503B0918603A3
:104B50002FBF08952FB7F894609183037091840359
:104B600080918503909186032FBF0895CF92DF92A5
:104B7000EF92FF920F931F932FB7F8944091830306
:104B80005091840360918503709186032FBF6A0161
:104B90007B01EE24FF248C0130E020E0C016D1061A
:104BA000E206F30650F0481B590BCA011F910F9102
:104BB000FF90EF90DF90CF90089541505109F3CFCF
:104BC000AB01BC012FB7F8948091830390918403CB
:104BD000A0918503B09186032FBF84179507A60780
:104BE000B70738F0841B950BA60BB70BBC01CD01A2
:104BF00008950197A109B109F5CF1F921FB61F9221
:104C000011248F939F93AF93BF93809183039091CF
:104C10008403A0918503B09186030196A11DB11D67
:104C20008093830390938403A0938503B0938603BA
:104C3000BF91AF919F918F911F901FBE1F901895AC
:104C40000E948F15F8942FEF87EA91E6215080405B
:104C50009040E1F700C0000087E090EBDC0180931A
:104C6000A0039093A103A093A203B093A30388E1B0
:104C70009CE00FB6F894A895809360000FBE9093C7
:104C80006000FFCF089528E0829FC0011124FC013D
:104C9000E70FF11D83E0EE0FFF1F8A95E1F7E60FA6
:104CA000F11DEF5AFE4F84910895282F205C330B9D
:104CB000F901EE0FFF1FED5BFE4F85919491089572
:104CC0000E944326282F30E0A901405C5109403260
:104CD000510510F40C9455268D3B60F4883A90F5FC
:104CE000853A18F58430F8F4813009F4ACC090E0CE
:104CF00080E00895883E90F4803EA8F48F3BB9F799
:104D00000E946A1E2FEF80E792E021508040904081
:104D1000E1F700C000000E942026E9CF803F38F371
:104D2000C90190650895C9010895853A29F0863A28
:104D300031F083E890E4089581E890E4089582E8F2
:104D400090E40895883A09F43FC0893A09F43FC0D5
:104D50008A3A09F43FC08B3A09F43FC08C3A09F40F
:104D60003FC08D3A09F43FC08E3A09F43FC08F3AF4
:104D700009F43FC0813B09F43FC0803B09F43FC0C8
:104D8000823B09F43FC0833B09F43FC0843B09F4F4
:104D90003FC0853B09F43FC0863B09F43FC0873BD9
:104DA00009F43FC0883B09F43FC0893B09F43FC088
:104DB0008A3B09F43FC08B3B09F43FC08C3B09F4AC
:104DC0003FC080E094E4089582EE94E4089589EE73
:104DD00094E408958AEE94E4089585EB94E40895AC
:104DE00086EB94E4089583EB94E4089584EB94E4D3
:104DF000089587EB94E408958CEC94E408958DEC89
:104E000094E4089583E895E408958AE895E4089584
:104E100082E995E4089584E995E4089581E296E4B1
:104E2000089583E296E4089584E296E4089585E285
:104E300096E4089586E296E4089587E296E408955C
:104E40008AE296E4089581E090E0089580918A03D3
:104E500080FF12C06091260185E0689FB001112497
:104E6000759567957595679560387105A8F5611515
:104E70007105A1F1862F089581FF09C06091260177
:104E800085E0689FB001112475956795EDCF60911D
:104E9000260182FD0AC080918B038823D1F0909176
:104EA000250160912601891728F085E0689FB001EF
:104EB0001124DACF869FB001112485E0869F9001EE
:104EC000879F300D1124692F70E0C9010E94B72E11
:104ED000CBCF65E070E0CECF8FE7089581E00895F5
:104EE00080918A0380FF0CC06091240170E0759569
:104EF0006795759567956115710549F1862F089538
:104F000081FF06C06091240170E075956795F3CF2D
:104F10006091240182FD0BC090918B039923A1F035
:104F20006091230180912401961738F0682F70E07A
:104F30006038710500F38FE70895899FC00111243F
:104F400070E00E94B72EF4CF61E070E0D7CF81E02F
:104F50000895803F31F40E942627819580938E0327
:104F60000895813F19F40E942627F8CF823F31F43B
:104F70000E942627819580938D030895833F19F41D
:104F80000E942627F8CF893F29F40E94702780933A
:104F90008F0308958A3F21F40E9470278195F7CFEF
:104FA0008B3F31F40E947027819580939003089580
:104FB0008C3F19F40E947027F8CF843F31F4809120
:104FC0008C03816080938C030895853F21F4809148
:104FD0008C038260F7CF863F21F480918C0384603C
:104FE000F1CF873F21F480918C038860EBCF883F1D
:104FF00021F480918C038061E5CF8D3F31F4809165
:105000008A03816080938A0308958E3F21F4809102
:105010008A038260F7CF8F3FB9F780918A0384605B
:10502000F1CF90918D03803F41F480918E0387FDF5
:1050300010928E03992371F00895813F29F4809195
:105040008E031816ACF3F6CF823F81F497FFF2CFB0
:1050500010928D0380918E0390918F03892B9091F4
:105060009003892B49F710928B030895833F19F41D
:10507000191674F3DFCF893F39F480918F03181626
:10508000CCF610928F03D6CF8A3F29F480918F03FC
:1050900087FFD0CFF6CF8B3F39F48091900387FF05
:1050A000C9CF10929003C6CF8C3F29F48091900312
:1050B0001816BCF3BFCF843F31F480918C038E7FF0
:1050C00080938C03B7CF853F21F480918C038D7F33
:1050D000F7CF863F21F480918C038B7FF1CF873F00
:1050E00021F480918C03877FEBCF883F21F480915E
:1050F0008C038F7EE5CF8D3F31F480918A038E7FC4
:1051000080938A0397CF8E3F21F480918A038D7F0D
:10511000F7CF8F3F09F08ECF80918A038B7FF0CF3E
:105120008091810383FF7EC082EA97E00E94480756
:1051300080918C031F928F938DE997E09F938F93BB
:105140000E94E1078BE997E00E94480780918D0358
:10515000282F082E000C330B3F938F9388E997E09C
:105160009F938F930E94E10786E997E00E9448078A
:1051700080918E03282F082E000C330B3F938F93C2
:1051800083E997E09F938F930E94E10781E997E07D
:105190000E94480780918F03282F082E000C330BA4
:1051A0003F938F938EE897E09F938F930E94E10740
:1051B0008CE897E00E94480780919003282F082EE2
:1051C000000C330B3F938F9389E897E09F938F9365
:1051D0000E94E10786E897E00E94480780918B03D0
:1051E0001F928F9383E897E09F938F930E94E1072C
:1051F00081E897E00E94480780918A031F928F936D
:105200008EE797E09F938F930E94E1078BE797E0EB
:105210000E9448078DB79EB74C960FB6F8949EBF74
:105220000FBE8DBF8CE893E00E94C7180E949E2598
:10523000909388038093870308951F93CF93DF9300
:1052400080918703909188030E94B625AC019091CC
:105250008B032091270130E0911106C02091890332
:105260008AE0289F900111244217530778F020917B
:105270008D03C0918E03D0918F0310919003211163
:1052800009C08C2F8D2B812B09F074C0DF91CF9139
:105290001F9108959F3F19F09F5F90938B03121603
:1052A00024F40E94262780938D0380918D0387FF2D
:1052B00005C00E942627819580938D031C1624F437
:1052C0000E94262780938E0380918E0387FF05C05E
:1052D0000E942627819580938E0360918D0366231B
:1052E00031F1C0918E03CC2311F1062E000C770B07
:1052F000880B990B0E949E2D23E333E343E35FE386
:105300000E94022E0E94662D60938D036C2FCC0F9D
:10531000770B880B990B0E949E2D23E333E343E325
:105320005FE30E94022E0E94662D60938E031D167D
:1053300024F40E94702780938F0380918F0387FF4E
:1053400005C00E947027819580938F03111624F465
:105350000E947027809390038091900387FF05C07F
:105360000E947027819580939003DF91CF911F91C8
:105370000C9490289F3F09F08FCFA0CF85E0ECE8F8
:10538000F3E0DF011D928A95E9F710928B031092EA
:105390008A03089585EC99E00E9448071F9281E0F6
:1053A0008F931F9285E08F9387E799E09F938F9368
:1053B0000E94E1070F900F900F900F900F900F90A9
:1053C0000895833009F445C028F4813061F08230BB
:1053D00049F10895853009F46AC008F451C0863057
:1053E00009F47CC0089580918903482F460F552702
:1053F000551F4F3F510594F4680F609389038091C6
:1054000089031F928F9380EB98E09F938F930E9464
:10541000E1070F900F900F900F9008958FEF8093FA
:105420008903EDCF80912701482F460F5527551F3F
:105430004F3F510554F4680F609327018091270175
:105440001F928F938EE998E0E0CF8FEF8093270132
:10545000F5CF80912601482F460F5527551F4F3F06
:10546000510554F4680F60932601809126011F9224
:105470008F938BE898E0C9CF8FEF80932601F5CF0B
:1054800080912501482F460F5527551F4F3F510545
:1054900054F4680F60932501809125011F928F932A
:1054A00086E798E0B2CF8FEF80932501F5CF80910A
:1054B0002401482F460F5527551F4F3F510554F4DF
:1054C000680F60932401809124011F928F938DE5D2
:1054D00098E09BCF8FEF80932401F5CF809123013B
:1054E000482F460F5527551F4F3F510554F4680F5D
:1054F00060932301809123011F928F9382E498E0AF
:1055000084CF8FEF80932301F5CF8330C9F128F446
:10551000813061F0823019F10895853009F452C06C
:1055200008F43FC0863009F45EC008958091890375
:10553000681790F4861B80938903809189031F92DA
:105540008F9383E398E09F938F930E94E1070F90DE
:105550000F900F900F90089510928903EECF8091D5
:105560002701681750F4861B80932701809127013B
:105570001F928F9381E298E0E6CF10922701F6CF39
:1055800080912601681750F4861B80932601809134
:1055900026011F928F938EE098E0D5CF10922601BE
:1055A000F6CF80912501681750F4861B8093250162
:1055B000809125011F928F9389EF97E0C4CF1092BD
:1055C0002501F6CF80912401681750F4861B809343
:1055D0002401809124011F928F9380EE97E0B3CF36
:1055E00010922401F6CF80912301681750F4861B96
:1055F00080932301809123011F928F9385EC97E084
:10560000A2CF10922301F6CFCF93C82F1F928F9372
:105610008AEC9AE09F938F930E94E10761E070E02B
:1056200080E090E004C0660F771F881F991FCA951D
:10563000D2F70E9474220F900F900F900F90CF918D
:105640000C946A1E8732D8F58E3108F0F2C08E3085
:1056500009F48EC078F4873009F471C08B3009F4F6
:1056600058C0863009F45AC089E89BE00E94480778
:1056700080E00895863109F4A5C078F48031A1F75F
:1056800090918103892F877F93FF886080938103A6
:1056900083FF7EC083E09DE062C0893109F47BC056
:1056A0008B3111F790918103892F8D7F91FF82605B
:1056B0008093810381FF59C08CE39DE050C0883303
:1056C00041F150F4893221F0853311F0873261F6CF
:1056D00080E00E94042B1BC08334D1F320F48A3372
:1056E00018F28953F6CF883409F0BECF0E946A1EA3
:1056F00082E69DE00E9448072FEF83ED90E3215062
:1057000080409040E1F700C000000E94202681E028
:10571000089586EF9AE00E944807F9CF80918103AF
:10572000807F809381038FEC9AE00E94480783E793
:105730009DE00E94480781E0809392030895809144
:10574000810380FF0AC085E59DE00E9448078091A3
:105750008103807F80938103DACF89E49DE00E94FA
:105760004807809181038160F5CF8EE29DE0D3CF21
:1057700090918103892F8B7F92FF846080938103B6
:1057800082FF03C08FE19DE0EACF8FE09DE0C3CFB1
:1057900086EF9CE0C0CF87EE9CE00E9448078AEB32
:1057A0009CE00E94480783E89CE00E94480785E54A
:1057B0009CE00E9448078FE19CE00E94480784EF2C
:1057C0009BE0A9CF86EE9BE00E9448070E946F18DD
:1057D0001F928F938CEC9BE09F938F930E94E10725
:1057E000809120011F928F9385EB9BE09F938F9375
:1057F0000E94E1078091E4021F928F9382EA9BE06E
:105800009F938F930E94E1070E94AA259F938F93F5
:105810007F936F938BE89BE09F938F930E94E107A8
:105820008DB79EB742960FB6F8949EBF0FBE8DBF40
:105830006ECF8D514ECFCF93C82F80919203813080
:10584000D9F0882339F0823009F44DC010929203C8
:1058500080E010C0E0912101F0912201808182322C
:10586000B9F78C2F0E946C0C81111EC08C2F0E94E6
:10587000222B8170CF910895E0912101F0912201B6
:105880008081823271F38C2F0E94BC0E81111BC06B
:10589000C431D9F060F4CB3071F0C031D1F080EC7C
:1058A0009AE00E94480713C081E090E0E2CFC9323D
:1058B00061F0C833A1F78FEC9AE00E94480786ECAC
:1058C0009AE00E94480781E0D4CF1092920380E0D2
:1058D000D0CF0E94CA2982EC9AE00E94480782E059
:1058E00080939203F0CFC432C8F4CE3108F0BEC02A
:1058F000CB30E1F040F4C73009F4CFC084E699E042
:105900000E94480726C0C331C1F1C431B9F7809164
:105910009103882351F1109291030AC0CB3409F40A
:10592000BAC0C8F4C93299F3C83341F70E94CA29F2
:1059300080919103882309F4C6C01F928F938EE54E
:1059400099E09F938F930E94E1070F900F900F9023
:105950000F9081E08FCFC13509F497C0C23509F4AB
:105960008EC0CE3459F66AE091C083E799E00E9478
:10597000480781E0809392037DCF8DE499E00E94F7
:1059800048078BE399E00E944807809189031F92A2
:105990008F9388E399E09F938F930E94E10786E3BA
:1059A00099E00E94480784E299E00E9448078091AC
:1059B00027011F928F9381E299E09F938F930E941A
:1059C000E1078FE199E00E94480780E199E00E9499
:1059D0004807809126011F928F938DE099E09F9355
:1059E0008F930E94E1078BE099E00E9448078AEFBD
:1059F00098E00E944807809125011F928F9387EFBE
:105A000098E09F938F930E94E10785EF98E00E94B2
:105A1000480780EE98E00E944807809124011F9279
:105A20008F938DED98E09F938F930E94E1078BED0C
:105A300098E00E94480784EC98E00E944807809113
:105A400023011F928F9381EC98E09F938F930E9484
:105A5000E1078FEB98E00E9448078DB79EB7489604
:105A60000FB6F8949EBF0FBE8DBF62CFCE51EC2F04
:105A7000F0E0E157FE4F80818093910359CF61E0C0
:105A8000809191030E94E12953CF61E080919103BD
:105A90000E94852A4DCF6AE0F3CF1092890384E1FA
:105AA0008093270184E0809326018FE08093250175
:105AB00088E08093240188E28093230186E699E0C0
:105AC0000E94480735CF8BE599E01ACF0E946D2DD3
:105AD0006894B1110C94FC2D08950E94E12D88F07A
