:100000000C9420070C9464070C9464070C94640708
:100010000C9464070C9464070C9464070C946407B4
:100020000C9464070C9464070C948C160C945E1763
:100030000C943F260C9464070C9464070C9464079A
:100040000C9464070C9464070C9464070C94640784
:100050000C9464070C94DE260C9464070C946407DB
:100060000C9464070C94D7090C9464070C946407EF
:100070000C9464070C9464070C9464070C94640754
:100080000C9464070C9464070C9464070C94640744
:100090000C9464070C9464070C9464070C94640734
:1000A0000C9464070C9464070C9464070A0F0F0FF8
:1000B000140F190F1E0F230F280F2D0F320F370F9C
:1000C0003C0F410F460F4B0F500F550F5A0F5F0F4C
:1000D000640F690F6E0F730F780F7D0F820F870FFC
:1000E0008C0F910F960F9B0FA00FA50FAA0FAF0FAC
:1000F000B40FB90F080F0310BE0FC00FC20FC40F0B
:10010000C90FCE0FD30FD80FDD0FE10FE60FEB0FA6
:10011000F00FF50FFA0F011001100110011001107E
:100120000110011001100110011001100110011047
:10013000011001100110011001100110FF0FC31771
:10014000E517D018E517D01827184A18D0189F18A7
:10015000B2181A1C1A1C481C481CA41CE01CE31EE4
:10016000E31EF81CE31EEF1DEF1DBD1EE31EE31E84
:10017000D11E0001E10113021302E1011502150174
:1001800012021201130213010802080115021501DF
:10019000170217011C021C012C022C011202120171
:1001A000090209012C022C01E1010D020D02E101FD
:1001B00004020401060206010E020E012C022C01AB
:1001C000E1011D021D02E1010B020B0112021201ED
:1001D000180218012C022C01E101260226011F023F
:1001E0001F02E1010B020B010E020E0110021001B1
:1001F0000C020C011B021B01E10127022702E10195
:1002000029022900013502350000C0F1A3048A0249
:100210008A218AF1A401C01F141A16041D1B06208E
:100220002115080709190522231C170A0B11001EA6
:10023000C02BE0E1E2E32C2425180C0E0D10003158
:10024000352A28C1E5C5E726271213330F36002DBE
:100250002E302F3438370001010101010101010165
:10026000010101010101010101010101010100017F
:100270000101010101010101010101010101002A46
:100280002A31010101010101010101010101000106
:10029000010101010101000101010101010101014F
:1002A000010101010101010101010101010100013F
:1002B00001010101E3E20101010101010101002A43
:1002C0002A31010101E3E201010101010101000103
:1002D000010101010101003BACB0A9AA696AC43C5B
:1002E0003DAFABA801C3C23E3F0101015557003AE3
:1002F00035390101010101404101464A5456004986
:100300004C2A580101010142434748504B4D0044DB
:100310004501524F514E00545F605D5C595A5B5528
:100320005657615E575856010101010101F600530D
:10033000C453586763620101010101F0F4F2000146
:10034000C601010101010101010101F9F5F10001FD
:1003500001010101FAF30025630025730D0A005223
:100360002C310D0A0053592C464646340D0A0053D1
:10037000482C303033430D0A00537E2C360D0A00D2
:1003800053572C383030300D0A00534D2C340D0AA1
:100390000053532C4B6579626F6172642F4D6F75FA
:1003A00073650D0A00532D2C546D6B42540D0A00D9
:1003B00053462C310D0A002D2D2D0D0A004578696C
:1003C00074696E6720636F6E666967206D6F646520
:1003D000202E2E2E0A002B0D0A00760D0A00242452
:1003E0002400456E746572696E6720636F6E66697E
:1003F00067206D6F6465202E2E2E0A00522C310D61
:100400000A0053522C5A0D0A00555342206D6F6456
:10041000650A004175746F206D6F64650A002530B0
:1004200032750A00253032753A00253032753A00AF
:100430004241543A2025756D560900757074696DF6
:10044000653A202530327520253032753A25303214
:10045000753A253032750A00564255533A202558D0
:100460000A0052656D6F746557616B657570456EF6
:1004700061626C65643A2025580A000A003F004C0E
:100480004F570044495343484700434841524700AF
:1004900046554C4C00626174746572793A2000557F
:1004A00053422053746174653A2025730A00636FC8
:1004B0006E6669675F6D6F64653A2025580A007241
:1004C0006E34325F6175746F636F6E6E65637469ED
:1004D0006E6728293A2025580A00726E34323A2075
:1004E00025730A00666F7263655F7573623A202533
:1004F000580A0070726F746F636F6C3A2025730A2C
:10050000000A2D2D2D2D2D20524E2D343220696EB6
:10051000666F202D2D2D2D2D0A00753A20202020CC
:10052000202020746F67676C6520466F72636520BA
:10053000555342206D6F64650A00703A20202020D8
:1005400020202070616972696E670A00536C636BCA
:100550003A20202020524E2D343220696E69746971
:10056000616C697A650A0044656C3A20202020207D
:10057000656E7465722F6578697420524E2D343221
:1005800020636F6E666967206D6F64650A00623A6A
:1005900020202020202020626174746572792076EA
:1005A0006F6C746167650A00693A20202020202062
:1005B00020524E2D343220696E666F0A000A0A2DD1
:1005C0002D2D2D2D20426C7565746F6F746820522F
:1005D0004E2D34322048656C70202D2D2D2D2D0A86
:1005E00000253032753A253032753A25303275099A
:1005F00025756D560A004C454420737461747573FB
:100600003A20253032580A00202530325800256320
:10061000005B735D004B6579626F61726420737477
:100620006172740A00524E2D343220696E69740A68
:10063000000A55534220696E69740A005B445D00EC
:100640005B435D001203480048004B00420020005D
:100650006D006F00640000000E0374002E006D003A
:100660002E006B002E000000040309040902740030
:10067000040100A032090400000103010100092166
:10068000110100012240000705810308000A090446
:1006900001000103010200092111010001224D00A6
:1006A0000705820308000A09040200010300000094
:1006B0000921110100012236000705830308000A01
:1006C00009040300020300000009211101000122B6
:1006D0002200070584032000010705040320000110
:1006E0001201100100000008EDFE42420401010267
:1006F00000010631FF0974A1010975150026FF00EC
:100700009520750881020976150026FF0095207551
:10071000089102C005010980A10185021681002609
:10072000B7001A81002AB700751095018100C00535
:100730000C0901A1018503160100269C021A010083
:100740002A9C02751095018100C005010902A101D2
:100750000901A100050919012905150025019505C3
:100760007501810295017503810105010930093187
:100770001581257F95027508810609381581257F29
:10078000950175088106050C0A38021581257F95AB
:100790000175088106C0C005010906A101050719F8
:1007A000E029E7150025019508750181029501757D
:1007B0000881010508190129059505750191029522
:1007C00001750391010507190029FF150026FF0097
:1007D000950675088100C0636F6E73756D65723A1A
:1007E00020253034580A0073797374656D3A2025DA
:1007F0003034580A000A002530325820006B6579E1
:10080000626F6172643A20004C45443A20253032D0
:10081000580A00253032583A202530386225730AAC
:1008200000722F632030313233343536370A004FAF
:100830006E6573686F743A2074696D656F75740ABC
:1008400000290A002575002F002575005D28002568
:100850006400200025640020002564002000256439
:10086000007C0025303258006D6F7573656B6579BB
:10087000205B62746E7C782079207620685D287217
:1008800065702F61636C293A205B006D6B5F776840
:1008900065656C5F74696D655F746F5F6D6178200D
:1008A0003D2025640A006D6B5F776865656C5F6D40
:1008B00061785F7370656564203D2025640A006D72
:1008C0006B5F74696D655F746F5F6D6178203D204B
:1008D00025640A006D6B5F6D61785F737065656498
:1008E000203D2025640A006D6B5F696E7465727629
:1008F000616C203D2025640A006D6B5F64656C614E
:1009000079203D2025640A006D6B5F776865656C12
:100910005F74696D655F746F5F6D6178203D202540
:10092000640A006D6B5F776865656C5F6D61785F09
:100930007370656564203D2025640A006D6B5F74EB
:10094000696D655F746F5F6D6178203D2025640A75
:10095000006D6B5F6D61785F7370656564203D202D
:1009600025640A006D6B5F696E74657276616C2038
:100970003D2025640A006D6B5F64656C6179203DE4
:100980002025640A000A00257500363A207768653C
:10099000656C5F74696D655F746F5F6D61783A2037
:1009A000000A00257500353A20776865656C5F6D33
:1009B00061785F73706565643A20000A00257500F0
:1009C000343A2074696D655F746F5F6D61783A20A9
:1009D000000A00257500333A206D61785F737065F9
:1009E00065643A20000A00257500323A20696E7469
:1009F000657276616C286D73293A20000A002575AE
:100A000000313A2064656C6179282A31306D732990
:100A10003A20000A092D2056616C756573202D0A55
:100A2000004D3E004D25643E20003F00736574205C
:100A300064656661756C740A00433E2000776865E2
:100A400072652064656C74613A20637572736F72AD
:100A50003D25642C20776865656C3D25640A5365E7
:100A60006520687474703A2F2F656E2E77696B69F4
:100A700070656469612E6F72672F77696B692F4D9E
:100A80006F7573655F6B6579730A000A092D204DD8
:100A90006F7573656B6579202D0A4553432F713A45
:100AA00009717569740A313A0964656C6179282A9B
:100AB00031306D73290A323A09696E746572766154
:100AC0006C286D73290A333A096D61785F7370651C
:100AD00065640A343A0974696D655F746F5F6D61AE
:100AE000780A353A09776865656C5F6D61785F7380
:100AF000706565640A363A09776865656C5F746984
:100B00006D655F746F5F6D61780A0A703A09707283
:100B1000696E742076616C7565730A643A09736551
:100B2000742064656661756C74730A75703A092B7C
:100B3000310A646F776E3A092D310A706775703A21
:100B4000092B31300A7067646F776E3A092D3130A6
:100B50000A0A7370656564203D2064656C746120C9
:100B60002A206D61785F7370656564202A20287281
:100B70006570656174202F2074696D655F746F5FA7
:100B80006D6178290A003F004D3E2000433E200061
:100B90004C25640A000A092D20436F6E736F6C6543
:100BA000202D0A4553432F713A09717569740A6DF6
:100BB0003A096D6F7573656B65790A000A092D2016
:100BC0004D61676963202D0A643A0964656275673F
:100BD0000A783A096465627567206D617472697894
:100BE0000A6B3A096465627567206B6579626F61AB
:100BF00072640A6D3A096465627567206D6F75737A
:100C0000650A763A0976657273696F6E0A733A09F6
:100C10007374617475730A633A09636F6E736F6CF2
:100C200065206D6F64650A302D343A096C61796511
:100C300072302D34284631302D4634290A506175E2
:100C4000733A09626F6F746C6F616465720A003F7A
:100C50000074696D65725F72656164333228293A88
:100C6000202530346C580A006B6579626F617264BC
:100C70005F69646C653A2025580A006B6579626F7C
:100C80006172645F70726F746F636F6C3A20255885
:100C90000A00686F73745F6B6579626F6172645F7D
:100CA0006C65647328293A2025580A000A092D200A
:100CB000537461747573202D0A004743433A2034FE
:100CC0002E382E31204156522D4C4942433A203184
:100CD0002E382E3073766E204156525F4152434873
:100CE0003A20617672350A004F5054494F4E533ABC
:100CF000204C554641204D4F5553454B45592045B5
:100D0000585452414B455920434F4E534F4C452068
:100D1000434F4D4D414E4420343039360A00425540
:100D2000494C443A2032633730353165662D646969
:100D3000727479202830333A30383A3136204E6F89
:100D4000762031332032303137290A005649443A6F
:100D50002030784645454428742E6D2E6B2E292070
:100D60005049443A203078343234322848484B4293
:100D7000206D6F6429205645523A2030783031304A
:100D8000340A00444553433A20742E6D2E6B2E20B6
:100D90006B6579626F617264206669726D776172EA
:100DA0006520666F722048484B42206D6F640A00D0
:100DB0000A092D2056657273696F6E202D0A000A8C
:100DC0006D6F7573653A206F66660A000A6D6F7500
:100DD00073653A206F6E0A000A6B6579626F617203
:100DE000643A206F66660A000A6B6579626F617209
:100DF000643A206F6E0A000A6D61747269783A2055
:100E00006F66660A000A6D61747269783A206F6EC7
:100E10000A000A64656275673A206F6E0A000A6408
:100E2000656275673A206F66660A000A0A626F6F2C
:100E3000746C6F616465722E2E2E2000433E20007C
:100E400011241FBECFEFDAE0DEBFCDBF04B603FE34
:100E500024C08091A1039091A203A091A303B0911B
:100E6000A4038730904BA740B04BB9F41092A10374
:100E70001092A2031092A3031092A40314BE84B78D
:100E8000877F84BF88E10FB6F8948093600010924A
:100E900060000FBEE0E0F8E3099511E0A0E0B1E0EA
:100EA000E6E9FFE502C005900D92AA39B107D9F72E
:100EB00023E0AAE9B1E001C01D92A13AB207E1F72F
:100EC0000E943B110C94C92F0C9400000FB6809522
:100ED0009AE0F8947BE27A95F1F708F0589A08F4D2
:100EE000589886959A95B1F70FBE08950FB680E889
:100EF000F894499BFECF4999FECF96E19A95F1F778
:100F00009CE29A95F1F7869549998068C8F70FBEDB
:100F100008950FB680E8F89496E19A95F1F79CE26F
:100F20009A95F1F7869549998068C8F796E19A9560
:100F3000F1F7499BFECF0FBE0895FF93EF93E09129
:100F40009A01F0919B01309709F00995EF91FF917B
:100F50000895FC018591803011F0EFDFFBCF0895FB
:100F6000FF27E0E230E247FF0CC0419597FF09C040
:100F7000EDE26095709580959095611D711D811DC4
:100F8000911D27FF02C0219530E350E2AA27660F8A
:100F9000771F881F991FAA1FA41710F0A41B639521
:100FA0005A95A9F7AA3008F0A95FA05DAF93F39511
:100FB000611571058105910541F7ED3211F4EF934B
:100FC000F395F21718F43F93F395FBCF8F91B5DFAC
:100FD000FA95E1F70895E991F9918591803021F032
:100FE000853219F0AADFF9CF089520E0E8945591F1
:100FF0005532C1F3503311F4689455915A3348F483
:10100000505390F3220F022E220F220F200D250F96
:10101000F4CF0EF4219589919991533619F35337F2
:1010200029F1533559F1BC0188279927E8945C369A
:1010300021F48991999168945591543639F446EF89
:101040007EF077FF0DC08FEF9FEF0AC055374AE063
:1010500039F0583540E121F0523642E009F0089568
:10106000FF93EF937DDFEF91FF91B7CFFF93EF9366
:10107000FC0181918030B9F360DFFBCFFF93EF93E8
:1010800068DFF1CFDF93CF93CDB7DEB72596A3DF2F
:10109000CF91DF910895CF93DF93EC01662319F090
:1010A000613071F016C00E943325827280939C01DA
:1010B0009A81992371F0882349F084E092E00BC073
:1010C0008A81882331F083E791E005C08FEF91E0BA
:1010D00002C082E791E0DF91CF91089514B88FEFBD
:1010E00085B9549A5C9808958FEF84B980E485B9E6
:1010F000549A5C9A8FE19EE40197F1F700C00000DA
:1011000008958FEF84B980E485B957985F9A87B1C5
:101110008F7387B988B1806C88B92E9A2F980E94F6
:101120006E08E5EAF1E0119281E0ED3AF807D9F7AF
:10113000EDE9F1E0119281E0E53AF807D9F785EAA7
:1011400091E09093B0018093AF018DE991E090938D
:10115000AE018093AD0108950F931F93CF93DF935A
:101160008091AD019091AE012091AF013091B0011D
:101170003093AE012093AD019093B0018093AF0105
:101180005C9B0E947408C0E0D0E001E010E080E0C9
:1011900090E045B1407C4C2B9C0153E0220F331F63
:1011A0005A95E1F7422B45B9EAE1EA95F1F700C01B
:1011B000E091AD01F091AE01EC0FFD1F208130E018
:1011C000082E02C0359527950A94E2F720FD2F9A44
:1011D000F5E3FA95F1F70000A6B52E982AE12A95D5
:1011E000F1F700C02091AF013091B0014F9B0EC0CC
:1011F000A801082E01C0440F0A94EAF74095F901AE
:10120000EC0FFD1F5081542350830CC0F901EC0FEB
:10121000FD1F6081A801082E01C0440F0A94EAF75F
:10122000642B608346B56A2F70E04A1718F046B504
:1012300050E004C046B550E041505F4F461B570B8D
:101240004630510558F0E091AD01F091AE01EC0F40
:10125000FD1F4081F901EC0FFD1F4083EAE1EA9593
:10126000F1F700C02F982E9AEBE2F1E03197F1F7F9
:1012700000C0000001968830910509F08ACFA09146
:10128000AF01B091B001AC0FBD1FE091AD01F09185
:10129000AE01EC0FFD1F9C918081981751F00E94C8
:1012A0007D266093B1017093B2018093B301909356
:1012B000B4012196C830D10509F069CF5C9B1BC0F1
:1012C00080919803853021F080919803811113C09B
:1012D0006091B1017091B2018091B3019091B4011C
:1012E0000E94B226613177428105910520F00E946B
:1012F0006E080E94002681E0DF91CF911F910F912F
:101300000895E091AF01F091B001E80FF11D8081E7
:1013100008950C9474080C946E08569A81FF02C0CC
:101320005E9A08955E98089588E08093CC001092AC
:10133000CD00E9ECF0E08081806980838081886065
:101340008083EAECF0E080818083EBECF0E0808148
:101350008083559A5D98789408959091B601209174
:10136000B5019217D1F030E0F901E954FE4F8081C8
:101370002F5F3F4F33272093B501492F50E092173D
:1013800018F4241B350B03C0241B350B3395233075
:1013900031050CF05D9890E008958FEF9FEF089570
:1013A0009091C80095FFFCCF8093CE0008951F92C6
:1013B0000F920FB60F9211242F933F934F935F9389
:1013C0008F939F93EF93FF932091B60130E0C90173
:1013D000019699274091B501481741F09091CE00B0
:1013E000F901E954FE4F90838093B6015091B60104
:1013F000842F90E0252F30E0821B930B541708F0C8
:10140000939503970CF45D9AFF91EF919F918F91C3
:101410005F914F913F912F910F900FBE0F901F90B2
:1014200018958091D102089508958091D102089570
:101430000895089508950895CF93DF938D3C910505
:10144000C1F1B8F4853B9105B1F148F4833B9105B6
:10145000D9F1843B9105D9F5D0E0C0E23CC0873B8F
:10146000910579F158F18C3C910589F5D0E0C8E0FF
:1014700032C08A3E9105C9F040F4823E9105B9F030
:10148000893E910521F5D0E125C0813222E0920705
:1014900051F0833222E0920721F08A389140B9F46A
:1014A00018C0D1E017C0D4E015C0D0E213C0D0E41A
:1014B00011C0D0E80FC0D0E0C1E00DC0D0E0C2E064
:1014C0000AC0D0E0C4E007C0D0E0C0E104C0D0E072
:1014D00001C0D2E0C0E08DEF0E94D00983E00E94FD
:1014E000D00983E00E94D0098D2F0E94D0098C2F53
:1014F000DF91CF910C94D009CF93DF93EC018DEF66
:101500000E94D00985E00E94D00982E00E94D009A3
:1015100088810E94D00989810E94D0098A810E9415
:10152000D0098B81DF91CF910C94D009CF93DF93B9
:10153000EC018DEF0E94D00989E00E94D00981E082
:101540000E94D00988810E94D00980E00E94D009C1
:101550008A810E94D0098B810E94D0098C810E94CF
:10156000D0098D810E94D0098E810E94D0098F817F
:10157000DF91CF910C94D0090C94AD09FF920F9399
:101580001F93CF93DF93EC010E9471268C01F12C05
:10159000C8010E9489268C179D07A0F40E94AD09FE
:1015A0009C012F3F8FEF380751F02D3041F02A304A
:1015B00049F0AF2DB0E0A754BD4F2C93F39486E1D2
:1015C0008F1530F7EF2DF0E0E754FD4F108289EBD7
:1015D00092E0DF91CF911F910F91FF9008950C94AD
:1015E000D00981B3881F8827881F0895879A8F9A0A
:1015F000089585B7806885BF85B7806885BF0E94DC
:10160000F60A86988E9A81988998559A5D980C94D6
:101610009409879A8F9808958FB18695817008955F
:101620008FB186FB882780F908958093D1020895B1
:10163000CF93DF93FC018491EF012196882321F061
:101640000E94D009FE01F7CFDF91CF910895CF938B
:10165000DF93C7E5D3E00E94AD098F3F2FEF9207DC
:1016600059F09F938F93DF93CF930E9442080F907E
:101670000F900F900F90EFCFDF91CF9108950E94C0
:10168000180B2FEF89E698E1215080409040E1F758
:1016900000C0000084E690E00E94BE0A8093B7027A
:1016A0009093B8029F938F938AE593E09F938F93D3
:1016B0000E9442080E94270B0F900F900F900F90EE
:1016C0008091B7029091B80208950E94ED1890930E
:1016D0001501809314010E94041F80E091E00E9494
:1016E000E8180E94090B0E94100B8111FCCF82EEBA
:1016F00093E00E94A9072FEF85EB95E321508040EE
:101700009040E1F700C000008EED93E00E943F0B97
:10171000EFEFFBE42DE1E150F0402040E1F700C0A5
:1017200000000E94270B8AED93E00E943F0BFC0112
:101730008081863721F086ED93E00C943F0B08956D
:101740008DEB93E00E94A90787EB93E00E943F0B8B
:101750000E94F60A0E94041F8091140190911501C5
:101760000C94E8180C9478108F929F92AF92BF92CD
:10177000CF92DF92EF92FF920F931F93CF93DF935D
:1017800092E0B92EC8E0D6E00EE016E0AA24A394B9
:1017900023E0922E36EFC32E35E0D32E0E94BC0AF2
:1017A0007C018F3F2FEF920709F446C08091D4024D
:1017B000813009F128F0823029F1833049F139C0B4
:1017C0008EEFE816F10419F4A092D402E7CF90E866
:1017D000E916F10428F4FF92EF921F930F9304C0CF
:1017E000FF92EF92DF93CF930E9442080F900F90E9
:1017F0000F900F90D3CF92E0E916F104D1F4B0929C
:10180000D402CCCFEA94EF28A1F49092D402C6CFB0
:101810008091820380FF0AC0FF92EF92DF92CF9205
:101820000E9442080F900F900F900F908E2D0E94F3
:10183000150B1092D402B2CF8091D602811121C033
:101840008091D50281111DC00E940C0B81110AC02C
:101850000E94ED188A50914029F00E94041F8AE0EE
:1018600091E00DC00E940C0B882359F00E94ED18E6
:101870008651914031F00E94041F86E191E00E9460
:10188000E8188091D2029091D3020E948926893E65
:1018900023E0920708F461C028EE33E0B9010E940A
:1018A000792F629FA001639F500D729F500D1124EC
:1018B0008091D2029091D302840F951F9093D3020E
:1018C0008093D2020E941511833011F481E001C08F
:1018D00080E00E9467100E947D2628EE33E040E001
:1018E00050E00E94A12F49015A018CE3C82ED12C4F
:1018F000E12CF12CCA01B901A70196010E94A12F88
:10190000672B682B692B49F50E94DE10209182031A
:1019100020FF23C09F938F931F921F92C501B40194
:1019200020E13EE040E050E00E94A12FC22FA7013D
:1019300096010E94A12F3F932F931F92CF9381EE88
:1019400095E09F938F930E9442088DB79EB70A96A9
:101950000FB6F8949EBF0FBE8DBF0E940C0B811175
:1019600007C00E94100B882319F06E9A769802C067
:101970006E9A769ADF91CF911F910F91FF90EF9021
:10198000DF90CF90BF90AF909F908F9008958F92EF
:101990009F92AF92BF92CF92DF92EF92FF921F93EE
:1019A000CF93DF9300D000D0CDB7DEB7833109F4F9
:1019B0008CC008F05BC08B3009F466C08C3009F431
:1019C0008FC0853009F0FCC10E947D2628EE33E0EF
:1019D00040E050E00E94A12F49015A010E94DE1010
:1019E0009F938F9380E394E09F938F930E9442088C
:1019F000C501B40120E13EE040E050E00E94A12F8B
:101A00005F934F933F932F932AE234E03F932F93BA
:101A100069837A838C839B830E9442084CE3C42EA3
:101A2000D12CE12CF12C69817A818C819B81A701D9
:101A300096010E94A12F5F934F933F932F9384E2CF
:101A400094E09F938F930E944208C501B401A701BF
:101A500096010E94A12F9F938F937F936F938EE1A6
:101A600094E09F938F930E94420840C1883361F0B5
:101A700020F4883109F440C1A3C1873409F46EC150
:101A80008C3409F456C19CC18DEB95E00E94A907E6
:101A900088EA95E00E94A9078EE895E00E94A907D0
:101AA00087E695E00E94A9078CE495E00E94A907CB
:101AB0008AE395E00E94A9078091D60281117EC138
:101AC0008AE195E00E94A9077EC10E94650B82E031
:101AD00094E00E943F0B8CEF93E00E943F0B6CC19F
:101AE00081E095E00E94A9070E94ED188A5091407C
:101AF00019F488E291E002C08EE291E09F938F9307
:101B000083EF94E09F938F930E9442088091D502C7
:101B10001F928F9384EE94E09F938F930E944208CC
:101B20000E940C0B0FB6F894DEBF0FBECDBF811123
:101B300007C00E94100B882331F08AE391E005C0B2
:101B400083E391E002C087E391E09F938F938AED56
:101B500094E09F938F930E9442080E94F10A1F9283
:101B60008F938FEB94E09F938F930E944208809114
:101B7000D6021F928F938EEA94E09F938F930E94D8
:101B80004208809198030FB6F894DEBF0FBECDBF18
:101B90008823B9F0809198038130B1F08091980347
:101BA0008230A9F0809198038330A1F0809198034E
:101BB000843099F080919803853091F481E791E029
:101BC00011C087E491E00EC08FE391E00BC082E585
:101BD00091E008C08AE591E005C084E691E002C08A
:101BE0008FE691E09F938F938FE994E09F938F937B
:101BF0000E94420885E994E09F938F930E944208D7
:101C00000E9415110F900F900F900F900F900F9052
:101C1000813059F038F0823059F0833061F48FE729
:101C200094E00BC080E994E008C08AE894E005C025
:101C300083E894E002C08DE794E09F938F930E9425
:101C400042080F900F908BE794E09F938F930E9430
:101C50004208809196031F928F9382E694E09F93AF
:101C60008F930E9442088091D90081701F928F93B8
:101C700088E594E09F938F930E9442080E947D26FE
:101C800028EE33E040E050E00E94A12F69017A0184
:101C90005CE3852E912CA12CB12CC701B601A501C6
:101CA00094010E94A12F7F936F93C701B60120E199
:101CB0003EE040E050E00E94A12F122FA5019401C8
:101CC0000E94A12F3F932F931F921F93C701B6012C
:101CD00020E831E541E050E00E94A12F3F932F938F
:101CE0008BE394E09F938F930E9442080FB6F89481
:101CF000DEBF0FBECDBF62C08091D602811163C02E
:101D00008091D502882339F083E194E00E94A907ED
:101D10001092D50253C089E094E00E94A90781E0A7
:101D20008093D5020E94041F86E191E00E94E8188A
:101D300045C00E94F10A882351F08C830E94650BF4
:101D400091E0909393039093D6028C813DC00E94C2
:101D5000A00B109293031092D60230C08091D6024D
:101D6000811102C00E94650B80EB93E00E943F0B43
:101D700085EA93E00E943F0B81E993E00E943F0BCC
:101D80008AE893E00E943F0B80E893E00E943F0BBB
:101D900089E793E00E943F0B8FE693E00E943F0BA0
:101DA00085E693E00E943F0B8FE593E00E943F0B96
:101DB0008091D602811102C00E94A00B81E004C074
:101DC0008091D60201C080E00F900F900F900F908D
:101DD000DF91CF911F91FF90EF90DF90CF90BF9058
:101DE000AF909F908F900895CF93C82F0E94332576
:101DF000827221E009F420E08C2F90E0FC013497FE
:101E0000E934F10508F0FDC0EA5AFF4F0C94C32FE6
:101E10008AE058C1222309F4F8C081E453C1222387
:101E200009F4F5C082E44EC1222309F4F2C083E430
:101E300049C1222309F4EFC084E444C1222309F4F8
:101E4000ECC085E43FC1222309F4E9C086E43AC12D
:101E5000222309F4E6C087E435C1222309F4E3C054
:101E600088E430C1222309F4E0C089E42BC1222395
:101E700009F4DDC08AE426C1222309F4DAC08BE428
:101E800021C1222309F4D7C08CE41CC1222309F408
:101E9000D4C08DE417C1222309F4D1C08EE412C14D
:101EA000222309F4CEC08FE40DC1222309F4CBC054
:101EB00080E508C1222309F4C8C081E503C12223BB
:101EC00009F4C5C082E5FEC0222309F4C2C083E53F
:101ED000F9C0222309F4BFC084E5F4C0222309F429
:101EE000BCC085E5EFC0222309F4B9C086E5EAC08D
:101EF000222309F4B6C087E5E5C0222309F4B3C064
:101F000088E5E0C0222309F4B0C089E5DBC02223C4
:101F100009F4ADC08AE5D6C0222309F4AAC081E243
:101F2000D1C0222309F4A7C080E4CCC0222309F445
:101F3000A4C083E2C7C0222309F4A1C084E2C2C0C6
:101F4000222309F49EC085E2BDC0222309F49BC070
:101F50008EE5B8C0222309F498C086E2B3C02223DC
:101F600009F495C08AE2AEC0222309F492C088E247
:101F7000A9C0222309F48FC089E2A4C088E0A2C0CE
:101F800089E0A0C080E29EC0222309F486C08FE5CC
:101F900099C0222309F483C08BE294C0222309F460
:101FA00080C08BE78FC0222309F47DC08DE78AC0F3
:101FB000222309F47AC08CE785C02111FCCF8CE57F
:101FC00081C0222309F473C08AE37CC0222309F470
:101FD00070C082E277C0222309F46DC08EE772C020
:101FE000222309F46AC08CE36DC0222309F467C080
:101FF0008EE368C0222309F464C08FE363C080E0ED
:1020000061C080E25FC08BE15DC081E65BC082E6BB
:1020100059C083E657C084E655C085E653C086E6BE
:1020200051C087E64FC088E64DC089E64BC08AE6BE
:1020300049C08BE647C08CE645C08DE643C08EE6BE
:1020400041C08FE63FC080E73DC081E73BC082E7EB
:1020500039C083E737C084E735C085E733C086E7FA
:1020600031C087E72FC088E72DC089E72BC08AE7FA
:1020700029C081E327C082E325C083E323C084E332
:1020800021C085E31FC086E31DC087E31BC088E332
:1020900019C089E317C080E315C08DE213C08DE33A
:1020A00011C08BE50FC08DE50DC08CE50BC08BE337
:1020B00009C087E207C080E605C08CE203C08EE25B
:1020C00001C08FE20E94EF0A81E0CF910895833032
:1020D00019F4859A7D9A0895813011F4859A06C085
:1020E000823019F4859A8D9A089585988D9808956F
:1020F00081E00E9467102FEF81EE94E02150804034
:102100009040E1F700C0000082E00E9467102FEFCE
:1021100081EE94E0215080409040E1F700C0000043
:1021200081E00E9467102FEF81EE94E02150804003
:102130009040E1F700C0000082E00E9467102FEF9E
:1021400081EE94E0215080409040E1F700C0000013
:1021500080E00E94671080EC80937C0087E0809391
:102160007A0081E980937E0081E080937F008BE399
:1021700080937D00849A8C9808958091D90080FF87
:102180001BC020B391B385988D9AEFE9FFE031979A
:10219000F1F700C000008FB185FB882780F930B3CC
:1021A00020723F7D232B20BB21B390722F7D922B79
:1021B00091BB91E08927089580E00895CF93DF9344
:1021C00000D0CDB7DEB7849A8C9A80917A0080686F
:1021D00080937A008FE99FE00197F1F700C000003B
:1021E00080917A00806480937A0080917A0086FDE5
:1021F000FCCF80917800909179009A8389838091B7
:102200007A008F7780937A00849A8C9829813A811A
:1022100045E0429FC001439F900D112480559109D4
:102220000F900F90DF91CF9108958091D90080FD9C
:102230000C94BD100E94DE108C3A2DE0920720F421
:1022400081E08093D70205C085379E4010F0109240
:10225000D7028091D702882311F083E0089582E0AD
:102260000895CF93C82F0E9466078C2F0E94BB1140
:1022700080E0CF91089584B7877F84BF88E10FB64F
:10228000F89480936000109260000FBE90E080E8A8
:102290000FB6F89480936100909361000FBE0E9486
:1022A00011160E946E168091E20084608093E20015
:1022B00081E391E10E94D525509A589A5198599AF4
:1022C00078948FEF909198038150943041F0EFE72C
:1022D000FEE33197F1F700C000008111F3CF81E3F5
:1022E00096E00E94A9070E94F90A0E94B20B85E2BB
:1022F00096E00E94A9070E94AA190E940C0B811166
:1023000003C08AE091E002C086E191E00E94E818F3
:1023100085E196E00E94A9070E940C0B882319F121
:10232000809198038530F9F481E196E00E94A90735
:102330000E948B090E9400260E9400260E9400260F
:102340000E9400260E9400260E9400260E9400266D
:1023500080919603882301F30E9426268823E1F2C8
:102360000E946914D9CF0E94AE190E94B40BD4CF39
:102370008091E40208959FB7F8941092DB029FBF0A
:1023800090919803943009F058C09091E9009F70A3
:102390002091EC0020FF02C020E801C020E0292BA2
:1023A00094E09093E9009091EB0090FF43C09091EE
:1023B000EE0097FF3FC09091D802992321F09091B1
:1023C000E80095FF37C01092D80296E03091E800FF
:1023D00035FD15C030919803343061F53091EB0034
:1023E00035FD28C0915021F481E08093D80222C0AD
:1023F000EFE9FFE03197F1F700C00000E7CF8093ED
:10240000F1008091E80085FD0AC08091E80080FF1E
:10241000FCCF8091E8008E778093E80006C08FB7EC
:10242000F89491E09093DB028FBF2F702093E90026
:1024300080E008952F702093E9008FEF0895CF93E7
:10244000DF9300D01F92CDB7DEB7209198032430E0
:1024500019F523E029839B838A832093E9008FEF7A
:102460009091E800815095FD06C095ED9A95F1F7A1
:1024700000008111F5CF8091E80085FF0DC040E09C
:1024800050E063E070E0CE0101960E947F148091DD
:10249000E8008E778093E8000F900F900F90DF9107
:1024A000CF910895CF93DF9300D01F92CDB7DEB7C1
:1024B00020919803243021F522E029839B838A838D
:1024C00083E08093E9008FEF9091E800815095FDC3
:1024D00006C095ED9A95F1F700008111F5CF809136
:1024E000E80085FF0DC040E050E063E070E0CE0101
:1024F00001960E947F148091E8008E778093E80017
:102500000F900F900F90DF91CF9108952091980335
:102510002430F1F422E02093E9002FEF3091E8001D
:10252000215035FD06C035ED3A95F1F70000211137
:10253000F5CF2091E80025FF0BC040E050E065E0BA
:1025400070E00E947F148091E8008E778093E8000D
:102550000895CF93DF93EC0180919803843039F58F
:1025600081E08093E9008FEF9091E800815095FD24
:1025700006C095ED9A95F1F700008111F5CF809195
:10258000E80085FF14C040E050E068E070E0CE0154
:102590000E947F148091E8008E778093E80088E0A5
:1025A000FE01ACEDB2E001900D928A95E1F7DF916A
:1025B000CF91089580E496E00E94A9078091970347
:1025C000811109C00E9411160E946E168091E200CE
:1025D00084608093E20008958CE396E00E94A9074E
:1025E00010929703089508958091D9028F5F809388
:1025F000D90262E30E946D2F911135C01092D90269
:102600008091DB02882379F180919803843049F529
:102610008091E9008F709091EC0090FF02C090E8EB
:1026200001C090E0982B84E08093E9008091EB005A
:1026300080FF14C08091EE0087FF10C08091E800F9
:1026400085FF03C01092F100F9CF8091E80080FF70
:1026500005C08091E8008E778093E8009F7090938A
:10266000E9001092DB02089542E061EC81E00E94F3
:102670008B1542E061EC82E00E948B1542E061EC38
:1026800083E00E948B1542E261EC84E00C948B1590
:1026900080919A03833009F453C030F4813071F093
:1026A000823009F48CC008958A3009F478C08B30E8
:1026B00009F45EC0893009F09AC020C08091990366
:1026C000813A09F094C08091E800877F8093E80008
:1026D00080919D0390919E03892B21F060E080E022
:1026E00090E003C068E08CED92E070E00E94C814B6
:1026F0008091E8008B778093E8000895809199039A
:10270000813209F074C080919D0390919E03892BC2
:1027100009F06DC08091E800877F8093E800809188
:10272000E80082FD05C0809198038111F8CF5FC059
:102730008091F1008093E4028091E8008B7753C090
:1027400080919903813A09F052C080919D03909144
:102750009E03892B09F04BC08091E800877F80930E
:10276000E8008091E80080FFFCCF8091200136C016
:10277000809199038132D9F580919D0390919E03B8
:10278000892BA9F58091E800877F8093E8000E945B
:10279000C01580919B03809320010C94041F8091AD
:1027A0009903813221F58091E800877F8093E800CA
:1027B0000E94C01580919C038093E502089580914A
:1027C0009903813AA1F48091E800877F8093E80023
:1027D0008091E80080FFFCCF8091E5028093F100BA
:1027E0008091E8008E778093E8000C94C0150895DE
:1027F0008091E4028093DA021092E40280E00E9469
:102800008D090E947B1A0C94041F0C94F8130E94EB
:102810003B268091DA028093E40208950C94071419
:10282000292F332723303105A9F06CF421303105ED
:1028300009F442C02230310509F043C084E790E03A
:102840002CE636E042C021323105C9F02232310592
:1028500019F137C099278130910541F082309105F7
:1028600041F0892B71F5E8E6F6E005C0E8E5F6E011
:1028700002C0E4E4F6E0849190E09F0126C0643059
:1028800000F5E62FF0E0EE0FFF1FE957FE4F208125
:10289000318189E090E019C0643098F4E62FF0E0CF
:1028A000DF01AA0FBB1FA158BE4F2D913C91E558E7
:1028B000FE4F808190E009C082E190E020EE36E09A
:1028C00004C080E090E020E030E0FA013183208312
:1028D000089580E189BD82E189BD09B400FEFDCF84
:1028E0008091D8008F7D8093D8008091E000826035
:1028F0008093E0008091E00081FDFCCF0895CF92AD
:10290000DF92EF92FF920F931F93CF93DF937C019F
:102910008B01EA010E94E115811131C0209731F04D
:1029200088819981081B190BE80EF91EC12CD12C46
:102930000115110519F18091E80085FD14C0809101
:10294000E8008E778093E800209741F08881998194
:102950008C0D9D1D9983888385E011C00E94E1152F
:10296000882331F30CC0F70181917F018093F1003E
:1029700001501109FFEFCF1ADF0ADACF80E0DF91B3
:10298000CF911F910F91FF90EF90DF90CF9008951E
:1029900020919F033091A0032617370748F0611557
:1029A000710539F42091E8002E772093E80001C0EA
:1029B000B901FC0120E061157105B9F1809198031E
:1029C000882309F440C0853009F43FC08091E800B5
:1029D00083FD3DC08091E80082FF06C08091E80041
:1029E00082FF26C080E008958091E80080FFE3CF59
:1029F0002091F3008091F20090E0922B6115710517
:102A000051F08830910538F421912093F100615004
:102A100071090196F3CF21E0089709F020E0809139
:102A2000E8008E778093E800C6CF2111C7CFD6CFBC
:102A300080919803882339F0853039F08091E8003F
:102A400083FFCCCF04C082E0089583E0089581E045
:102A5000089520919F033091A0032617370748F06F
:102A60006115710539F42091E8002E772093E80074
:102A700001C0B901FC0120E061157105C1F180912F
:102A80009803882309F441C0853009F440C080913F
:102A9000E80083FD3EC08091E80082FF06C080917F
:102AA000E80082FF27C080E008958091E80080FF61
:102AB000E3CF2091F3008091F20090E0922B61151A
:102AC000710559F08830910540F424912093F1006C
:102AD0003196615071090196F2CF21E0089709F013
:102AE00020E08091E8008E778093E800C5CF211127
:102AF000C6CFD5CF80919803882339F0853039F03F
:102B00008091E80083FFCBCF04C082E0089583E08A
:102B1000089581E00895982F973058F59093E90033
:102B2000981739F07091EC002091ED005091F00071
:102B300003C0242F762F50E021FF19C03091EB0005
:102B40003E7F3093EB003091ED003D7F3093ED0000
:102B50003091EB0031603093EB007093EC002093E8
:102B6000ED005093F0002091EE0027FF07C09F5F1B
:102B7000D3CF8F708093E90081E0089580E00895BD
:102B80008091990387FD05C08091E80080FF0EC009
:102B900012C08091E80082FD05C0809198038111E8
:102BA000F8CF08958091E8008B7708C08091980352
:102BB0008111EACF08958091E8008E778093E80034
:102BC00008958091E4009091E50045E62091EC00A5
:102BD00020FF21C02091E80020FD21C02091980312
:102BE000222389F0253089F02091EB0025FD0FC0CC
:102BF0002091E4003091E5002817390739F341505E
:102C000041F0C901E3CF82E0089583E0089581E0B7
:102C1000089584E008952091E80022FFDFCF80E04E
:102C200008950E947F160E948716E0EEF0E08081F2
:102C300081608083E8EDF0E080818F77808319BC2C
:102C4000A7EDB0E08C918E7F8C9380818F7E808306
:102C50001092970308950F931F93CF93DF930E94D1
:102C60007F160E948716C8EDD0E088818F77888311
:102C700088818068888388818F7D888319BC1092C1
:102C8000980310929403109296031092950300EE0D
:102C900010E0F80180818B7F808388818160888348
:102CA00042E060E080E00E948B15E1EEF0E0808180
:102CB0008E7F8083E2EEF0E080818160808380817E
:102CC00088608083F80180818E7F80838881806125
:102CD0008883DF91CF911F910F910895E8EDF0E087
:102CE00080818F7E8083E7EDF0E08081816080834A
:102CF00084E082BF81E0809397030C942B16E8ED6B
:102D0000F0E080818E7F80831092E200089510921F
:102D1000DA001092E10008951F920F920FB60F9201
:102D200011242F933F934F935F936F937F938F93D0
:102D30009F93AF93BF93EF93FF938091E10082FF46
:102D40000BC08091E20082FF07C08091E1008B7F81
:102D50008093E1000E94F4128091DA0080FF1FC08E
:102D60008091D80080FF1BC08091DA008E7F809315
:102D7000DA008091D90080FF0DC080E189BD82E139
:102D800089BD09B400FEFDCF81E0809398030E94C5
:102D9000DA1205C019BC109298030E94EC128091BF
:102DA000E10080FF19C08091E20080FF15C0809192
:102DB000E2008E7F8093E2008091E2008061809348
:102DC000E2008091D80080628093D80019BC85E031
:102DD000809398030E9405148091E10084FF30C025
:102DE0008091E20084FF2CC080E189BD82E189BD31
:102DF00009B400FEFDCF8091D8008F7D8093D8006C
:102E00008091E1008F7E8093E1008091E2008F7ECF
:102E10008093E2008091E20081608093E2008091E3
:102E20009403882311F084E007C08091E30087FFBA
:102E300002C083E001C081E0809398030E940E14D9
:102E40008091E10083FF29C08091E20083FF25C0CB
:102E50008091E100877F8093E10082E08093980376
:102E6000109294038091E1008E7F8093E100809125
:102E7000E2008E7F8093E2008091E2008061809387
:102E8000E20042E060E080E00E948B158091F0005B
:102E900088608093F0000E94F312FF91EF91BF9140
:102EA000AF919F918F917F916F915F914F913F91E2
:102EB0002F910F900FBE0F901F9018951F920F9299
:102EC0000FB60F9211242F933F934F935F936F93FD
:102ED0007F938F939F93AF93BF93CF93EF93FF9382
:102EE000C091E900CF708091EC001092E9008091D0
:102EF000F000877F8093F00078940E949A171092D8
:102F0000E9008091F00088608093F000C093E900B0
:102F1000FF91EF91CF91BF91AF919F918F917F9151
:102F20006F915F914F913F912F910F900FBE0F9036
:102F30001F9018951F93CF93DF93CDB7DEB7AA9755
:102F40000FB6F894DEBF0FBECDBFE9E9F3E0809184
:102F5000F100819323E0E13AF207C9F70E94481398
:102F60008091E80083FF1CC12091990330919A035E
:102F7000832F90E08A30910508F012C1FC01E156E0
:102F8000FF4F0C94C32F203881F0223809F008C17C
:102F900080919D038F708093E9008091EB0085FB09
:102FA000882780F91092E90006C0809195039091DE
:102FB0009603911182609091E800977F9093E800CA
:102FC0008093F1001092F100C5C0822F8D7F09F02F
:102FD000E7C0222319F0223061F0E2C080919B0308
:102FE000813009F0DDC0333009F080E08093960332
:102FF00028C080919B03811124C020919D032F70D4
:1030000009F4CEC02093E9008091EB0080FF19C045
:103010008091EB00333011F4806211C080618093A5
:10302000EB0081E090E0022E01C0880F0A94EAF7DD
:103030008093EA001092EA008091EB008860809310
:10304000EB001092E9008091E800877F86C0211193
:10305000A7C010919B031F778091E3008078812B9C
:103060008093E3008091E800877F8093E8000E94CE
:10307000C0158091E80080FFFCCF8091E30080685C
:103080008093E300112311F083E001C082E080937C
:10309000980386C02058223008F082C080919B039C
:1030A00090919C038C3D23E0920779F583E08A831D
:1030B0008AE289834FB7F894DE01139620E03EE060
:1030C00051E2E32FF0E050935700E49120FF03C05A
:1030D000E295EF703F5FEF708E2F90E0EA3010F0D6
:1030E000C79601C0C0968D939D932F5F243149F7F9
:1030F0004FBF8091E800877F8093E8006AE270E02C
:10310000CE0101960E94C81414C0AE014F5F5F4FFC
:1031100060919D030E941014009709F441C0209112
:10312000E800277F2093E800BC0189819A810E94F2
:1031300029158091E8008B778093E80031C0203812
:1031400079F58091E800877F8093E800809194036F
:103150008093F1008091E8008E778093E8000E94D0
:10316000C0151EC021111CC090919B039230C0F469
:103170008091E800877F8093E800909394030E94F9
:10318000C01580919403811104C08091E30087FFF2
:1031900002C084E001C081E0809398030E94341350
:1031A0008091E80083FF0AC08091E800877F8093C8
:1031B000E8008091EB0080628093EB00AA960FB646
:1031C000F894DEBF0FBECDBFDF91CF911F91089560
:1031D0009093EB028093EA0208958091EA02909125
:1031E000EB020895E091EA02F091EB02309721F0B2
:1031F0000190F081E02D099480E00895FF920F93F3
:103200001F93CF93DF938C01E091EA02F091EB02E0
:10321000309799F10280F381E02D09958091820326
:1032200082FF2BC080FF04C08DEF97E00E94A907AA
:10323000E80188E0F82E07EF17E08091820380FF15
:103240000BC088811F928F931F930F930E94420897
:103250000F900F900F900F90FA942196F110EDCFF0
:103260008091820380FF09C085EF97E0DF91CF91C5
:103270001F910F91FF900C94A907DF91CF911F919F
:103280000F91FF900895E091EA02F091EB023097E0
:1032900021F00480F581E02D09940895CF93DF9308
:1032A000EC018091E8029091E902C817D90709F171
:1032B000D093E902C093E802E091EA02F091EB02B8
:1032C0003097B9F00680F781E02DCE010995809105
:1032D000820382FF0EC080FF0CC0DF93CF9387EE86
:1032E00097E09F938F930E9442080F900F900F904A
:1032F0000F90DF91CF910895CF93DF93EC018091F0
:10330000E6029091E702C817D90709F1D093E702C6
:10331000C093E602E091EA02F091EB023097B9F037
:103320000084F185E02DCE0109958091820382FF12
:103330000EC080FF0CC0DF93CF9387ED97E09F9383
:103340008F930E9442080F900F900F900F90DF9183
:10335000CF9108950E9468260C9481085F926F9225
:103360007F928F929F92AF92BF92CF92DF92EF9215
:10337000FF920F931F93CF93DF9300D000D01F9243
:10338000CDB7DEB70E94AC088DEEE82E82E0F82EB5
:10339000512CAA24A394B12C852D0E948109682E5A
:1033A000F7018080882641F45394FFEFEF1AFF0A5B
:1033B00088E05812F1CF40C08091820381FD0E94C5
:1033C0007C1A00E010E0912C712CC401002E02C088
:1033D000959587950A94E2F780FF28C009835A8261
:1033E0006501002E02C0CC0CDD1C0A94E2F79601A8
:1033F0002621372181E0232B09F480E08B830E9472
:1034000071268160782F9D838C8349815A816B81DD
:103410008D810E94B01A49815A816B817C818D8196
:103420000E94ED25F70180818C2580830F5F1F4F5F
:103430000830110551F6B8CF8FEF89838A831B823C
:103440000E9471268160782F9D838C8349815A81E7
:103450006B818D810E94B01A0E94EC250E94DD29AB
:103460001091EC020E94F218181771F10E94F218E4
:103470008093EC029091820392FF0EC090FF0CC0EB
:103480001F928F9388E098E09F938F930E94420849
:103490000F900F900F900F908091EC020F900F9073
:1034A0000F900F900F90DF91CF911F910F91FF9090
:1034B000EF90DF90CF90BF90AF909F908F907F90D4
:1034C0006F905F900C94FE250F900F900F900F90CF
:1034D0000F90DF91CF911F910F91FF90EF90DF90B0
:1034E000CF90BF90AF909F908F907F906F905F90A4
:1034F00008950C948D090895EF92FF920F931F93F6
:10350000CF93DF9381E298E00E94A907C0E0D0E06A
:103510008DE2E82E81E0F82E03E118E08C2F0E9466
:1035200081090E94DA25FF92EF921F928F93DF9319
:10353000CF931F930F930E94420821968DB79EB799
:1035400008960FB6F8949EBF0FBE8DBFC830D10548
:1035500029F7DF91CF911F910F91FF90EF90089580
:10356000CF93DF93CDB7DEB72B970FB6F894DEBFBE
:103570000FBECDBF4F83588769877A878B878A852F
:103580009B85892B31F05F3F11F080E003C04F3FF6
:10359000E1F781E0811107C04F81588569857A85FF
:1035A0008B850E94ED25DE01119686E0FD011192CA
:1035B0008A95E9F785E0FE01379601900D928A958C
:1035C000E1F749815A816B817C818D819E810E94C6
:1035D00020222B960FB6F894DEBF0FBECDBFDF9131
:1035E000CF910895CF93C82F882309F4A3C08CEFFF
:1035F0008C0F813A48F48C2F0E94FA2C81119AC0CA
:103600008C2F0E94F1240CC080E28C0F883058F47B
:10361000C77081E001C0880FCA95EAF70E9436257D
:10362000CF910C947C258BE58C0F833078F4C53AD0
:1036300029F0C63A31F482E890E005C081E890E0D4
:1036400002C083E890E0CF910C944E1988E58C0F6E
:10365000853108F06FC0C83A61F1C93A69F1CA3AD8
:1036600071F1CB3A79F1CC3A81F1CD3A89F1CE3A88
:1036700091F1CF3A99F1C13BA1F1C03BA9F1C23B15
:10368000B1F1C33BB9F1C43BC1F1C53BC9F1C63B84
:10369000D1F1C73BD9F1C83BE1F1C93BE9F1CA3BE4
:1036A000F1F1CB3BF9F1CC3B09F03FC08AE292E06B
:1036B0003EC082EE90E03BC089EE90E038C08AEEDA
:1036C00090E035C085EB90E032C086EB90E02FC0F3
:1036D00083EB90E02CC084EB90E029C087EB90E076
:1036E00026C08CEC90E023C08DEC90E020C083E8F5
:1036F00091E01DC08AE891E01AC082E991E017C00C
:1037000084E991E014C081E292E011C083E292E08A
:103710000EC084E292E00BC085E292E008C086E22F
:1037200092E005C087E292E002C080E090E0CF9195
:103730000C947C19CF910895882329F19CEF980F60
:10374000913A18F40E9412250DC090E2980F98301B
:1037500058F4877091E001C0990F8A95EAF7892F94
:103760000E943C250C947C259BE5980F933020F417
:1037700080E090E00C944E19885A853120F480E066
:1037800090E00C947C190895882321F00E9436253E
:103790000C947C250895882321F00E943C250C94EC
:1037A0007C250895CF92DF92EF92FF920F931F93A3
:1037B000CF93DF93CDB7DEB728970FB6F894DEBF6F
:1037C0000FBECDBF8C0185E0F801DE01119601909E
:1037D0000D928A95E1F7F80140815181F280838151
:1037E0009481258122952F70009731F05F3F31F44D
:1037F00031E04F3F19F403C031E001C030E030FD4B
:10380000E2C2782F9D838C836F2D8D812F830E9440
:103810006D249E8388870E946C240E9474234E81AD
:10382000E42FE295EF70F0E0E755FF4F2F816885B8
:103830000C94C32F842F807F142F1F70882311F0C6
:103840001295107FFF2059F0112309F471C2812FC6
:1038500068870E9449250E947C25688569C2862F59
:103860000E949C1B112309F4AEC2812F0E944F2598
:1038700028960FB6F894DEBF0FBECDBFDF91CF9173
:103880001F910F91FF90EF90DF90CF900C947C25CB
:10389000842F807F942F9F70E92E803219F0E2945C
:1038A00080EFE822662319F0613001F129C0FF2082
:1038B000A9F08E2D222349F1213039F528960FB633
:1038C000F894DEBF0FBECDBFDF91CF911F910F9156
:1038D000FF90EF90DF90CF900C945925222319F0A0
:1038E000213009F470C20E9462252CC0FF20E9F04B
:1038F000233008F068C20E9433258E2129F022C0AF
:10390000FF20F1F0211115C08E2D28960FB6F894E6
:10391000DEBF0FBECDBFDF91CF911F910F91FF9002
:10392000EF90DF90CF900C94C41B223008F04BC274
:1039300009C0F801858180FFFBC18F708583E4CFCA
:1039400021110AC28E2D78C1242F26952695237029
:1039500030E02115310521F021303105C9F033C2A5
:10396000FF2021F0862F942F937002C080E090E01A
:1039700028960FB6F894DEBF0FBECDBFDF91CF9172
:103980001F910F91FF90EF90DF90CF900C944E1904
:10399000FF2021F0862F942F937002C080E090E0EA
:1039A00028960FB6F894DEBF0FBECDBFDF91CF9142
:1039B0001F910F91FF90EF90DF90CF900C947C19A6
:1039C000862FFF2019F00E94632802C00E94CB2896
:1039D00028960FB6F894DEBF0FBECDBFDF91CF9112
:1039E0001F910F91FF90EF90DF90CF900C94502992
:1039F000842F837009F076C0F110E5C1262F22953F
:103A000026952770220F220F862F8F70C82ED12C5B
:103A1000E12CF12C022E04C0CC0CDD1CEE1CFF1C92
:103A20000A94D2F764FF10C06FE070E080E090E08D
:103A300004C0660F771F881F991F2A95D2F76095DB
:103A400070958095909503C060E070E0CB01242FC5
:103A5000269526952370422F50E042305105D1F033
:103A60004330510559F16C297D298E299F29413018
:103A7000510541F128960FB6F894DEBF0FBECDBFB9
:103A8000DF91CF911F910F91FF90EF90DF90CF903A
:103A90000C9499236C297D298E299F2928960FB68D
:103AA000F894DEBF0FBECDBFDF91CF911F910F9174
:103AB000FF90EF90DF90CF900C94B3230E94992356
:103AC000C701B60128960FB6F894DEBF0FBECDBF72
:103AD000DF91CF911F910F91FF90EF90DF90CF90EA
:103AE0000C947F23FF2019F0842F817001C08695EC
:103AF000882309F468C1262F229526952770220F66
:103B0000220F862F8F70C82ED12CE12CF12C022E83
:103B100004C0CC0CDD1CEE1CFF1C0A94D2F764FF21
:103B200010C06FE070E080E090E004C0660F771F87
:103B3000881F991F2A95D2F760957095809590956A
:103B400003C060E070E0CB01242F269526952370FA
:103B5000422F50E042305105D1F04330510559F128
:103B60006C297D298E299F294130510541F12896E4
:103B70000FB6F894DEBF0FBECDBFDF91CF911F917E
:103B80000F91FF90EF90DF90CF900C9448246C2918
:103B90007D298E299F2928960FB6F894DEBF0FBE87
:103BA000CDBFDF91CF911F910F91FF90EF90DF90EC
:103BB000CF900C945A240E944824C701B60128963D
:103BC0000FB6F894DEBF0FBECDBFDF91CF911F912E
:103BD0000F91FF90EF90DF90CF900C943624603FD0
:103BE000D9F128F480E4860F803250F09CC0623F07
:103BF00009F461C008F44BC0633F09F470C093C07E
:103C0000162F1071842F8F716887FF2059F00E9442
:103C1000E1236885862F112319F08295807F75CE68
:103C20008F7073CE0E94FC236885862F112319F0B4
:103C30008295807F01C08F7028960FB6F894DEBF02
:103C40000FBECDBFDF91CF911F910F91FF90EF90ED
:103C5000DF90CF900C94CB1BFF20A9F0223008F00E
:103C6000B2C0842F8F7128960FB6F894DEBF0FBEB6
:103C7000CDBFDF91CF911F910F91FF90EF90DF901B
:103C8000CF900C941B24233008F09DC0EACFFF2076
:103C9000A1F0842F8F7128960FB6F894DEBF0FBE67
:103CA000CDBFDF91CF911F910F91FF90EF90DF90EB
:103CB000CF900C94E123FF2061F3842F8F7128961D
:103CC0000FB6F894DEBF0FBECDBFDF91CF911F912D
:103CD0000F91FF90EF90DF90CF900C94FC23FF208A
:103CE00091F0842F8F7128960FB6F894DEBF0FBE27
:103CF000CDBFDF91CF911F910F91FF90EF90DF909B
:103D0000CF900C94D22328960FB6F894DEBF0FBE46
:103D1000CDBFDF91CF911F910F91FF90EF90DF907A
:103D2000CF900C94CD23FF20A1F0222309F4B1CF32
:103D3000862F28960FB6F894DEBF0FBECDBFDF9159
:103D4000CF911F910F91FF90EF90DF90CF900C9447
:103D5000F21A222309F4B1CF862F28960FB6F894D1
:103D6000DEBF0FBECDBFDF91CF911F910F91FF90AE
:103D7000EF90DF90CF900C949C1B4F70C8010E9475
:103D80004B0828960FB6F894DEBF0FBECDBFDF916B
:103D9000CF911F910F91FF90EF90DF90CF900C94F7
:103DA000CD224F70C80128960FB6F894DEBF0FBE23
:103DB000CDBFDF91CF911F910F91FF90EF90DF90DA
:103DC000CF900C94262728960FB6F894DEBF0FBE2E
:103DD000CDBFDF91CF911F910F91FF90EF90DF90BA
:103DE000CF9008950E9456250E9425250E947C258B
:103DF0000E947E2A0E94502980E090E00E944E1985
:103E000080E090E00C947C190E9446250C94F21EF0
:103E10001F93CF93DF9300D000D01F92CDB7DEB7B2
:103E200049835A836B837C838D838C819D81892B0D
:103E300031F05F3F11F010E003C04F3FE1F711E0B8
:103E40001170C9F549815A816B817C818D810E94F5
:103E50006D24482F292F22952F7030E02C3031050A
:103E60004CF42A303105C4F4225031092230310596
:103E700040F024C02C303105D1F02F303105B9F09D
:103E80001DC0853A28F48430C0F4823028F415C06F
:103E900080E2840F883088F0483E30F4403E68F479
:103EA0004450413A58F409C0403F41F406C093FBE6
:103EB000112710F903C010E001C011E0812F0F900D
:103EC0000F900F900F900F90DF91CF911F91089559
:103ED000CF93DF9300D000D01F92CDB7DEB70F9005
:103EE0000F900F900F900F90DF91CF910895CF9387
:103EF000DF9300D000D000D0CDB7DEB726960FB646
:103F0000F894DEBF0FBECDBFDF91CF9108951F9310
:103F1000CF93DF93C091F50216E08091F602C817A7
:103F200099F0D0E01C9FF0011D9FF00D1124E95085
:103F3000FD4F4081518162817381848195810E940E
:103F4000771F2196C770E9CFDF91CF911F91089518
:103F500040912703509128036091290370912A030F
:103F600080912B0390912C030C94771FCF93809119
:103F70002C0382958F7009F05FC0809129038823FC
:103F800009F45AC02091F502A091F602609127032E
:103F90007091280380912A0390912B0331E06F3FA9
:103FA00009F030E0B32FC6E02A1709F445C00097A6
:103FB00021F07F3F21F44B2F03C041E001C040E0DE
:103FC00030E040FD35C0C29FF001C39FF00D1124C9
:103FD000E950FD4F418174132BC04081641328C008
:103FE0004281411125C0438154814817590710F47B
:103FF00041505109481B590B4C325140C8F4809133
:104000002C038F70806180932C0386E0829FF001E7
:10401000839FF00D1124E450FD4F80818F708061EB
:10402000808387E293E00E94D21BCF910C94871F7C
:104030002F5F3F4F2770B8CFCF910895BF92CF9297
:10404000DF92EF92FF920F931F93CF93DF93CDB741
:10405000DEB761970FB6F894DEBF0FBECDBF8C01FF
:1040600085E0F801DE011D9601900D928A95E1F739
:10407000D8014C9111965C9111971296CC901297A1
:104080001396ED90FC90149760912703709128038C
:1040900020912A0330912B032115310531F07F3F08
:1040A00031F481E06F3F19F403C081E001C080E08A
:1040B000B82FB170BB2E80FD7BC1D0902903DD20CD
:1040C00009F4FCC0E0912C03E216F30638F0C701B6
:1040D000821B930B8C32914048F0A1C02095309503
:1040E0002E0D3F1D2C32314008F099C08E2F807F5D
:1040F00009F054C0751315C0641313C0DC2CC11033
:1041000010C0EF70E061E0932C030E94A81F87E2CB
:1041100093E00E94D21B80912C03D80115968C93BA
:104120007EC1E114F10431F05F3F31F481E04F3F93
:1041300019F403C081E001C080E080FD03C081E08C
:104140008C2501C080E0B82FB170DB2E80FF1CC031
:104150008091F5022091F60236E0821709F439C108
:1041600090E0389FF001399FF00D1124E950FD4F88
:104170006181561306C06081461303C06281C61276
:1041800003C001968770E9CFDC2CCC2009F447C12D
:1041900080912C03816080932C0358C0751308C054
:1041A000641306C0C11004C0D8011596EC93B6C0C4
:1041B0004D875E87CF867E2DF98AE88A6C2D8989A6
:1041C0000E94081F882339F1DC2CCC2021F120919A
:1041D0002C03822F82958F7090E002970CF463C0BD
:1041E000809127039091280398878F831986FB86F7
:1041F000EA862C87CE01079654C0751749F14D8782
:104200005E87CF867E2DF98AE88A6C2D89890E9487
:10421000081F81112FC0C8010E94D21BACC08E2F75
:10422000807F59F77E2DF98AE88A6C2D89890E9452
:10423000681F87E293E00E94D21BE7E2F3E086E08A
:10424000DF011D928A95E9F70E94A81FD12CE7C0D3
:104250006413D5CFC110D3CFD8011596EC93C80104
:104260000E94D21BE7E2F3E086E0DF011D928A950F
:10427000E9F7D5C0DC2CCC2071F220912C03822FE1
:1042800082958F7090E0029774F08091270390914F
:1042900028039A8389831B82FD82EC822E83CE01C0
:1042A00001960E94D21B86E0F801A7E2B3E00190DC
:1042B0000D928A95E1F70E94B61F77C0E216F306C9
:1042C00040F0F701E21BF30B9F012C32314048F024
:1042D0005EC0209530952E0D3F1D2C32314008F0E8
:1042E00056C0DC2CCC2009F496CF75132CC0641377
:1042F0002AC080912C0380FD1DC0982F92959F703D
:10430000C9F0D80115968C9315979F3039F09F5FAF
:104310009295907F8F70892B15968C93C8010E947F
:10432000D21B86E0F801A7E2B3E001900D928A95D6
:10433000E1F73BC086E0F801A7E2B3E001900D92FF
:104340008A95E1F76CC04D875E87CF867E2DF98A0E
:10435000E88A6C2D89890E94081F882379F086E0FD
:10436000F801A7E2B3E001900D928A95E1F70E946F
:10437000B61F0E94A81FDD24D39451C080912C0346
:10438000816080932C03C8010E94D21B48C07E2DFF
:10439000F98AE88A6C2D89890E94681FE7E2F3E0B8
:1043A00086E0DF011D928A95E9F70E94A81F37C0B9
:1043B000CC2009F430CF4D875E87CF867E2DF98AD9
:1043C000E88A6C2D89890E94081F882309F423CF6D
:1043D000C6CF7E2DF98AE88A6C2D89890E946D24CA
:1043E000292F22952F7030E0223031052CF49F7058
:1043F00041F0811106C00CC0243031052CF49F70AF
:1044000049F4805E883020F0C8010E94D21BBD2C88
:10441000DB2C05C0F8019581907F99F7F9CF8D2DA0
:1044200061960FB6F894DEBF0FBECDBFDF91CF917E
:104430001F910F91FF90EF90DF90CF90BF90089564
:104440001F93CF93DF93CDB7DEB72C970FB6F894B9
:10445000DEBF0FBECDBF4F83588769877A878B87B2
:104460009C87CE0107960E941E208823C1F02F81D1
:1044700038858A859B85892B31F03F3F11F080E09C
:1044800003C02F3FE1F781E0811147C04F8158857C
:1044900069857A858B859C850E94771F3EC086E062
:1044A000FE013796DE01119601900D928A95E1F793
:1044B000FF81E8854A855B854115510531F0EF3F65
:1044C00031F481E0FF3F19F403C081E001C080E0D6
:1044D00080FD23C02091F60230E0C901019687706B
:1044E00099276091F50270E086179707F1F1F9833B
:1044F000EA835D834C8396E0929FD001939FB00D39
:104500001124A950BD4FFE01319601900D929A954C
:10451000E1F78093F6020E94871F16E08091F50272
:104520009091F602891779F1189FC00111248950E2
:104530009D4F0E941E20882331F1E091F5021E9FBD
:10454000F0011124E950FD4F408151816281738156
:10455000848195810E94771F8091F50290E00196F9
:10456000877099278093F502D9CF0E94041F10927B
:10457000F6021092F502E7E2F3E086E0DF011D9219
:104580008A95E9F7CACF2C960FB6F894DEBF0FBE16
:10459000CDBFDF91CF911F910895DF92EF92FF92EF
:1045A0000F931F93CF93DF93FC01009709F48AC008
:1045B000E12CF12CDD24D394EF01219684918537F1
:1045C00009F461C058F4843708F04EC0843008F014
:1045D0006AC08130D1F0823071F174C0883709F43B
:1045E0005DC050F4863709F455C0873709F06AC0BA
:1045F0008E2D0E94432554C09CE7980F903708F0F9
:1046000061C08F770E949C1B50C08F010E5F1F4FAF
:10461000FE01849190E2980F983050F48770FD2D40
:1046200001C0FF0F8A95EAF78F2F0E94492515C018
:104630000E94F21A14C08F010E5F1F4FFE01849179
:1046400090E2980F983068F48770FD2D01C0FF0F3D
:104650008A95EAF78F2F0E944F250E947C25E8015A
:1046600024C00E949C1BFBCF9F012E5F3F4FFE0189
:10467000C491CC2369F08FE99FE00197F1F700C066
:104680000000C150F6CF9F012E5F3F4FFE01F49016
:10469000E9010BC00E943325E82E07C00E94462581
:1046A0000E947C2502C00E94F21A9F2D992341F09E
:1046B000EFE9FFE03197F1F700C000009150F6CF2D
:1046C000FE017ACFDF91CF911F910F91FF90EF9074
:1046D000DF90089560936D0370936E0380936F0372
:1046E000909370030C94FD2508956093710370936B
:1046F000720380937303909374030C94FC250F93BF
:104700001F930091710310917203209173033091F4
:104710007403602B712B822B932B60937103709326
:10472000720380937303909374031F910F910C9401
:10473000FC250F931F930091710310917203209138
:104740007303309174036023712382239323609356
:1047500071037093720380937303909374031F919A
:104760000F910C94FC250F931F93009171031091EE
:10477000720320917303309174036027712782279D
:1047800093276093710370937203809373039093E4
:1047900074031F910F910C94FC2560E070E0CB0135
:1047A0000C946A2341E050E060E070E004C0440FE4
:1047B000551F661F771F8A95D2F7CB01BA010C945B
:1047C0006A2341E050E060E070E004C0440F551FF0
:1047D000661F771F8A95D2F780916D0390916E03C3
:1047E000A0916F03B0917003482B592B6A2B7B2B40
:1047F000CB01BA010C946A2341E050E060E070E024
:1048000004C0440F551F661F771F8A95D2F7409545
:1048100050956095709580916D0390916E03A09175
:104820006F03B0917003482359236A237B23CB0184
:10483000BA010C946A2341E050E060E070E004C0EB
:10484000440F551F661F771F8A95D2F780916D031D
:1048500090916E03A0916F03B09170034827592780
:104860006A277B27CB01BA010C946A230F931F930D
:1048700000916D0310916E0320916F0330917003CE
:10488000602B712B822B932B1F910F910C946A2319
:104890000F931F9300916D0310916E0320916F038E
:1048A0003091700360237123822393231F910F9112
:1048B0000C946A230F931F9300916D0310916E0364
:1048C00020916F033091700360277127822793270F
:1048D0001F910F910C946A2308959F92AF92BF92FB
:1048E000CF92DF92EF92FF920F931F93CF93DF93BC
:1048F00000D000D01F92CDB7DEB76B837C838D8351
:104900005A018C819D81892B41F08FEFB81207C02D
:1049100081E09FEF491303C003C081E001C080E044
:1049200080FF03C080E090E04BC08B818823C1F101
:10493000C0907103D0907203E0907303F090740301
:1049400080916D0390916E03A0916F03B0917003FD
:10495000C82AD92AEA2AFB2A0FE110E0D701C601AA
:10496000002E04C0B695A795979587950A94D2F71F
:1049700080FD05C00150110988F7912C07C0902EC9
:10498000B501802F0E9442270197A1F398E0B99EBC
:10499000F0011124EA0DF11DE35DFC4F908209C086
:1049A00088E0B89EF0011124EA0DF11DE35DFC4F93
:1049B0009080A982BA8269817A81892D0E944227DA
:1049C0000F900F900F900F900F90DF91CF911F914C
:1049D0000F91FF90EF90DF90CF90BF90AF909F909E
:1049E0000895409121015091220120E030E09FEF95
:1049F000FA01E20FF31F6281681799F09F3F19F4E3
:104A0000611101C0922F2F5F3F4F2630310581F792
:104A10009F3F39F0FA01E90FF11D97FDFA95828366
:104A200008950895409121015091220120E030E045
:104A3000FA01E20FF31F9281981301C012822F5FD7
:104A40003F4F26303105A1F7089581E090E0E091D5
:104A50002101F0912201E80FF91F108201968830A0
:104A60009105A9F70895809181030895909181039C
:104A7000982B9093810308958095909181039823BA
:104A80009093810308958093810308951092810388
:104A9000089590918003982B9093800308958095BA
:104AA000909180039823909380030895109280033F
:104AB0000895809377030E947126909376038093E4
:104AC0007503089510927703109276031092750380
:104AD0000895409121015091220120E030E080E0D2
:104AE000FA01E20FF31F918191118F5F2F5F3F4F0A
:104AF00027303105A9F70895E0912101F0912201B5
:104B0000809181038083E0912101F09122018081D5
:104B100090918003892B808380917703882309F407
:104B20003EC00E9471262091750330917603821752
:104B3000930760F00E9471262091750330917603EF
:104B4000821B930B8C32914070F41BC00E94712623
:104B5000209175033091760320953095280F391FE9
:104B60002C32314070F08091820380FF08C08FE2C8
:104B700098E09F938F930E9442080F900F900E949D
:104B80006225E0912101F0912201808190917703CB
:104B9000892B80830E94692581110E946225809162
:104BA0002101909122010C94FE1890939B01809317
:104BB0009A0108958295982F9C7C9695969583737B
:104BC00044E0849F90011124922B892F8A7A869544
:104BD0009575990F892B08950895CF93DF9300D091
:104BE00000D01F92CDB7DEB70F900F900F900F90AF
:104BF0000F90DF91CF910895089508950C94791A3C
:104C000080919803843009F11092830320E488E1B5
:104C100090E00FB6F894A895809360000FBE2093A3
:104C2000600083B7817F846083BF83B7816083BF67
:104C30007894889583B78E7F83BF88E10FB6F89408
:104C400080936000109260000FBE0895CF930E9481
:104C500089090E94AC080E948B09C0E08C2F0E9439
:104C60008109811105C0CF5FC830C1F780E001C064
:104C700081E0CF9108950E947B1A0C94041F1F922B
:104C80000F920FB60F9211248F939F93AF93BF9300
:104C900080918303811113C08091840390918503D7
:104CA000A0918603B09187034196A11DB11D809309
:104CB000840390938503A0938603B0938703BF91E9
:104CC000AF919F918F910F900FBE0F901F901895ED
:104CD00082E084BD93E095BD9AEF97BD80936E000E
:104CE00008952FB7F8948091840390918503A09143
:104CF0008603B09187032FBF08952FB7F894609172
:104D000084037091850380918603909187032FBF60
:104D10000895CF92DF92EF92FF920F931F932FB7D8
:104D2000F8944091840350918503609186037091BB
:104D300087032FBF6A017B01EE24FF248C0120E052
:104D400030E0C016D106E206F30610F441505109D6
:104D5000481B590BCA011F910F91FF90EF90DF90F4
:104D6000CF900895CF92DF92EF92FF920F931F930F
:104D70004FB7F89400918403109185032091860326
:104D8000309187034FBF68017901C61AD70AE80A34
:104D9000F90A061717072807390718F0C701B601DF
:104DA00006C0C701B60161507109810991091F91BF
:104DB0000F91FF90EF90DF90CF9008951F920F9288
:104DC0000FB60F9211248F939F93AF93BF9380914F
:104DD000840390918503A0918603B0918703019687
:104DE000A11DB11D8093840390938503A093860336
:104DF000B0938703BF91AF919F918F910F900FBE9A
:104E00000F901F9018950E941116F8942FEF87EAC3
:104E100091E6215080409040E1F700C0000087E01B
:104E200090EBDC018093A1039093A203A093A303D2
:104E3000B093A4032CE088E190E00FB6F894A89515
:104E4000809360000FBE20936000FFCF0895E72F8E
:104E5000F0E098E0899FE00DF11D112483E0EE0F52
:104E6000FF1F8A95E1F7E60FF11DE95EFD4F849182
:104E70000895E82FF0E0EE0FFF1FE757FF4F8591F1
:104E8000949108950E94272790E4980F903218F487
:104E90000E94392708958D3B60F4883AA0F5853A41
:104EA00038F5843010F5813009F088C021E030E019
:104EB00087C0883E98F4803EC0F48F3B09F07EC0E6
:104EC0000E94041F2FEF80E792E021508040904025
:104ED000E1F700C000000E94032770C0803F08F483
:104EE0006DC0282F30E030656BC0282F30E068C0DF
:104EF000853A21F0863A21F492E803C091E801C096
:104F000093E880E458C0883A51F1893A51F18A3ADD
:104F100051F18B3A51F18C3A51F18D3A51F18E3A6F
:104F200051F18F3A51F1813B51F1803B51F1823B7C
:104F300051F1833B51F1843B51F1853B51F1863B6B
:104F400059F1873B59F1883B59F1893B59F18A3B2B
:104F500059F18B3B59F18C3B61F59AE228C092EEF6
:104F600029C099EE27C09AEE25C095EB23C096EB99
:104F700021C093EB1FC094EB1DC097EB1BC09CECB2
:104F800019C09DEC17C093E805C09AE803C092E9E8
:104F900001C094E985E40FC091E209C093E207C023
:104FA00094E205C095E203C096E201C097E286E470
:104FB00002C090E084E4292F382F02C020E030E0C6
:104FC000C901089580918B0380FF0BC06091260179
:104FD00085E0689FB0011124759567957595679573
:104FE0002AC081FF09C06091260185E0689FB00159
:104FF0001124759567951FC082FF07C06091260137
:1050000085E0689FB001112416C040918C034423B1
:10501000C9F060912501461788F72091260185E0A7
:10502000289F90011124429FC001439F900D11249D
:1050300070E00E948D2F6038710540F46115710594
:1050400039F002C065E070E0862F08958FE708957B
:1050500081E0089580918B0380FF08C06091240156
:1050600070E0759567957595679521C081FF06C0BD
:105070006091240170E07595679519C082FF04C0A6
:105080006091240170E010C080918C038823C1F0EE
:10509000609123018617A0F790912401989FC00189
:1050A000112470E00E948D2F6038710528F461157D
:1050B000710521F0862F08958FE7089581E0089506
:1050C00061E070E0F4CF803F21F40E94E2278195F7
:1050D00004C0813F29F40E94E22780938F03089542
:1050E000823F21F40E94E227819504C0833F29F486
:1050F0000E94E22780938E030895893F19F40E944D
:105100002A2805C08A3F31F40E942A28819580937D
:10511000900308958B3F21F40E942A28819504C0B2
:105120008C3F29F40E942A28809391030895843F9C
:1051300021F480918D03816017C0853F21F4809117
:105140008D03826011C0863F21F480918D038460BD
:105150000BC0873F21F480918D03886005C0883F94
:1051600031F480918D03806180938D0308958D3F8C
:1051700021F480918B0381600BC08E3F21F48091DC
:105180008B03826005C08F3F29F480918B0384607C
:1051900080938B030895803F39F480918F0387FFBC
:1051A0006CC010928F0369C0813F29F480918F03F6
:1051B0001816BCF362C090918E03823F29F497FFCA
:1051C0005CC010928E0359C0833F19F41916CCF3BA
:1051D00054C0893F41F48091900318160CF04DC0E3
:1051E000109290034AC08A3F29F48091900387FF70
:1051F00044C0F6CF8B3F39F48091910387FF3DC0C7
:10520000109291033AC08C3F29F4809191031816B3
:10521000BCF333C0843F21F480918D038E7F17C08F
:10522000853F21F480918D038D7F11C0863F21F44D
:1052300080918D038B7F0BC0873F21F480918D037C
:10524000877F05C0883F31F480918D038F7E8093E6
:105250008D0313C08D3F21F480918B038E7F0BC093
:105260008E3F21F480918B038D7F05C08F3F29F401
:1052700080918B038B7F80938B0380918E038111B0
:105280000EC080918F0381110AC08091900381111B
:1052900006C080919103811102C010928C03089581
:1052A0008091820383FF7EC088E698E00E94A90770
:1052B00080918D031F928F9383E698E09F938F9345
:1052C0000E94420881E698E00E94A90720918E037F
:1052D000822F992787FD90959F932F938EE598E0D5
:1052E0009F938F930E9442088CE598E00E94A90743
:1052F00020918F03822F992787FD90959F932F935D
:1053000089E598E09F938F930E94420887E598E093
:105310000E94A90720919003822F992787FD9095DD
:105320009F932F9384E598E09F938F930E94420868
:1053300082E598E00E94A90720919103822F992786
:1053400087FD90959F932F938FE498E09F938F9381
:105350000E9442088CE498E00E94A90780918C0387
:105360001F928F9389E498E09F938F930E94420845
:1053700087E498E00E94A90780918B031F928F9386
:1053800084E498E09F938F930E94420881E498E020
:105390000E94A9078DB79EB74C960FB6F8949EBF92
:1053A0000FBE8DBF8DE893E00E9443190E947126C5
:1053B000909389038093880308951F93CF93DF937D
:1053C00080918803909189030E94892640918C03E3
:1053D000442321F02091270130E006C020918A0368
:1053E0005AE0259F900111248217930708F482C088
:1053F00080918E0310918F03D0919003C0919103FF
:10540000811107C0111105C0D11103C0CC2309F4CB
:1054100071C04F3F19F04F5F40938C03181624F46E
:105420000E94E22780938E0380918E0387FF05C040
:105430000E94E227819580938E03111624F40E9426
:10544000E22780938F0380918F0387FF05C00E941E
:10545000E227819580938F0360918E03662339F153
:1054600010918F03112319F1772767FD7095872F0E
:10547000972F0E947E2E23E333E343E35FE30E94F2
:10548000E22E0E944B2E60938E03612F772767FDDB
:105490007095872F972F0E947E2E23E333E343E3FB
:1054A0005FE30E94E22E0E944B2E60938F031D1635
:1054B00024F40E942A28809390038091900387FF10
:1054C00005C00E942A288195809390031C1624F41D
:1054D0000E942A28809391038091910387FF05C041
:1054E0000E942A28819580939103DF91CF911F918B
:1054F0000C945029DF91CF911F910895EDE8F3E0CE
:1055000085E0DF011D928A95E9F710928C031092D5
:105510008B0308958BE89AE00E94A9071F9281E00F
:105520008F931F9285E08F938DE39AE09F938F93E3
:105530000E9442080F900F900F900F900F900F90C5
:1055400008958330E9F128F4813061F0823009F167
:105550000895853009F462C008F449C0863009F422
:1055600074C0089520918A03862F90E0820F911DC8
:105570008F3F910520F4620F60938A0303C08FEF81
:1055800080938A0380918A031F928F9386E799E024
:1055900072C020912701862F90E0820F911D8F3FCE
:1055A000910520F4620F6093270103C08FEF809371
:1055B0002701809127011F928F9384E699E05BC0B9
:1055C00020912601862F90E0820F911D8F3F91053B
:1055D00020F4620F6093260103C08FEF80932601B1
:1055E000809126011F928F9381E599E044C020911C
:1055F0002501862F90E0820F911D8F3F910520F4A9
:10560000620F6093250103C08FEF80932501809185
:1056100025011F928F938CE399E02DC020912401E6
:10562000862F90E0820F911D8F3F910520F4620F2D
:105630006093240103C08FEF8093240180912401A3
:105640001F928F9383E299E016C020912301862F49
:1056500090E0820F911D8F3F910520F4620F6093BF
:10566000230103C08FEF80932301809123011F92B8
:105670008F9388E099E09F938F930E9442080F9048
:105680000F900F900F900895833081F128F48130AE
:1056900059F08230D1F00895853009F449C0B8F14D
:1056A000863009F456C0089580918A03681720F463
:1056B000861B80938A0302C010928A0380918A031A
:1056C0001F928F9389EF98E054C08091270168174B
:1056D00020F4861B8093270102C01092270180913D
:1056E00027011F928F9387EE98E043C08091260197
:1056F000681720F4861B8093260102C010922601B1
:10570000809126011F928F9384ED98E032C08091A2
:105710002501681720F4861B8093250102C0109292
:105720002501809125011F928F938FEB98E021C076
:1057300080912401681720F4861B8093240102C005
:1057400010922401809124011F928F9386EA98E0A1
:1057500010C080912301681720F4861B80932301D9
:1057600002C010922301809123011F928F938BE836
:1057700098E09F938F930E9442080F900F900F9094
:105780000F900895CF93C82F1F928F9320E93BE08D
:105790003F932F930E94420861E070E080E090E028
:1057A00004C0660F771F881F991FCA95D2F70E9401
:1057B00075230F900F900F900F90CF910C94041FB2
:1057C000CF93873288F58E3108F008C18E3009F406
:1057D00086C0D8F4873009F460C08B3009F44FC01C
:1057E000863009F0FFC080918203817F8E7F809395
:1057F000820385E99BE00E94A9078CE39EE00E945A
:10580000A90781E08093930346C0863109F4ADC0B7
:1058100020F4803109F478C0E5C0893109F48EC0E4
:105820008B3109F449C0DEC0883349F150F4893224
:1058300009F4D2C0853309F4CFC0873209F0D2C051
:10584000CBC0833409F4C8C028F48A3308F4CAC032
:105850008953C5C0883409F0C5C00E94041F8BE27B
:105860009EE00E94A9072FEF83ED90E32150804036
:105870009040E1F700C000000E9403270CC08CEBB1
:105880009BE03FC082E19EE00E94A90780918203D5
:10589000816080938203C1E0AAC080918203C82FF7
:1058A000C17080FFEFCF8EE19EE00E94A90780913A
:1058B0008203817F8E7F3CC08091820381FBCC2755
:1058C000C0F991E0C927C0FB81F980938203CC2302
:1058D00019F085E09EE027C087EF9DE012C080911F
:1058E000820382FBCC27C0F991E0C927C0FB82F973
:1058F00080938203CC2319F088EE9DE014C088EDDC
:105900009DE00E94A907C7CF8091820383FBCC272B
:10591000C0F991E0C927C0FB83F980938203CC23AF
:1059200051F08CEC9DE00E94A90780918203816078
:10593000809382035CC08FEB9DE0E3CF80EB9DE022
:105940000E94A90783E89DE00E94A9078CE49DE0DE
:105950000E94A9078EE19DE00E94A90788EE9CE0C5
:105960000E94A9078AEB9CE0CCCF8CEA9CE00E94C5
:10597000A9070E94F2181F928F9382E99CE09F93DF
:105980008F930E944208809120011F928F938BE792
:105990009CE09F938F930E9442088091E5021F92A2
:1059A0008F9388E69CE09F938F930E9442080E9409
:1059B0007D269F938F937F936F9381E59CE09F93C8
:1059C0008F930E9442088DB79EB742960FB6F89407
:1059D0009EBF0FBE8DBF5FCF80E001C08D510E9482
:1059E000C22B59CF8FE49CE00E94A907C0E08C2F06
:1059F000CF910895CF93C82F80919303813071F098
:105A000020F0823009F448C03EC1A0912101B0913C
:105A100022018C91823209F038C107C0A091210186
:105A2000B09122018C91823249F48C2F0E94C70CD4
:105A300081112FC08C2F0E94E02B2CC08C2F0E9434
:105A4000F40E811126C0C431E1F070F4CB3081F046
:105A5000C031D1F40E948A2A88E89BE00E94A907FD
:105A600082E08093930315C0C93259F0C83361F4C2
:105A700085E99BE00E94A9078CE89BE00E94A907AA
:105A800008C01092930303C186E89BE00E94A90717
:105A9000FEC081E08170FDC0C43220F5CE3108F037
:105AA000C0C0CB3099F1C8F4C73009F0D2C0109211
:105AB0008A0384E18093270184E0809326018FE0AC
:105AC0008093250188E08093240188E2809323015C
:105AD0008CE29AE00E94A907BFC0C33149F1C431EA
